:100000000C949B000C94C3000C94C3000C94C3008C
:100010000C94C3000C94C3000C94C3000C94C30054
:100020000C94C3000C94C3000C94BC050C944E04B7
:100030000C94C3000C94C3000C94C3000C94C30034
:100040000C94C3000C94C3000C94C3000C94C30024
:100050000C94C3000C94C3000C94C3000C941001C6
:100060000C94C3000C94C3000C94C3000C94C30004
:100070000C94C3000C94C3000C94C3000C94C300F4
:100080000C94C3000C94C3000C94C3000C94C300E4
:100090000C94C3000C94C3000C94C3000C94C300D4
:1000A0000C94C3000C94C3000C94C3001201000212
:1000B000EF020140412336800001010203011201D9
:1000C00000020000004041233680000101020301CC
:1000D00041726475696E6F204C4C430041726475C7
:1000E000696E6F204C656F6E6172646F0004030966
:1000F00004080B00020202010009040000010202D0
:100100000000052400100105240101010424020659
:1001100005240600010705810310004009040100C1
:10012000020A0000000705020240000007058302E2
:10013000400000004E0711241FBECFEFDAE0DEBF03
:10014000CDBF11E0A0E0B1E0ECE1F0E102C005902C
:100150000D92A432B107D9F721E0A4E2B1E001C0C9
:100160001D92A539B207E1F711E0C6E3D1E004C062
:100170002297FE010E940808C433D107C9F70E94E4
:10018000FD000C940C080C9400001F9902C05D9AAD
:1001900001C05D98669902C0589A01C05898789934
:1001A00002C0599A01C05998799902C05A9A01C05F
:1001B0005A987E9902C05B9A01C05B9889B18F7290
:1001C00008950E94C500809300018FE39FE101978D
:1001D000F1F700C0000008956E9880B38C7B80BB5F
:1001E00027988AB18F628AB9769A81B3836481BB7A
:1001F0002F9A08950C94EC0008950E94B7010E9474
:10020000FC008DE291E00E943F060E94FA00C0E0EF
:10021000D0E00E94E1002097E1F30E940000F9CFB6
:100220001F920F920FB60F9211242F933F938F932B
:100230009F93AF93BF938091250190912601A09148
:100240002701B09128013091240123E0230F2D379D
:1002500020F40196A11DB11D05C026E8230F0296CA
:10026000A11DB11D209324018093250190932601A7
:10027000A0932701B09328018091290190912A0130
:10028000A0912B01B0912C010196A11DB11D80936D
:10029000290190932A01A0932B01B0932C01BF91C7
:1002A000AF919F918F913F912F910F900FBE0F9023
:1002B0001F9018953FB7F8948091290190912A01D9
:1002C000A0912B01B0912C0126B5A89B05C02F3F12
:1002D00019F00196A11DB11D3FBF6627782F892F08
:1002E0009A2F620F711D811D911D42E0660F771FCD
:1002F000881F991F4A95D1F708958F929F92AF92C8
:10030000BF92CF92DF92EF92FF926B017C010E942D
:100310005A014B015C01C114D104E104F104F1F074
:100320000E945C060E945A01681979098A099B0992
:10033000683E73408105910570F321E0C21AD1082F
:10034000E108F10888EE880E83E0981EA11CB11C1C
:10035000C114D104E104F10429F7DDCFFF90EF903F
:10036000DF90CF90BF90AF909F908F90089578943A
:1003700084B5826084BD84B5816084BD85B58260AA
:1003800085BD85B5816085BDEEE6F0E08081816048
:100390008083E1E8F0E01082808182608083808148
:1003A00081608083E0E8F0E0808181608083E1E922
:1003B000F0E0808182608083808181608083E0E9D9
:1003C000F0E0808181608083E1ECF0E080818460F6
:1003D0008083808182608083808181608083E3EC80
:1003E000F0E0808181608083E0ECF0E080818260D9
:1003F0008083E2ECF0E0808181608083EAE7F0E0D6
:10040000808184608083808182608083808181603C
:1004100080838081806880830895615030F02091CE
:10042000F100FC0120830196F8CF289884E68093A0
:1004300036010895409131015091320120912F01F0
:100440003091300142175307B4F49091E800957051
:10045000E1F39091E80092FD19C08093F100809142
:1004600031019091320101968F739927892B19F4EC
:100470008EEF8093E80080913101909132010196D6
:10048000909332018093310181E0089580E00895D6
:10049000CF92DF92EF92FF920F931F93CF93DF9350
:1004A0001F92CDB7DEB7082F162FF42E862F880F98
:1004B0008E5F99830E941A0283E00E941A02E02E46
:1004C000C02E9981D92E8C2D8E19811798F4F601A2
:1004D000F7FE02C0849101C080810E941A02082F99
:1004E00080E00E941A028023FFEFCF1ADF0A8111F9
:1004F000EACF01C081E00F90DF91CF911F910F9162
:10050000FF90EF90DF90CF9008958091D7008160A9
:100510008093D70080EA8093D80089B5806189BD37
:1005200089B5826089BD09B400FEFDCF61E070E04D
:1005300080E090E00E947D018091D8008F7C8061F6
:100540008093D8008091E000807F8093E000089540
:10055000CF93DF931F92CDB7DEB71982CE010196FC
:100560000E94BA060E94F207BE016F5F7F4F0E9491
:100570006B0789810F90DF91CF9108952FB7FC0110
:100580002083F89467706093E9000895CF93DF9318
:100590001F92CDB7DEB7682FCE0101960E94BE0232
:1005A0008091F20099819FBF0F90DF91CF910895C4
:1005B000FF920F931F93CF93DF9300D0CDB7DEB799
:1005C000F62E8A0190913501992311F057FF03C04F
:1005D0008FEF9FEF2BC0682FCE0101967A830E9488
:1005E000BE028091F20090E0A8017A818017910705
:1005F0000CF4AC01EF2DF72FF40E84E6FE1639F063
:100600002898809336019091F1009193F7CF41158E
:10061000510521F08091F200882321F089818FBF5C
:10062000CA0104C08BE68093E800F8CF0F900F90CA
:10063000DF91CF911F910F91FF900895CF93DF939A
:100640001F92CDB7DEB741E050E0BE016F5F7F4F34
:100650000E94D802019719F4898190E002C08FEFBF
:100660009FEF0F90DF91CF910895CF93DF931F926B
:10067000CDB7DEB7682FCE0101960E94BE029091E1
:10068000E800892F807295FF04C09091F20080E409
:10069000891B99819FBF0F90DF91CF9108956F9231
:1006A0007F928F929F92AF92BF92CF92DF92EF9202
:1006B000FF920F931F93CF93DF931F92CDB7DEB7B7
:1006C000782E7B01C42EB52E80913501882369F0E8
:1006D000042F152F8AEFD82E872D8072982E9AE33B
:1006E000A92E872D8074882E11C08FEF9FEF57C0E1
:1006F000872D0E943503682E81110CC0DA94A9F36E
:1007000061E070E080E090E00E947D01011511053C
:1007100079F73BC0282F30E0021713070CF4602E46
:10072000672DCE0101960E94BE028091E80085FFF0
:1007300029C0262D30E0021B130B992039F06A9452
:100740008FEF6816B1F01092F100F9CFF701862D06
:1007500077FE07C0815058F094919093F100319644
:10076000F9CF815020F091919093F100FACFE20EF1
:10077000F31E8091E80085FF0FC00115110511F4EB
:1007800081100AC089818FBFC1CF5D9884E68093B4
:1007900037018C2D9B2D03C0A092E800F3CF0F9062
:1007A000DF91CF911F910F91FF90EF90DF90CF904D
:1007B000BF90AF909F908F907F906F900895109210
:1007C000E900109232011092310190933001809330
:1007D0002F010895CF92DF92FF920F931F93CF9333
:1007E000DF9300D0CDB7DEB7F82E8A016B0101157B
:1007F0001105B1F0F601F7FE02C0849101C08081BD
:1008000049835A830E941A0201501109FFEFCF1A3F
:10081000DF0A49815A818111EACF8FEF9FEF01C032
:10082000CA010F900F90DF91CF911F910F91FF9010
:10083000DF90CF900895BF92CF92DF92EF92FF9218
:100840000F931F93CF93DF936C018B01EB013BEF71
:10085000B32E2097C1F07E01C134D1051CF020E4F5
:10086000E22EF12C8091E80082FFFCCFC8018C1BA6
:100870009D0B6E2D8C0D9D1D0E940D02B092E80007
:10088000CE19DF09E6CFC801DF91CF911F910F91FB
:10089000FF90EF90DF90CF90BF9008951F920F923E
:1008A0000FB60F921124DF92EF92FF920F931F93D6
:1008B0002F933F934F935F936F937F938F939F9368
:1008C000AF93BF93EF93FF93CF93DF93CDB7DEB793
:1008D0006C97DEBFCDBF1092E9008091E80083FFE6
:1008E00023C168E0CE0145960E940D0282EF8093FD
:1008F000E8003D8937FF05C08091E80080FFFCCF0C
:1009000003C08EEF8093E800832F807609F0F0C05B
:100910002E894F89D88C21110CC0303829F4809150
:1009200034018093F10002C01092F1001092F100A6
:10093000F4C0842F90E09D29213049F43111EDC09D
:10094000019709F0EAC0809134018D7F0AC02330FD
:1009500059F43111E2C0019709F0DFC080913401F0
:10096000826080933401D9C0253041F48091E80041
:1009700080FFFCCF40684093E300CFC0263009F0F1
:100980008DC0EB8CFC8C22E0D2122CC080E090E079
:100990000E94DF030E94A80299E08E010F5F1F4FA3
:1009A000F801292F11922A95E9F79983DA8291E0CB
:1009B0009E8390EA98879AEF998720913101309130
:1009C0003201275F3F4F3C832B838D83C7010E94F9
:1009D000DF0349E050E0B80180E00E94EA030E9492
:1009E000A8029BC0C7010E94DF030E94F207BE015C
:1009F0006B5E7F4F0E949407009719F00CF08DC03A
:100A000090C081E0D8120EC08B8D9C8D089719F490
:100A100081E080932E0180912E0181112FC06EEB19
:100A200070E031C0E3E0DE127CC08F89882349F199
:100A3000823029F440E860E18CED90E01CC0813008
:100A400029F440E86BE080ED90E015C0833009F0B8
:100A500068C00E94F2078E010F5F1F4FB8010E940D
:100A6000B307F80101900020E9F73197E01BF10B83
:100A700040E06E2FC8010E9448024DC06CEA70E051
:100A800002C06DEE70E06115710509F44AC0FB010A
:100A9000449150E080E80E94EA033FC0273009F407
:100AA00040C0283021F481E08093F10036C0293025
:100AB000A1F53370B1F5E2E0F1E081E021E036E349
:100AC0009081992361F08093E9002093EB0091914C
:100AD0009093EC003093ED008F5F873089F78EE7BD
:100AE0008093EA001092EA008F898093350115C047
:100AF0008B8D9C8D0E94DF03898D811105C0CE01F5
:100B000045960E94C50607C00E94F207BE016B5EB3
:100B10007F4F0E94D207882321F08EEF8093E80058
:100B200003C081E28093EB006C960FB6F894DEBFB1
:100B30000FBECDBFDF91CF91FF91EF91BF91AF91EC
:100B40009F918F917F916F915F914F913F912F91E5
:100B50001F910F91FF90EF90DF900F900FBE0F90BD
:100B60001F9018958093E9008091F200882319F076
:100B70008AE38093E80008951F920F920FB60F92B8
:100B800011242F933F934F935F936F937F938F9392
:100B90009F93AF93BF93CF93EF93FF93C091E100E7
:100BA0008091E100837F8093E1008093E100C3FFA7
:100BB0000FC01092E90081E08093EB001092EC00EE
:100BC00082E38093ED001092350188E08093F0007D
:100BD000C2FF19C083E00E94B205809137018823CB
:100BE00039F080913701815080933701882389F152
:100BF00080913601882339F08091360181508093AD
:100C00003601882341F1C4FF10C08091E2008E7E3E
:100C100081608093E2008091E1008F7E8093E1000B
:100C2000809133018E7E806111C0C0FF16C080911B
:100C3000E2008E7E80618093E2008091E1008E7EF2
:100C40008093E100809133018E7E81608093330137
:100C500004C05D9ACDCF289AD6CFFF91EF91CF9166
:100C6000BF91AF919F918F917F916F915F914F91C4
:100C70003F912F910F900FBE0F901F9018951092DB
:100C8000350110923401109233010E948502809147
:100C9000E1008E7E8093E1008DE08093E200559A22
:100CA000209AEEEFFFE7859194918B3F9C4D19F4CC
:100CB00081E08093880108950895CF93DF931F9278
:100CC000CDB7DEB76983DC01ED91FC910280F38141
:100CD000E02D41E050E0BE016F5F7F4F09950F901E
:100CE000DF91CF910895CF93DF93EC018C859D85A3
:100CF00097FF05C082E00E941E039D878C878C852C
:100D00009D85DF91CF91089583E00C94B205FC019D
:100D10008485958597FD06C082E00E94C60290E01A
:100D20000196089582E00E94C60290E00895FC01B9
:100D30008485958597FD05C02FEF3FEF3587248784
:100D4000089582E00C941E03CF93DF93EC01809111
:100D50001301882331F083E00E944F03181619060F
:100D600034F081E090E09B838A8380E090E0DF9123
:100D7000CF910895FC0120812E5F208342E450E052
:100D800061EF70E080E80C94EA03FC01218180812E
:100D9000813A59F4213209F04BC047E050E06CE051
:100DA00071E080E00E94EA035EC0813209F040C039
:100DB000233289F4838190E0982F88273281832B16
:100DC000A0E0B0E08093080190930901A0930A018C
:100DD000B0930B010FC0203239F467E070E08CE073
:100DE00091E00E941B0409C0223221F48281809389
:100DF000130103C02D7F2032B1F58091880181114C
:100E000003C0E0E0F8E002C0EEEFFAE080910C01F0
:100E100090910D01A0910E01B0910F01803B944083
:100E2000A105B10511F58091130180FF03C01DC01C
:100E300080E00895EE3F2AE0F20731F08081918151
:100E40009093FF0A8093FE0A87E797E79183808358
:100E50002BE088E190E00FB6F894A89580936000AD
:100E60000FBE2093600081E0089588E10FB6F894EA
:100E700080936000109260000FBEA895EE3F8AE05C
:100E8000F80739F08091FE0A9091FF0A91838083E0
:100E9000EACF1092FF0A1092FE0AE5CF10923B01B2
:100EA00010923A0188EE93E0A0E0B0E080933C011C
:100EB00090933D01A0933E01B0933F0188E191E002
:100EC00090933901809338018FEF9FEF9093450104
:100ED000809344010895EF92FF920F931F93CF9355
:100EE000DF937B01FC01C281D38100E010E02097F9
:100EF00081F0E881F9810280F381E02DB701CE0114
:100F0000099597FD08C0080F191F0884D985C02DC1
:100F1000EECFC80102C08FEF9FEFDF91CF911F91FD
:100F20000F91FF90EF9008950F931F93CF93DF934E
:100F30008B01FC01C281D381209771F0E881F98196
:100F40000480F581E02DB801CE010995009731F4B8
:100F50000884D985C02DF0CF80E090E0DF91CF915B
:100F60001F910F9108950F931F93CF93DF938B01E0
:100F7000FC01C281D381209771F0E881F98106805C
:100F8000F781E02DB801CE010995080F111D0884E5
:100F9000D985C02DF0CFF8011082DF91CF911F913C
:100FA0000F9108950F931F93CF93DF938B01FC0153
:100FB000C281D381209771F0E881F9810190F0819D
:100FC000E02DB801CE010995811106C00884D985AC
:100FD000C02DF0CF80E001C081E0DF91CF911F9163
:100FE0000F91089580918D0181110DC082E0809351
:100FF000890184E080938A0110928C0110928B0108
:1010000081E080938D0189E891E00895EE0FFF1F44
:0C1010000590F491E02D0994F894FFCFB6
:10101C002F00C18081000000FFFFFFFF00E10000F6
:10102C0000000000000000005D06A406870697067D
:04103C0073068406AD
:2070000055C000006EC000006CC000006AC0000068C0000066C0000064C0000062C0000043
:2070200060C000005EC00000F2C400005AC0000058C0000056C0000054C0000052C00000EE
:2070400050C0000078C000004CC000004AC0000048C0000046C0000044C0000042C00000BE
:2070600040C000003EC000003CC000003AC0000038C0000036C0000034C0000032C0000048
:2070800030C000002EC000002CC000002AC0000028C0000026C0000024C0000022C00000A8
:2070A00020C000001EC000001CC0000011241FBECFEFDAE0DEBFCDBF11E0A0E0B1E0E2E3BC
:2070C000FFE702C005900D92A83AB107D9F711E0A8EAB1E001C01D92AE3BB107E1F78FD30B
:2070E00026C78ECFF89410926F0010928100109285001092840081E085BF15BE47985D9AEB
:20710000289A0C94000008952091B2013091B3012F5F3F4F3093B3012093B201932F37FFA6
:2071200003C08EEF831B982F990F921710F447980895479A08951F920F920FB60F9211246E
:207140002F938F939F93EF93FF9310928500109284008091A8019091A901009741F00197D3
:207160009093A9018093A801892B09F45D9A8091AA019091AB01009741F001979093AB0126
:207180008093AA01892B09F4289AE0E0F0E0859194918F5F9F4F49F08091AC019091AD0151
:2071A00001969093AD018093AC01FF91EF919F918F912F910F900FBE0F901F90189584E0BC
:2071C0008093E9000DC08091E8008B778093E80003C08EB3882351F08091E80082FFF9CFBE
:2071E0008091E80085FFEFCF8091F1000895982F83E08093E9008091E80085FD0DC0809136
:20720000E8008E778093E80003C08EB3882369F08091E80080FFF9CF9093F1005D9884E6CB
:2072200090E09093A9018093A80108954F925F926F927F928F929F92AF92BF92CF92DF921E
:20724000EF92FF920F931F93CF93DF9384E08093E9008091E80082FF57C2289884E690E067
:207260009093AB018093AA01AADF182F853481F48CE49DE19093AD018093AC0107B600FC4B
:20728000FDCFF999FECF81E180935700E89503C0843519F494DF8DE00DC28C34E1F38035F9
:2072A000D1F3843721F484E4A2DF80E003C2813611F489E5FFC18134B1F481DF182F7FDFE3
:2072C00090E0880F991FAA2797FDA095BA2F312F330F20E0442737FD4095542F822B932B68
:2072E000A42BB52BB8C1803711F483E5E3C1833549F4C0E0D1E089917ADF21E0C730D20714
:20730000D1F7D9C1863521F481E371DF80E3D2C1833731F487E86BDF85E969DF8EE1CAC149
:207320008536B9F4E0E0F0E093E085E090935700E89507B600FCFDCF80935700E89507B65D
:2073400000FCFDCFE058FF4FA0E7E030FA0771F7A2CF823739F4E1E0F0E089E08093570024
:207360008491A8C1863439F4E0E0F0E089E08093570084919FC18E3439F4E3E0F0E089E0E5
:2073800080935700849196C1813539F4E2E0F0E089E08093570084918DC1823631F489E521
:2073A00026DF80E024DF80E885C1823419F0873609F0E5C01092AD011092AC0100DF082FE8
:2073C000FEDEF82EFCDE682E8554823008F071C1902F80E0CF2DD0E0C82BD92B10926F00B3
:2073E000173609F04BC081E180935700E895DD24CC24C3943FC0E090AE01F090AF010091CC
:20740000B0011091B101B6E46B16D9F4ED2DF0E0EE29FF29E4918E2FEADEDD2081F082E08D
:2074200090E0A0E0B0E0E80EF91E0A1F1B1FE092AE01F092AF010093B0011093B101DC2470
:2074400018C0D801C701B695A7959795879559D5CEDE82E090E0A0E0B0E0E80EF91E0A1FF2
:207460001B1FE092AE01F092AF010093B0011093B1012197209709F0BECF7DC08090AE01F5
:207480009090AF01A090B001B090B10196E4691609F05DC083E0F40180935700E89507B63E
:2074A00000FCFDCF54C0F6E46F1661F5772031F1E090AE01F090AF010091B0011091B1019E
:2074C0007EDED82ECC24852D90E08C299D29F7010C0140925700E895112482E090E0A0E08B
:2074E000B0E0E80EF91E0A1F1B1FE092AE01F092AF010093B0011093B10102C060DE582E1A
:20750000742423C0E090AE01F090AF010091B0011091B10116950795F794E79450DE682FFA
:20752000C701F7D48091AE019091AF01A091B001B091B1010296A11DB11D8093AE01909349
:20754000AF01A093B001B093B101219704C05524772444244394209709F0A5CF96E46916B6
:2075600041F485E0F40180935700E89507B600FCFDCF8DE03CDE82E080936F009CC0833492
:2075800071F40091AE011091AF0119DE90E021E0F8010C0120935700E89511247CCE8336C8
:2075A00019F5E090AE01F090AF010091B0011091B10105DEF701E16090E021E00C0120938C
:2075C0005700E895112482E090E0A0E0B0E0E80EF91E0A1F1B1FE092AE01F092AF0100936A
:2075E000B0011093B10157CE8D3661F4E091AE01F091AF0185E080935700E89507B600FCF2
:20760000FDCF49CE823551F4E091AE01F091AF0105911491812FEBDD802F4CC0843421F5FE
:20762000E090AE01F090AF010091B0011091B10116950795F794E794C2DD682FC70169D4DE
:207640008091AE019091AF01A091B001B091B1010296A11DB11D8093AE019093AF01A093D8
:20766000B001B093B10117CE843609F5E090AE01F090AF010091B0011091B101D801C70142
:20768000B695A795979587953CD4B1DD82E090E0A0E0B0E0E80EF91E0A1F1B1FE092AE010A
:2076A000F092AF010093B0011093B10104C08B3111F08FE39CDD83E08093E9009091E8002B
:2076C0008091E8008E778093E80095FF04C010C08EB38823C9F08091E80080FFF9CF809193
:2076E000E8008E778093E80003C08EB3882361F08091E80080FFF9CF84E08093E9008091F1
:20770000E8008B778093E800DF91CF911F910F91FF90EF90DF90CF90BF90AF909F908F90AC
:207720007F906F905F904F9008959091B601892F8F77813249F58091B7018032A1F081328A
:2077400019F5913A09F58091E800877F8093E8008DE091E067E070E00BD28091E8008B770B
:207760008093E8000895913279F48091E800877F8093E8008DE091E067E070E05DD2809192
:20778000E8008E778093E800089582E061EC42E0B5D083E061E842E1B1D084E060E842E1EF
:2077A000ADC084B7877F84BF88E10FB6F89480936000109260000FBE20E880E090E00FB63F
:2077C000F89420936100809361000FBE81E085BF92E095BF3F9A209A559AE1E6F0E02083A1
:2077E000108247985D9A289A109289008AEF8093880090936F0083E080938100F0C0409116
:20780000000850910108109201081092000894B714BE88E10FB6F8948093600010926000D5
:207820000FBE292F30E0F901E270F07091FD18C090FF05C0859194918F5F9F4F81F423FFFF
:207840000FC08091090190910A014817590741F0E0E0F0E0859194918F5F9F4F09F042DC64
:20786000A0DF78941092AD011092AC010CC0DEDC36D38091AC019091AD0181549F4110F00D
:207880001092140141DC80911401882381F78091E00081608093E00025DC80E090E0089598
:2078A000FA01923049F0933061F09130F9F485E191E022E130E01EC087E291E02EE330E04D
:2078C00019C0882329F485E691E024E030E012C0813029F489E691E022E230E00BC0823006
:2078E00029F48DE891E028E130E004C080E090E020E030E091838083C90108958093E9004E
:207900008091EB0081608093EB001092ED006093EC004093ED008091EE00881F8827881F62
:2079200008958091B60188238CF403C08EB38823B1F08091E80082FFF9CF8091E8008B772A
:207940008093E80008958EB3882349F08091E80080FFF9CF8091E8008E778093E800089594
:20796000EF92FF920F931F9345D04CD008ED10E0F80180818F77808380818068808380819B
:207980008F7D808319BC1EBA1092B40180EEE82EF12CF70180818B7F8083F8018081816052
:2079A000808380E060E042E0A9DFE1EEF0E080818E7F8083E2EEF0E0808181608083808144
:2079C00088608083F70180818E7F8083F8018081806180831F910F91FF90EF900895E7ED06
:2079E000F0E08081816080838AE482BF81E08093B501B6CFE8EDF0E080818E7F808310921C
:207A0000E20008951092DA001092E10008951F920F920FB60F9211242F933F934F935F93F6
:207A20006F937F938F939F93AF93BF93EF93FF938091DA0080FF1BC08091D80080FF17C0B2
:207A40008091DA008E7F8093DA008091D90080FF0BC080E189BD82E189BD09B400FEFDCF36
:207A600081E08EBB3BD203C019BC1EBA37D28091E10080FF17C08091E20080FF13C0809138
:207A8000E2008E7F8093E2008091E20080618093E2008091D80080628093D80019BC85E049
:207AA0008EBB1CD28091E10084FF2CC08091E20084FF28C080E189BD82E189BD09B400FEC5
:207AC000FDCF8091D8008F7D8093D8008091E1008F7E8093E1008091E2008F7E8093E20012
:207AE0008091E20081608093E2008091B401882331F48091E30087FD02C081E001C084E067
:207B00008EBBECD18091E10083FF21C08091E20083FF1DC08091E100877F8093E10082E06A
:207B20008EBB1092B4018091E1008E7F8093E1008091E2008E7F8093E2008091E2008061E9
:207B40008093E20080E060E042E0D8DEC7D1FF91EF91BF91AF919F918F917F916F915F9130
:207B60004F913F912F910F900FBE0F901F9018959C014091BC015091BD014617570718F49D
:207B8000F90190E044C06115710511F0AB01F8CF8091E8008E778093E80040E050E0F0CF0F
:207BA0008EB3882309F444C0853009F443C08091E80083FF02C081E008958091E80082FD70
:207BC00031C08091E80080FF22C08091F3009091F200782F60E0292F30E0262B372B07C07A
:207BE00081918093F100415050402F5F3F4F4115510519F02830310598F390E02830310566
:207C000009F491E08091E8008E778093E8004115510531F6992321F605C08EB3882341F075
:207C2000853041F08091E80082FFF7CF80E0089582E0089583E008959C016115710529F47C
:207C40008091E8008B778093E800F90126C08EB3882391F1853091F18091E80083FF02C06C
:207C600081E008958091E80082FFF1CF06C08091F10081936150704059F02091F300809191
:207C8000F200322F20E090E0822B932B892B79F78091E8008B778093E80061157105B9F601
:207CA00005C08EB3882341F0853041F08091E80080FFF7CF80E0089582E0089583E00895C2
:207CC0000F931F93DF93CF9300D0CDB7DEB7E6EBF1E08091F100819381E0EE3BF807C9F792
:207CE00024DD8091E80083FFE4C08091B6019091B701953009F46DC0963040F4913081F1A7
:207D0000913070F0933009F0D4C02AC0983009F4A3C0993009F4B2C0963009F0CAC07CC023
:207D2000803809F4C6C0823809F0C3C08091BA0187708093E9008091EB001092E9002091DB
:207D4000E800277F2093E80090E025E0969587952A95E1F781708093F1001092F10087C0D8
:207D6000882319F0823009F0A4C08F71823009F0A0C08091B801882331F52091BA01277097
:207D800009F497C02093E9008091EB0080FF1BC0933021F48091EB00806213C08091EB0018
:207DA00080618093EB0081E090E002C0880F991F2A95E2F78093EA001092EA008091EB00E5
:207DC00088608093EB001092E9008091E800877F51C0882309F06DC01091B8011F770FB79B
:207DE000F8948091E800877F8093E8009ADD8091E80080FFFCCF8091E3008078812B809398
:207E0000E30080688093E300112311F482E001C083E08EBB0FBF4DC08058823008F049C033
:207E20008091B8019091B9016091BA01AE014F5F5F4F36DDBC01009709F43BC08091E8008E
:207E4000877F8093E80089819A8192DE8091E8008B778093E8002DC0803859F58091E800AA
:207E6000877F8093E8008091B4018093F1008091E8008E778093E80054DD1BC08823C9F4CA
:207E80009091B8019230A8F48091E800877F8093E8009093B40145DD8091B401882331F420
:207EA0008091E30087FD02C081E001C084E08EBB6CDC8091E80083FF0AC08091EB0080624E
:207EC0008093EB008091E800877F8093E8000F900F90CF91DF911F910F91089508951F9360
:207EE0008EB3882361F01091E9001092E9008091E80083FF01C0E4DE17701093E9001F916F
:207F00000895F999FECF92BD81BDF89A992780B50895262FF999FECF1FBA92BD81BD20BDBD
:207F20000FB6F894FA9AF99A0FBE01960895F894FFCF4341544552494E4100777700080031
:207F40000000000000080112011001020000084123360001000201000109023E00020100FF
:207F600080320904000001020201000524001001042402040524060001070582030800FF0C
:207F800009040100020A000000070504021000010705830210000104030904220341007216
:207FA000006400750069006E006F0020004C0065006F006E006100720064006F0000001836
:1A7FC00003410072006400750069006E006F0020004C004C004300000000D7
:00000001FF
