:100000000C94FD000C9425010C9425010C94250101
:100010000C9425010C9425010C9425010C942501C8
:100020000C9425010C9425010C947B170C940D164F
:100030000C9425010C9425010C9425010C942501A8
:100040000C9425010C9425010C9425010C94250198
:100050000C9425010C9425010C9425010C9442115B
:100060000C9425010C9425010C9425010C94250178
:100070000C9425010C9425010C9425010C94250168
:100080000C9425010C9425010C9425010C94FE027E
:100090000C9425010C9425010C9425010C94250148
:1000A0000C9425010C9452060C94250171127612C1
:1000B0007B1285128F12D912D912D9129912A3125A
:1000C000AD12B712C412D912CC12FA12FD12EC12F0
:1000D000F012F6121E131E131E130113051309133B
:1000E0000F1313131E1319130000000200090F0051
:1000F00000030401000C00000000000000000000EC
:1001000000000000000000040802011040804010C0
:10011000204080408008020401804020100201102D
:10012000801020404020040404040403040502025B
:100130000202040302020202060606060606040480
:100140000202020404000000002300260029002C03
:10015000002F0000000000250028002B002E003199
:100160000000000000240027002A002D00300012AB
:10017000010002EF02014041233680000101020329
:1001800001120100020000004041233680000101FD
:1001900002030141726475696E6F204C4C4300414B
:1001A000726475696E6F204C656F6E6172646F006A
:1001B00004030904080B0002020201000904000004
:1001C00001020200000524001001052401010104C0
:1001D00024020605240600010705810310004009DA
:1001E000040100020A0000000705020240000007A7
:1001F000058302400000B604F21811241FBECFEFA1
:10020000DAE0DEBFCDBF11E0A0E0B1E0E4E5F8E365
:1002100002C005900D92AE32B107D9F722E0AEE2EE
:10022000B1E001C01D92A63BB207E1F711E0CAEFB1
:10023000D1E004C02297FE010E94D31BC63FD10724
:10024000C9F70E94B8130C94281C0C9400001F934B
:10025000CF93DF9381E791E00E9411078AE591E057
:100260000E946405729A6A9A8AB180638AB96E9A0A
:100270007698279A2F988BB18F7C8BB98FE680BBAD
:1002800081BBF894109292001092900082E08093CB
:10029000910080917100816080937100789480E377
:1002A00098EF90939500809394005D9862E082E1CE
:1002B0000E941F1362E087E10E941F13C1E0629B4E
:1002C00042C061E671E081E791E00E94ED07892B71
:1002D00091F18091650190916601A0916701B091C3
:1002E00068018D3322EC92072FEFA207B10559F177
:1002F0008D3F22E092072FEFA207B10551F4C09382
:1003000042015D9A6CE271E080E090E00E94BB11D6
:100310000EC08D3D9242AF4FB10549F45D9A6CE23B
:1003200071E080E090E00E94BB111092420181E7F1
:1003300091E00E94370764E670E080E090E00E9460
:10034000BB115D98BCCF81E791E00E9437075C9AB2
:10035000769AC5E0D0E010E12F9A8BB181278BB956
:1003600068EC70E080E090E00E94BB112F9866E19D
:1003700073E080E090E00E94BB11219769F78091C3
:100380004001833519F481E080934301809143015A
:10039000882311F084E101C08AE080934D0181E05F
:1003A000809345010E948C1160934E0170934F0120
:1003B0008093500190935101DF91CF911F91089547
:1003C0000F931F930E948C1100914E0110914F01C9
:1003D0002091500130915101601B710B820B930BE6
:1003E0006039714081059105E0F0809140018335CD
:1003F00071F4809143018111109243018FE790E0E5
:1004000090930701809306018CE380934D010E9435
:100410008C1160934E0170934F0180935001909323
:1004200051010E94981100915201109153012091A5
:10043000540130915501601B710B820B930B6C3D85
:1004400075408105910508F48EC0809140018C347F
:1004500009F450C01CF4813431F06FC08235B9F01A
:10046000833529F16AC080914D01823328F480914F
:1004700008019091090145C088EC90E090934C01EF
:1004800080934B0190934A018093490156C080911B
:1004900008019091090190934C0180934B01809148
:1004A000080190910901919581959109EBCF809177
:1004B000430181111BC080913F01823599F48091E5
:1004C00008019091090190934C0180934B01809118
:1004D00008019091090191958195910990934A01A4
:1004E0008093490180913F018C3421F08091420139
:1004F000811110C080910801909109019195819519
:10050000910990934C0180934B0180910801909147
:100510000901B8CF809108019091090191958195C9
:10052000910990934A01809349018091080190912B
:10053000090190934C0180934B01409149015091E6
:100540004A0160914B0170914C018AE591E00E9453
:1005500054050E9498116093520170935301809347
:100560005401909355010E948C11009156011091F5
:1005700057012091580130915901601B710B820B7A
:10058000930B6436710581059105A8F161E671E070
:1005900081E791E00E94ED07892B19F180916501B7
:1005A00090916601A0916701B09168018D33924CE2
:1005B000AF4FB10591F410924501769810E18AE5AC
:1005C00091E00E9464058BB181278BB96CE271E0E8
:1005D00080E090E00E94BB11F2CF81E791E00E94A1
:1005E00037070E948C1160935601709357018093D6
:1005F0005801909359011F910F9108951F920F92E6
:100600000FB60F9211242F933F934F935F936F93E5
:100610007F938F939F93AF93BF93EF93FF9380E369
:1006200098EF90939500809394008FB180958C7093
:1006300080933E019FB19170909347019FB1991FA4
:100640009927991F90934601811104C090913D0113
:10065000911106C090913C019923F9F0811109C0D4
:1006600081E080933C0180913B018F5F80933B014F
:1006700008C080913B01843120F480913D0180933A
:100680003E0180913B01853140F010923D01109276
:100690003C0110923E0110923B0180913C0181117E
:1006A00022C080913E0183FB992790F990933A01F3
:1006B00082FB222720F920933901992321F0909180
:1006C0004101916003C0909141019E7F909341014F
:1006D00090914101222311F0946001C09B7F90937F
:1006E000410180933D01909141018091380198171B
:1006F00021F08091400180933F0120914101213000
:1007000009F470C030F0223061F1243009F44FC098
:100710008AC08091360190913701883C910548F05C
:100720001092350123E52093400121E020934401FC
:100730000DC020913F01263419F020913F0101C0E6
:100740002CE42093400121E02093350120913501D4
:10075000222309F468C001969093370180933601F3
:1007600062C080913301909134018431910570F021
:100770001092320121E4209340012FEF30E03093BA
:100780000901209308011092430106C026E420933A
:10079000400121E02093320120913201222309F40B
:1007A00042C0019690933401809333013CC0809104
:1007B0004301882391F0809130019091310101969D
:1007C0009093310180933001883C910560F1109243
:1007D0003101109230011092430181E08093440175
:1007E00082E51FC0809143018823C1F080913001D0
:1007F0009091310101969093310180933001883CB2
:10080000910588F01092310110923001209344013B
:100810008CE4809340011092430105C02093440171
:100820008CE48093400190913F01809140019817A2
:1008300029F080914301882309F468C08091440124
:10084000882319F1809145018823F9F080912E01C8
:1008500090912F01019690932F0180932E0120916A
:100860004D0130E08217930780F010922F01109213
:100870002E01809108019091090197FF52C01092BA
:1008800009011092080110924401809140018134C5
:1008900029F080914001863409F059C080914001CF
:1008A000833529F080913F01833509F455C080914B
:1008B0004001863429F480914801882309F451C00D
:1008C00080913A01882311F061E001C060E084E08A
:1008D0000E94581380913901882311F05D9A01C05C
:1008E0005D988091410180933801FF91EF91BF9114
:1008F000AF919F918F917F916F915F914F913F91B8
:100900002F910F900FBE0F901F90189580910601A8
:10091000909107019093090180930801109244017E
:100920008DCF80910801909109011816190654F491
:1009300080910801909109014E979093090180934D
:100940000801A3CF10920901109208019ECF1092C6
:10095000340110923301A2CF109237011092360168
:10096000A6CF80913F0180934001AACF60E070E064
:1009700081E791E00E940C0740E051E064E071E003
:100980008AE591E00C94C404EF92FF920F931F93B9
:10099000CF93DF93EC018B017A0118828881863036
:1009A00008F5E82FF0E0823038F4E00FF11F61E045
:1009B00080810E941F1312C0EE0DFF1D329761E06F
:1009C00080810E941F13888190E0F701E80FF91FD2
:1009D00032972081FE01E80FF91F218388818F5F04
:1009E0008883DCCFF8018081898381818A83DF91CC
:1009F000CF911F910F91FF90EF9008950F931F9348
:100A0000CF93DF93EC018B0177FD03C0109273014C
:100A100006C081E0809373011195019511098091C1
:100A20007301811106C061E08B810E94581360E060
:100A300005C060E08B810E94581361E08C810E94A8
:100A40005813B8018981DF91CF911F910F910C94B8
:100A50004B120F931F93CF93DF93EC018B0177FD24
:100A600003C01092720106C081E08093720111955B
:100A70000195110980917201811106C061E08D819B
:100A80000E94581360E005C060E08D810E945813F9
:100A900061E08E810E945813B8018A81DF91CF9165
:100AA0001F910F910C944B120F931F93CF93DF93D1
:100AB000EC018A010E94FE04B801CE01DF91CF91C2
:100AC0001F910F910C942905CF93DF93EC011882AD
:100AD0008881843058F4FE01E80FF11D60E08381C5
:100AE0000E94581388818F5F8883F2CF60E070E0A6
:100AF00089810E944B1260E070E08A81DF91CF9182
:100B00000C944B12CF92DF92EF92FF92CF93DF9330
:100B1000EC01882777FD8095982F0E94AE1A6B0113
:100B20007C0120E030E040E45FE30E945E1B20E0B7
:100B300030E048E452E40E94131A0E947B1AC61760
:100B4000D707D4F020E030E040EA5FE3C701B60108
:100B50000E945E1B20E030E048E452E40E94131A39
:100B600020E030E040E85FE30E94AB190E947B1A6E
:100B700021E06C177D070CF420E0822F90E0DF91DC
:100B8000CF91FF90EF90DF90CF900895CF92DF92BA
:100B9000EF92FF92CF93DF93EC016C597F4F882740
:100BA00077FD8095982F0E94AE1A6B017C0120E0A2
:100BB00030E040E45FE30E945E1B20E030E048E468
:100BC00052E40E94131A0E947B1AC617D707D4F06A
:100BD00020E030E040EA5FE3C701B6010E945E1BFF
:100BE00020E030E048E452E40E94131A20E030E0B4
:100BF00040E85FE30E94AB190E947B1A21E06C176A
:100C00007D070CF420E0822F90E0DF91CF91FF90E0
:100C1000EF90DF90CF900895CF92DF92EF92FF9206
:100C2000CF93DF93EC0164567109882777FD809597
:100C3000982F0E94AE1A6B017C0120E030E040E466
:100C40005FE30E945E1B20E030E048E452E40E9433
:100C5000131A0E947B1AC617D707D4F020E030E0A1
:100C600040EA5FE3C701B6010E945E1B20E030E06E
:100C700048E452E40E94131A20E030E040E85FE3C9
:100C80000E94AB190E947B1A21E06C177D070CF4BF
:100C900020E0822F90E0DF91CF91FF90EF90DF90E6
:100CA000CF9008951F920F920FB60F9211242F9399
:100CB0003F934F935F936F937F938F939F93AF93E4
:100CC000BF93EF93FF93809175010E948E13209143
:100CD000790130917A012F5F3F4F30937A01209351
:100CE000790190917801953618F096E0909374010F
:100CF000909174019430C9F128F4923069F09330E6
:100D0000D1F05EC0953009F451C0963009F058C05A
:100D100091E09093450251C0811152C02091790118
:100D200030917A012436310508F442C01092450210
:100D3000109278011CC0813009F042C0E091780126
:100D400091E09E0F90937801F0E02091790130912D
:100D50007A01EE0FFF1FEC58FE4F30872783109269
:100D60007A011092790194E029C0811117C0E091B5
:100D7000780191E09E0F90937801F0E02091790145
:100D800030917A01EE0FFF1FEC58FE4F308727831A
:100D900010927A011092790193E010C020917901AC
:100DA00030917A012536310558F007C0811108C00D
:100DB00010927A011092790103C095E0909374012A
:100DC000909177019923B9F081110AC08091760141
:100DD000882321F08091760161E009C02D9A0BC033
:100DE00080917601882331F08091760160E00E9445
:100DF000581301C02D98FF91EF91BF91AF919F9132
:100E00008F917F916F915F914F913F912F910F90B3
:100E10000FBE0F901F901895609375011092770187
:100E20000895F8941092C00081E08093C100109260
:100E3000C2001092C3001092C400EFEBF0E083E018
:100E4000808380E28093D10010821092BF001092C4
:100E5000BE0084E080937200789482E080937401F5
:100E6000109278018091750160E00C941F1382E06C
:100E7000809374011092780108958F929F92AF929F
:100E8000BF92CF92DF92EF92FF927B01BA0180E096
:100E900090E00E94AC1A4B015C01B70180E090E049
:100EA0000E94AC1A6B017C012DEC3CEC4CE45FE33E
:100EB0000E945E1B9B01AC01C501B4010E940F1A88
:100EC00087FD17C02DEC3CEC4CE45FE3C501B40199
:100ED0000E945E1B9B01AC01C701B6010E940F1A64
:100EE000992787FD90958827990F881F9927019644
:100EF00002C080E090E0FF90EF90DF90CF90BF9035
:100F0000AF909F908F9008958F929F92AF92BF92D3
:100F1000CF92DF92EF92FF920F931F93CF93DF93C5
:100F20006C01EB01EC84FD8486E0E816F1040CF41E
:100F300044C0EE0CFF1C06E010E045EC842E4DE9A9
:100F4000942E4CE1A42E41E8B42E8A859B85FC01A9
:100F5000E00FF11F40815181F8013497E80FF91F2C
:100F600060817181C6010E943D07FC01A5019401C9
:100F700063E971E080E091E00E94C11B4F01AA2467
:100F800097FCA094BA2C86269726A826B9260E5F31
:100F90001F4F0E151F05C9F68C829D82AE82BF823F
:100FA00080E290E0998788878FEF9FEF998388830D
:100FB00061E070E080E090E003C060E070E0CB01B1
:100FC000DF91CF911F910F91FF90EF90DF90CF9025
:100FD000BF90AF909F908F9008950F931F93CF93E2
:100FE000DF938C01EB018BE791E09B878A878091EF
:100FF000780190E09D878C878091450290E09F87E3
:101000008E8780917401853009F05EC0C8010E940E
:101010004C0B882319F081E090E058C0BE01C80154
:101020000E9405108111F7CFBE01C8010E94610F17
:101030008111F1CFBE01C8010E94BD0A8111EBCF21
:10104000BE01C8010E94230D8111E5CFBE01C80178
:101050000E94CA0D8111DFCFBE01C8010E94EB0BB7
:101060008111D9CFBE01C8010E94300A8111D3CFAE
:10107000BE01C8010E9477098111CDCFBE01C80110
:101080000E94C20E8111C7CFBE01C8010E94A010EC
:101090008111C1CFBE01C8010E946B088111BBCF75
:1010A000BE01C8010E94FC088111B5CFBE01C80174
:1010B0000E948407672B682B692B09F0ACCF82E074
:1010C000809374011092780180E090E0DF91CF91DD
:1010D0001F910F910895AF92BF92CF92DF92EF923E
:1010E000FF920F931F93CF93DF93EB0180917801D1
:1010F000883510F480E075C0EA85FB858281938194
:1011000060E672E20E94C605892BA1F3EA85FB85A1
:101110008481958164E971E10E940C06892B51F369
:10112000BEE1CB2ED12C1DE1E12EF12C00E010E030
:101130008091780190E00497E816F906C4F5EA85F5
:10114000FB85C701880F991FE80FF91F80819181E6
:1011500064EF71E00E94C605892B61F25601AA0C6A
:10116000BB1CEA85FB85EA0DFB1D8081918168E54A
:1011700072E00E940C06892B21F0000F111F016004
:101180000EC0EA85FB85EA0DFB1D8081918164EA32
:1011900076E00E940C06892B49F0000F111F82E0B7
:1011A000E80EF11C82E0C80ED11CC2CF760181E0AE
:1011B000E81AF108F594E794F986E8868AE2E816D9
:1011C000F1040CF497CFC801AA2797FDA095BA2F78
:1011D0008C839D83AE83BF8389E090E0998388836D
:1011E00081E0DF91CF911F910F91FF90EF90DF9001
:1011F000CF90BF90AF900895AF92BF92CF92DF9201
:10120000EF92FF920F931F93CF93DF93EB018091A7
:101210007801803211F080E05FC0EA85FB85828131
:1012200093816CE271E00E94C605892BA1F3EA85E7
:10123000FB85848195816EEE72E00E940C06892BFD
:1012400051F306E010E0C12CD12C7601EA85FB8534
:10125000E00FF11F808191816CE271E00E94C60570
:10126000892BC9F2580182E0A80EB11CEA85FB85E2
:10127000EA0DFB1D8081918168E077E00E940C06F9
:10128000892B39F0CC0CDD1CEE1CFF1C6894C0F8D7
:1012900011C0EA85FB85EA0DFB1D808191816EEE10
:1012A00072E00E940C06892B09F4B5CFCC0CDD1C32
:1012B000EE1CFF1C0C5F1F4F0E33110539F68EE03C
:1012C00090E099878887CC82DD82EE82FF828FE072
:1012D00090E09983888381E0DF91CF911F910F91F6
:1012E000FF90EF90DF90CF90BF90AF900895AF92B6
:1012F000BF92CF92DF92EF92FF920F931F93CF9303
:10130000DF93EB0180917801823261F5EA85FB85FC
:101310008281938168E572E00E94C605892B11F1F4
:101320008091780190E081509048880F991FEA855C
:10133000FB85E80FF91F8081918168E572E00E94CA
:10134000C605892B79F0198618868FEF9FEFDC018F
:101350008C839D83AE83BF8386E090E099838883EE
:1013600081E073C0EA85FB858281938160E47FE13F
:101370000E94C605892B21F080917801813210F4FA
:1013800080E063C0EA85FB858481958160EA7FE027
:101390000E940C06892BA1F358E0A52EB12C03E086
:1013A00010E0C12CD12C7601EA85FB85C801880F9D
:1013B000991FE80FF91F8081918168E572E00E9412
:1013C000C605892BE9F2EA85FB85EA0DFB1D8081C4
:1013D000918160E476E00E940C06892B39F0CC0CF8
:1013E000DD1CEE1CFF1C6894C0F811C0EA85FB856B
:1013F000EA0DFB1D8081918166E272E00E940C067D
:10140000892B09F4BDCFCC0CDD1CEE1CFF1C0E5F3C
:101410001F4F84E0A80EB11C0332110529F6EA859E
:10142000FB85EA5BFF4F8081918168E572E00E9455
:10143000C605892B09F4A4CF80E190E099878887BD
:10144000CC82DD82EE82FF8287CFDF91CF911F9128
:101450000F91FF90EF90DF90CF90BF90AF900895E5
:10146000AF92BF92CF92DF92EF92FF920F931F93B2
:10147000CF93DF93EB0180917801893310F480E002
:1014800071C0EA85FB858281938160E47FE10E94DF
:10149000C605892BA1F3EA85FB858481958160EAE5
:1014A0007FE00E940C06892B51F338E0A32EB12C6B
:1014B00003E010E0C12CD12C7601EA85FB85C80140
:1014C000880F991FE80FF91F8081918168E572E00C
:1014D0000E94C605892B99F2EA85FB85EA0DFB1D62
:1014E0008081918160E476E00E940C06892B39F0BE
:1014F000CC0CDD1CEE1CFF1C6894C0F811C0EA8502
:10150000FB85EA0DFB1D8081918166E272E00E94FD
:101510000C06892B09F4B3CFCC0CDD1CEE1CFF1C90
:101520000E5F1F4F84E0A80EB11C0B33110529F686
:10153000EA85FB85EA58FF4F8081918168E572E07A
:101540000E94C605892B09F49ACF8CE190E0998717
:101550008887CC82DD82EE82FF828AE090E09983E8
:10156000888381E0DF91CF911F910F91FF90EF90E1
:10157000DF90CF90BF90AF9008956F927F928F923F
:101580009F92AF92BF92CF92DF92EF92FF920F9312
:101590001F93CF93DF93EB0180917801823208F49F
:1015A00061C0EA85FB85828193816EE571E00E94CE
:1015B000C605892B09F456C063E0A62EB12C02E0C3
:1015C00010E0C12CD12C760135018091780190E09A
:1015D000A816B906E4F54801880C991CEA85FB8534
:1015E000E80DF91D808191816EE977E00E94C605C2
:1015F000892B39F0CC0CDD1CEE1CFF1C6894C0F864
:1016000010C0EA85FB85E80DF91D808191816EEEA1
:1016100072E00E94C605892B29F1CC0CDD1CEE1C62
:10162000FF1CC501880F991FEA85FB85E80FF91F8C
:10163000808191816EE571E00E940C0622E0A20E8D
:10164000B11C892B19F00E5F1F4FBECF83010150D3
:10165000110915950795198708870031110524F49C
:101660001986188680E009C0CC82DD82EE82FF8276
:101670008CE090E09983888381E0DF91CF911F9186
:101680000F91FF90EF90DF90CF90BF90AF909F9021
:101690008F907F906F900895AF92BF92CF92DF921C
:1016A000EF92FF920F931F93CF93DF93EB01EA85A5
:1016B000FB858281938168E273E20E94C605892BD3
:1016C00011F480E07DC080917801843019F5EA85BD
:1016D000FB85848195816AEC78E00E940C06892B59
:1016E000C9F0EA85FB858681978160E372E00E94FC
:1016F000C605892B79F0198618868FEF9FEFDC01DC
:101700008C839D83AE83BF8383E090E0998388833D
:1017100081E056C080917801843498F2EA85FB8597
:101720008481958164E971E10E940C06892B49F25C
:1017300006E010E0C12CD12C7601EA85FB85E00F94
:10174000F11F8081918160E372E00E94C605892BC0
:1017500009F4B7CF580182E0A80EB11CEA85FB85D9
:10176000EA0DFB1D808191816AE976E00E940C06FA
:10177000892B39F0CC0CDD1CEE1CFF1C6894C0F8E2
:1017800011C0EA85FB85EA0DFB1D8081918160E334
:1017900072E00E940C06892B09F493CFCC0CDD1C5F
:1017A000EE1CFF1C0C5F1F4F0638110531F680E25E
:1017B00090E099878887CC82DD82EE82FF82A4CF79
:1017C000DF91CF911F910F91FF90EF90DF90CF901D
:1017D000BF90AF9008958F929F92AF92BF92CF9299
:1017E000DF92EF92FF920F931F93CF93DF9300D07E
:1017F00000D0CDB7DEB74B01DB011A96ED91FC911D
:101800001B97828193816EEA7DE00E94C605892B39
:1018100011F480E093C0D4011A96ED91FC911B97CE
:101820008481958166ED76E00E94C605892B89F357
:10183000E6E0EE2EF12C20E030E040E050E0A12C7C
:10184000B12CC12CD12CD4011A96ED91FC911B978F
:10185000EE0DFF1D8081918166EF71E029833A834F
:101860004B835C830E94C605892B99F287010E5F2A
:101870001F4FD4011A96ED91FC911B97E00FF11FB9
:10188000808191816CED74E00E940C0629813A817F
:101890004B815C81892B39F0B501C60101E00E94C2
:1018A000E21B21601DC0D4011A96ED91FC911B979B
:1018B000E00FF11F8081918160E971E029833A8313
:1018C0004B835C830E940C0629813A814B815C81A9
:1018D000892B09F49ECFB501C60101E00E94E21BED
:1018E0005B016C01B4E0EB0EF11CE6ECEE16F104CA
:1018F00009F0A9CFD40114962C93149715963C9314
:10190000159716964C93169717965C931797B501F3
:10191000C60100E20E94FD1B12962C9312971396AB
:101920003C93139785E090E011969C938E9380E30F
:1019300090E019969C938E93189781E00F900F90EA
:101940000F900F90DF91CF911F910F91FF90EF902B
:10195000DF90CF90BF90AF909F908F9008958F921F
:101960009F92AF92BF92CF92DF92EF92FF920F932E
:101970001F93CF93DF937A016901DA01CD91DC9156
:10198000FB0184859585C817D9070CF04AC0CE01A4
:10199000880F991F0284F385E02DE80FF91FA080BE
:1019A000B180C170DD27F1E0CF27209719F484E6DC
:1019B00090E002C08CE99FEF4801880E991EB401A7
:1019C000C5010E948205892B99F4800E911EB401F5
:1019D000C5010E948205892B71F4B401600F711F4B
:1019E000C5010E948205892BF9F023E030E005C093
:1019F00021E030E002C022E030E0D6018D919C91E0
:101A0000119701968217930744F0F6011182108214
:101A1000D7018D919C91119701968D939C93CE0146
:101A200005C081E090E002C08FEF9FEFDF91CF9182
:101A30001F910F91FF90EF90DF90CF90BF90AF90EC
:101A40009F908F9008954F925F926F927F928F92A6
:101A50009F92AF92BF92CF92DF92EF92FF920F933D
:101A60001F93CF93DF9300D000D0CDB7DEB76C01CA
:101A70007B011C821B8281E090E09A8389838091A4
:101A800078018D3010F480E070C009E713E09E010A
:101A90002D5F3F4FAE014F5F5F4FC6010E94AF0CFD
:101AA000892B89F79E012D5F3F4FAE014F5F5F4F3E
:101AB000B701C6010E94AF0C019729F79E012D5F67
:101AC0003F4FAE014F5F5F4FB701C6010E94AF0CA1
:101AD000892BC9F6412C512C3201A12CB12C8091BB
:101AE000780190E029813A81281739079CF509E7A8
:101AF00013E09E012D5F3F4FAE014F5F5F4FB70177
:101B0000C6010E94AF0C4C019E012D5F3F4FAE01FC
:101B10004F5F5F4FB701C6010E94AF0C21E08216F4
:101B2000910451F4892B09F0AECF440C551C661C6E
:101B3000771C689440F80AC0892809F0A4CF01975F
:101B400009F0A1CF440C551C661C771C8FEFA81A16
:101B5000B80AC5CFF701B186A08644825582668255
:101B6000778281E090E0918380830F900F900F90B7
:101B70000F90DF91CF911F910F91FF90EF90DF9029
:101B8000CF90BF90AF909F908F907F906F905F901D
:101B90004F9008952F923F924F925F926F927F9253
:101BA0008F929F92AF92BF92CF92DF92EF92FF926D
:101BB0000F931F93CF93DF9300D000D0CDB7DEB744
:101BC0006C017B011C821B82DB011C968D919C9118
:101BD0001D971816190614F080E0BDC0DB011A9697
:101BE000ED91FC911B9782E090E09A83898382813A
:101BF00093816AE67AE00E94C605892B69F3D701D2
:101C00001A96ED91FC911B9789819A819C012F5F17
:101C10003F4F3A832983880F991FE80FF91F80816E
:101C2000918169E773E00E940C06892BA9F20CEB05
:101C300011E09E012D5F3F4FAE014F5F5F4FB70137
:101C4000C6010E94AF0C892B39F69E012D5F3F4FD4
:101C5000AE014F5F5F4FB701C6010E94AF0C019705
:101C600009F0BACF212C312C2101A12CB12C2981D2
:101C70003A81F70184859585281739070CF060C0F3
:101C80000CEB11E09E012D5F3F4FAE014F5F5F4FA8
:101C9000B701C6010E94AF0C3C01B3E0AB16B10422
:101CA00091F00CEB11E09E012D5F3F4FAE014F5FB5
:101CB0005F4FB701C6010E94AF0C4C01E3E0AE16C6
:101CC000B10409F510C00CEB11E09E012D5F3F4FF0
:101CD000AE014F5F5F4FB701C6010E94AF0C68169F
:101CE0007906F9F279CF0CEB11E09E012D5F3F4FA1
:101CF000AE014F5F5F4FB701C6010E94AF0C88165F
:101D0000990609F069CF6114710459F48A948928FD
:101D100009F062CF220C331C441C551C689420F837
:101D20000BC06A94672809F057CF892809F054CF6F
:101D3000220C331C441C551CAFEFAA1ABA0A97CFC9
:101D4000B186A086248235824682578282E090E066
:101D50009183808381E00F900F900F900F90DF911F
:101D6000CF911F910F91FF90EF90DF90CF90BF9098
:101D7000AF909F908F907F906F905F904F903F902B
:101D80002F900895AF92BF92CF92DF92EF92FF9281
:101D90000F931F93CF93DF93EB01EA85FB8582813D
:101DA000938168E873E10E94C605892B11F480E0F5
:101DB0007DC080917801843019F5EA85FB858481A6
:101DC00095816AEC78E00E940C06892BC9F0EA85BF
:101DD000FB858681978160E372E00E94C605892BAE
:101DE00079F0198618868FEF9FEFDC018C839D8335
:101DF000AE83BF8387E090E09983888381E056C0FB
:101E000080917801843498F2EA85FB8584819581FC
:101E100068E873E10E940C06892B49F206E010E0A5
:101E2000C12CD12C7601EA85FB85E00FF11F808162
:101E3000918160E372E00E94C605892B09F4B7CF57
:101E4000580182E0A80EB11CEA85FB85EA0DFB1D56
:101E50008081918160E476E00E940C06892B39F044
:101E6000CC0CDD1CEE1CFF1C6894C0F811C0EA8588
:101E7000FB85EA0DFB1D8081918160E372E00E9489
:101E80000C06892B09F493CFCC0CDD1CEE1CFF1C37
:101E90000C5F1F4F0638110531F680E290E09987FC
:101EA0008887CC82DD82EE82FF82A4CFDF91CF9142
:101EB0001F910F91FF90EF90DF90CF90BF90AF9068
:101EC00008958F929F92AF92BF92CF92DF92EF923E
:101ED000FF920F931F93CF93DF93EB0180917801D3
:101EE0008A3108F47AC0EA85FB858081918180324D
:101EF000934050F4198618868FEF9FEFDC018C8396
:101F00009D83AE83BF836FC0828193816CEA7DE045
:101F10000E94C605892B09F460C0EA85FB8584818F
:101F200095816CEA7DE00E94C605892B09F455C0B5
:101F300054E0A52EB12C03E010E0C12CD12C760189
:101F40008091780190E0A816B906E4F5EA85FB8552
:101F5000C801880F991FE80FF91F8081918166EBF6
:101F600073E00E940C06892B61F14501880C991CD5
:101F7000EA85FB85E80DF91D8081918160E679E0B5
:101F80000E94C605892B39F0CC0CDD1CEE1CFF1C11
:101F90006894C0F810C0EA85FB85E80DF91D8081C2
:101FA00091816CEB72E00E94C605892BB1F0CC0CDC
:101FB000DD1CEE1CFF1C0E5F1F4F82E0A80EB11C43
:101FC000BFCF85010150110915950795198708871D
:101FD0000C30110524F41986188680E009C0CC82E3
:101FE000DD82EE82FF828BE090E09983888381E03E
:101FF000DF91CF911F910F91FF90EF90DF90CF90E5
:10200000BF90AF909F908F9008958F929F92AF92C4
:10201000BF92CF92DF92EF92FF920F931F93CF93D5
:10202000DF93EB01809178018A3108F471C0EA8571
:10203000FB8580819181843F914060F419861886E8
:102040008FEF9FEFDC018C839D83AE83BF838BE09A
:1020500090E066C08281938160E679E00E94C605C7
:10206000892B09F455C073E0A72EB12C02E010E0D3
:10207000C12CD12C76018091780190E0A816B90688
:10208000E4F5EA85FB85C801880F991FE80FF91F61
:102090008081918168E572E00E940C06892B61F1D4
:1020A0004501880C991CEA85FB85E80DF91D8081A6
:1020B000918160EB74E00E94C605892B39F0CC0C4D
:1020C000DD1CEE1CFF1C6894C0F810C0EA85FB857F
:1020D000E80DF91D8081918168E572E00E94C605D6
:1020E000892BB1F0CC0CDD1CEE1CFF1C0E5F1F4FCA
:1020F00082E0A80EB11CBFCF8501015011091595D2
:102100000795198708870C30110524F4198618865D
:1021100080E009C0CC82DD82EE82FF8284E090E024
:102120009983888381E0DF91CF911F910F91FF9078
:10213000EF90DF90CF90BF90AF909F908F900895D9
:10214000AF92BF92CF92DF92EF92FF920F931F93C5
:10215000CF93DF93EB0180917801863410F480E017
:1021600086C0EA85FB85828193816EEE72E00E94D3
:10217000C605892BA1F3EA85FB85848195816EEEE6
:1021800072E00E940C06892B51F3EA85FB8586815B
:10219000978162E27BE00E94C605892B01F3EA8504
:1021A000FB858085918562E27BE00E940C06892B8D
:1021B000B1F25CE0A52EB12C05E010E0C12CD12CD1
:1021C0007601EA85FB85C801880F991FE80FF91F82
:1021D000808191816EEE72E00E94C605892B09F420
:1021E000BECFEA85FB85EA0DFB1D8081918166E605
:1021F00078E00E940C06892B39F0CC0CDD1CEE1C1B
:10220000FF1C6894C0F811C0EA85FB85EA0DFB1D30
:10221000808191816EEE72E00E940C06892B09F498
:102220009ECFCC0CDD1CEE1CFF1C0E5F1F4F84E00C
:10223000A80EB11C0534110521F6EA85FB85E65789
:10224000FF4F808191816EEE72E00E94C605892B5E
:1022500009F485CF80E290E099878887CC82DD827F
:10226000EE82FF8288E090E09983888381E0DF91AD
:10227000CF911F910F91FF90EF90DF90CF90BF9083
:10228000AF9008951F920F920FB60F9211242F93C3
:102290003F938F939F93AF93BF9380914702909109
:1022A0004802A0914902B0914A023091460223E0CF
:1022B000230F2D3720F40196A11DB11D05C026E87E
:1022C000230F0296A11DB11D209346028093470261
:1022D00090934802A0934902B0934A0280914B0226
:1022E00090914C02A0914D02B0914E020196A11D19
:1022F000B11D80934B0290934C02A0934D02B0937A
:102300004E02BF91AF919F918F913F912F910F906E
:102310000FBE0F901F9018952FB7F8946091470249
:10232000709148028091490290914A022FBF08950E
:102330003FB7F89480914B0290914C02A0914D02CE
:10234000B0914E0226B5A89B05C02F3F19F001960B
:10235000A11DB11D3FBF6627782F892F9A2F620FCD
:10236000711D811D911D42E0660F771F881F991F07
:102370004A95D1F708958F929F92AF92BF92CF92D4
:10238000DF92EF92FF926B017C010E9498114B014A
:102390005C01C114D104E104F104F1F00E94CB13FB
:1023A0000E949811681979098A099B09683E73404F
:1023B0008105910570F321E0C21AD108E108F10806
:1023C00088EE880E83E0981EA11CB11CC114D104B4
:1023D000E104F10429F7DDCFFF90EF90DF90CF907B
:1023E000BF90AF909F908F900895789484B582604D
:1023F00084BD84B5816084BD85B5826085BD85B5A9
:10240000816085BDEEE6F0E0808181608083E1E857
:10241000F0E010828081826080838081816080838F
:10242000E0E8F0E0808181608083E1E9F0E0808194
:1024300082608083808181608083E0E9F0E0808138
:1024400081608083E1ECF0E0808184608083808122
:1024500082608083808181608083E3ECF0E0808112
:1024600081608083E0ECF0E0808182608083E2EC38
:10247000F0E0808181608083EAE7F0E08081846021
:10248000808380818260808380818160808380817D
:102490008068808308951F93CF93DF93182FEB01FB
:1024A00061E00E941F13209711F460E004C0CF3F49
:1024B000D10539F461E0812FDF91CF911F910C9408
:1024C0005813E12FF0E0E851FF4F449150E0FA013A
:1024D0003197EF30F10508F06CC0EA5AFF4F0C94C9
:1024E000D11B84B5806884BDC7BD68C084B58062D7
:1024F00084BDC8BD63C080918000806880938000E7
:10250000D0938900C093880059C080918000806278
:1025100080938000D0938B00C0938A004FC080913D
:102520008000886080938000D0938D00C0938C00E1
:1025300045C080919000806880939000D09399006E
:10254000C09398003BC0809190008062809390007F
:10255000D0939B00C0939A0031C080919000886016
:1025600080939000D0939D00C0939C0027C08091E1
:10257000C00080688093C0008091C0008F7B8093F2
:10258000C000C093CF001AC08091C00080628093C9
:10259000C000C093D00012C08091C20088608093B8
:1025A000C2008091C2008B7F8093C200C093D20092
:1025B00005C0C038D1050CF07DCF77CFDF91CF912A
:1025C0001F91089590E0FC013197EF30F105B0F5CF
:1025D000EB59FF4F0C94D11B809180008F7703C083
:1025E000809180008F7D809380000895809180008D
:1025F000877FF9CF84B58F7702C084B58F7D84BD86
:102600000895809190008F7707C0809190008F7D12
:1026100003C080919000877F8093900008958091FF
:10262000C0008F7703C08091C0008F7D8093C00071
:1026300008958091C200877F8093C2000895CF9350
:10264000DF9390E0FC01E95FFE4F2491FC01EA5D1D
:10265000FE4F8491882349F190E0880F991FFC0177
:10266000EF59FE4FA591B4918D5A9E4FFC01C59133
:10267000D4919FB7611108C0F8948C912095822362
:102680008C93888182230AC0623051F4F8948C9133
:10269000322F309583238C938881822B888304C0CA
:1026A000F8948C91822B8C939FBFDF91CF910895EA
:1026B0000F931F93CF93DF931F92CDB7DEB7282FD1
:1026C00030E0F901E851FF4F8491F901E95FFE4FD5
:1026D0001491F901EA5DFE4F04910023C9F08823AB
:1026E00021F069830E94E2126981E02FF0E0EE0F91
:1026F000FF1FED5AFE4FA591B4919FB7F8948C91AE
:10270000611103C01095812301C0812B8C939FBF61
:102710000F90DF91CF911F910F910895CF93DF9389
:10272000282F30E0F901E851FF4F8491F901E95F6A
:10273000FE4FD491F901EA5DFE4FC491CC2391F094
:1027400081110E94E212EC2FF0E0EE0FFF1FEB5B15
:10275000FE4FA591B4912C912D2381E090E021F4BE
:1027600080E002C080E090E0DF91CF91089508956D
:102770000E94F5110E94B7138FE492E00E94FE17A9
:102780000E942701C0E0D0E00E94E0012097E1F321
:102790000E940000F9CF0895615030F02091F100BF
:1027A000FC0120830196F8CF289884E68093580294
:1027B000089540915302509154022091510230915A
:1027C000520242175307B4F49091E8009570E1F378
:1027D0009091E80092FD19C08093F100809153021E
:1027E0009091540201968F739927892B19F48EEFDB
:1027F0008093E80080915302909154020196909347
:1028000054028093530281E0089580E00895CF92AE
:10281000DF92EF92FF920F931F93CF93DF931F925C
:10282000CDB7DEB7082F162FF42E862F880F8E5FB8
:1028300099830E94D91383E00E94D913E02EC02E01
:102840009981D92E8C2D8E19811798F4F601F7FEF7
:1028500002C0849101C080810E94D913082F80E0BA
:102860000E94D9138023FFEFCF1ADF0A8111EACF2C
:1028700001C081E00F90DF91CF911F910F91FF90E8
:10288000EF90DF90CF9008958091D7008160809382
:10289000D70080EA8093D80089B5806189BD89B569
:1028A000826089BD09B400FEFDCF61E070E080E088
:1028B00090E00E94BB118091D8008F7C8061809352
:1028C000D8008091E000807F8093E0000895CF934E
:1028D000DF931F92CDB7DEB71982CE0101960E9419
:1028E0006E180E949619BE016F5F7F4F0E940F19EC
:1028F00089810F90DF91CF9108952FB7FC0120833C
:10290000F89467706093E9000895CF93DF931F9266
:10291000CDB7DEB7682FCE0101960E947D1480915D
:10292000F20099819FBF0F90DF91CF910895FF92A0
:102930000F931F93CF93DF9300D0CDB7DEB7F62E62
:102940008A0190915702992311F057FF03C08FEF2E
:102950009FEF2BC0682FCE0101967A830E947D14D1
:102960008091F20090E0A8017A81801791070CF421
:10297000AC01EF2DF72FF40E84E6FE1639F02898FF
:10298000809358029091F1009193F7CF4115510532
:1029900021F08091F200882321F089818FBFCA0144
:1029A00004C08BE68093E800F8CF0F900F90DF9182
:1029B000CF911F910F91FF900895CF93DF931F92B6
:1029C000CDB7DEB741E050E0BE016F5F7F4F0E94A0
:1029D0009714019719F4898190E002C08FEF9FEF5F
:1029E0000F90DF91CF910895CF93DF931F92CDB7D2
:1029F000DEB7682FCE0101960E947D149091E80009
:102A0000892F807295FF04C09091F20080E4891BA9
:102A100099819FBF0F90DF91CF9108956F927F9220
:102A20008F929F92AF92BF92CF92DF92EF92FF92DE
:102A30000F931F93CF93DF931F92CDB7DEB7782EFE
:102A40007B01C42EB52E80915702882369F0042F94
:102A5000152F8AEFD82E872D8072982E9AE3A92EF3
:102A6000872D8074882E11C08FEF9FEF57C0872D60
:102A70000E94F414682E81110CC0DA94A9F361E06D
:102A800070E080E090E00E94BB110115110579F71C
:102A90003BC0282F30E0021713070CF4602E672D7F
:102AA000CE0101960E947D148091E80085FF29C027
:102AB000262D30E0021B130B992039F06A948FEF1A
:102AC0006816B1F01092F100F9CFF701862D77FE6C
:102AD00007C0815058F094919093F1003196F9CF4E
:102AE000815020F091919093F100FACFE20EF31E05
:102AF0008091E80085FF0FC00115110511F48110C8
:102B00000AC089818FBFC1CF5D9884E68093590246
:102B10008C2D9B2D03C0A092E800F3CF0F90DF9186
:102B2000CF911F910F91FF90EF90DF90CF90BF90CA
:102B3000AF909F908F907F906F9008951092E900D2
:102B400010925402109253029093520280935102B9
:102B50000895CF92DF92FF920F931F93CF93DF934D
:102B600000D0CDB7DEB7F82E8A016B010115110533
:102B7000B1F0F601F7FE02C0849101C08081498363
:102B80005A830E94D91301501109FFEFCF1ADF0AAF
:102B900049815A818111EACF8FEF9FEF01C0CA01AD
:102BA0000F900F90DF91CF911F910F91FF90DF90C9
:102BB000CF900895BF92CF92DF92EF92FF920F9342
:102BC0001F93CF93DF936C018B01EB013BEFB32E8F
:102BD0002097C1F07E01C134D1051CF020E4E22E23
:102BE000F12C8091E80082FFFCCFC8018C1B9D0B6B
:102BF0006E2D8C0D9D1D0E94CC13B092E800CE1955
:102C0000DF09E6CFC801DF91CF911F910F91FF90AF
:102C1000EF90DF90CF90BF9008951F920F920FB664
:102C20000F921124DF92EF92FF920F931F932F9335
:102C30003F934F935F936F937F938F939F93AF9344
:102C4000BF93EF93FF93CF93DF93CDB7DEB76C972E
:102C5000DEBFCDBF1092E9008091E80083FF23C161
:102C600068E0CE0145960E94CC1382EF8093E80085
:102C70003D8937FF05C08091E80080FFFCCF03C08D
:102C80008EEF8093E800832F807609F0F0C02E89C4
:102C90004F89D88C21110CC0303829F4809156020C
:102CA0008093F10002C01092F1001092F100F4C084
:102CB000842F90E09D29213049F43111EDC0019716
:102CC00009F0EAC0809156028D7F0AC0233059F482
:102CD0003111E2C0019709F0DFC080915602826095
:102CE00080935602D9C0253041F48091E80080FFDE
:102CF000FCCF40684093E300CFC0263009F08DC080
:102D0000EB8CFC8C22E0D2122CC080E090E00E9480
:102D10009E150E94671499E08E010F5F1F4FF80106
:102D2000292F11922A95E9F79983DA8291E09E83FF
:102D300090EA98879AEF9987209153023091540234
:102D4000275F3F4F3C832B838D83C7010E949E15D5
:102D500049E050E0B80180E00E94A9150E94671484
:102D60009BC0C7010E949E150E949619BE016B5E12
:102D70007F4F0E943819009719F00CF08DC090C059
:102D800081E0D8120EC08B8D9C8D089719F481E0DC
:102D9000809350028091500281112FC061E871E050
:102DA00031C0E3E0DE127CC08F89882349F1823094
:102DB00029F440E860E18FE991E01CC0813029F4FA
:102DC00040E86BE083E991E015C0833009F068C00A
:102DD0000E9496198E010F5F1F4FB8010E9457196C
:102DE000F80101900020E9F73197E01BF10B40E07A
:102DF0006E2FC8010E9407144DC06FE671E002C03B
:102E000060EB71E06115710509F44AC0FB01449162
:102E100050E080E80E94A9153FC0273009F440C067
:102E2000283021F481E08093F10036C02930A1F5EB
:102E30003370B1F5EBE0F1E081E021E036E3908121
:102E4000992361F08093E9002093EB009191909396
:102E5000EC003093ED008F5F873089F78EE7809329
:102E6000EA001092EA008F898093570215C08B8D7B
:102E70009C8D0E949E15898D811105C0CE014596BD
:102E80000E94791807C00E949619BE016B5E7F4FA1
:102E90000E947619882321F08EEF8093E80003C00A
:102EA00081E28093EB006C960FB6F894DEBF0FBE04
:102EB000CDBFDF91CF91FF91EF91BF91AF919F91E6
:102EC0008F917F916F915F914F913F912F911F91C2
:102ED0000F91FF90EF90DF900F900FBE0F901F901B
:102EE00018958093E9008091F200882319F08AE315
:102EF0008093E80008951F920F920FB60F9211244D
:102F00002F933F934F935F936F937F938F939F93F1
:102F1000AF93BF93CF93EF93FF93C091E100809164
:102F2000E100837F8093E1008093E100C3FF0FC045
:102F30001092E90081E08093EB001092EC0082E3B4
:102F40008093ED001092570288E08093F000C2FF5A
:102F500019C083E00E94711780915902882339F0CB
:102F600080915902815080935902882389F1809180
:102F70005802882339F0809158028150809358027A
:102F8000882341F1C4FF10C08091E2008E7E8160F1
:102F90008093E2008091E1008F7E8093E100809138
:102FA00055028E7E806111C0C0FF16C08091E20084
:102FB0008E7E80618093E2008091E1008E7E80931E
:102FC000E100809155028E7E81608093550204C09D
:102FD0005D9ACDCF289AD6CFFF91EF91CF91BF9137
:102FE000AF919F918F917F916F915F914F913F91A1
:102FF0002F910F900FBE0F901F90189510925702AF
:1030000010925602109255020E944414E1EEF0E034
:1030100080818E7E80838DE08093E200559A209A95
:103020000895CF93DF931F92CDB7DEB76983DC019C
:10303000ED91FC910280F381E02D41E050E0BE0172
:103040006F5F7F4F09950F90DF91CF910895CF93D8
:10305000DF93EC018C859D8597FF05C082E00E947F
:10306000DD149D878C878C859D85DF91CF91089598
:1030700083E00C947117FC018485958597FD06C04B
:1030800082E00E94851490E00196089582E00E94FB
:10309000851490E00895FC018485958597FD05C011
:1030A0002FEF3FEF35872487089582E00C94DD14DD
:1030B000CF93DF93EC0180911C01882331F083E0F2
:1030C0000E940E151816190634F081E090E09B83DB
:1030D0008A8380E090E0DF91CF910895FC01208108
:1030E0002E5F208342E450E064EB71E080E80C94B2
:1030F000A915FC0121818081813A59F4213209F01E
:103100005CC047E050E065E171E080E00E94A915F5
:1031100067C0813209F051C0233289F4838190E085
:10312000982F88273281832BA0E0B0E08093110193
:1031300090931201A0931301B09314010FC0203299
:1031400039F467E070E085E191E00E94DA150AC089
:10315000223221F4828180931C0104C02D7F203211
:1031600009F03EC08091150190911601A0911701C0
:10317000B0911801803B9440A105B10501F5809103
:103180001C0180FD1CC08091000890910108909363
:10319000FF0A8093FE0A87E797E7909301088093E0
:1031A00000082BE088E190E00FB6F894A895809392
:1031B00060000FBE2093600013C080E0089588E196
:1031C0000FB6F89480936000109260000FBEA8952F
:1031D0008091FE0A9091FF0A909301088093000865
:1031E00081E0089510925D0210925C0288EE93E0F7
:1031F000A0E0B0E080935E0290935F02A093600233
:10320000B093610281E291E090935B0280935A0255
:103210008FEF9FEF90936702809366020895EF927D
:10322000FF920F931F93CF93DF937B01FC01C28129
:10323000D38100E010E0209781F0E881F9810280DD
:10324000F381E02DB701CE01099597FD08C0080F65
:10325000191F0884D985C02DEECFC80102C08FEF99
:103260009FEFDF91CF911F910F91FF90EF90089505
:103270000F931F93CF93DF938B01FC01C281D38106
:10328000209771F0E881F9810480F581E02DB80183
:10329000CE010995009731F40884D985C02DF0CF6F
:1032A00080E090E0DF91CF911F910F9108950F93EF
:1032B0001F93CF93DF938B01FC01C281D3812097B1
:1032C00071F0E881F9810680F781E02DB801CE0127
:1032D0000995080F111D0884D985C02DF0CFF8017C
:1032E0001082DF91CF911F910F9108950F931F933B
:1032F000CF93DF938B01FC01C281D381209771F0C2
:10330000E881F9810190F081E02DB801CE010995A5
:10331000811106C00884D985C02DF0CF80E001C09E
:1033200081E0DF91CF911F910F9108958091AE02BE
:1033300081110DC082E08093AA0284E08093AB02E9
:103340001092AD021092AC0281E08093AE028AEA44
:1033500092E008955058BB27AA270ED075C166D1B8
:1033600030F06BD120F031F49F3F11F41EF45BC1BB
:103370000EF4E095E7FB51C1E92F77D180F3BA173E
:10338000620773078407950718F071F49EF58FC1E3
:103390000EF4E0950B2EBA2FA02D0B01B901900170
:1033A0000C01CA01A0011124FF27591B99F0593FB4
:1033B00050F4503E68F11A16F040A22F232F342FFC
:1033C0004427585FF3CF469537952795A795F0404A
:1033D0005395C9F77EF41F16BA0B620B730B840B5F
:1033E000BAF09150A1F0FF0FBB1F661F771F881F17
:1033F000C2F70EC0BA0F621F731F841F48F487956F
:1034000077956795B795F7959E3F08F0B3CF93955D
:10341000880F08F09927EE0F979587950895D9D0D2
:1034200008F481E008950CD00FC107D140F0FED020
:1034300030F021F45F3F19F0F0C0511139C1F3C0F1
:1034400014D198F39923C9F35523B1F3951B550B68
:10345000BB27AA2762177307840738F09F5F5F4F67
:10346000220F331F441FAA1FA9F333D00E2E3AF0A8
:10347000E0E830D091505040E695001CCAF729D0C2
:10348000FE2F27D0660F771F881FBB1F2617370711
:103490004807AB07B0E809F0BB0B802DBF01FF2741
:1034A00093585F4F2AF09E3F510568F0B6C000C1A7
:1034B0005F3FECF3983EDCF3869577956795B7957B
:1034C000F7959F5FC9F7880F911D9695879597F996
:1034D0000895E1E0660F771F881FBB1F621773070F
:1034E0008407BA0720F0621B730B840BBA0BEE1F24
:1034F00088F7E095089504D06894B111D9C0089573
:10350000BCD088F09F5790F0B92F9927B751A0F001
:10351000D1F0660F771F881F991F1AF0BA95C9F767
:1035200012C0B13081F0C3D0B1E00895C0C0672FA0
:10353000782F8827B85F39F0B93FCCF38695779517
:103540006795B395D9F73EF4909580957095619500
:103550007F4F8F4F9F4F0895E89409C097FB3EF42B
:1035600090958095709561957F4F8F4F9F4F9923D0
:10357000A9F0F92F96E9BB279395F695879577954E
:103580006795B795F111F8CFFAF4BB0F11F460FF0E
:103590001BC06F5F7F4F8F4F9F4F16C0882311F066
:1035A00096E911C0772321F09EE8872F762F05C07A
:1035B000662371F096E8862F70E060E02AF09A9515
:1035C000660F771F881FDAF7880F9695879597F90A
:1035D0000895990F0008550FAA0BE0E8FEEF1616A4
:1035E0001706E807F907C0F012161306E407F507F7
:1035F00098F0621B730B840B950B39F40A2661F06B
:10360000232B242B252B21F408950A2609F4A1400D
:10361000A6958FEF811D811D089597F99F6780E81A
:1036200070E060E008959FEF80EC089500240A9414
:103630001616170618060906089500240A9412168D
:103640001306140605060895092E0394000C11F4C0
:10365000882352F0BB0F40F4BF2B11F460FF04C06D
:103660006F5F7F4F8F4F9F4F089557FD9058440FC6
:10367000551F59F05F3F71F04795880F97FB991FD1
:1036800061F09F3F79F0879508951216130614068E
:10369000551FF2CF4695F1DF08C01616170618061B
:1036A000991FF1CF86957105610508940895E894F6
:1036B000BB2766277727CB0197F908950BD0C4CF96
:1036C000B5DF28F0BADF18F0952309F0A6CFABCF0D
:1036D0001124EECFCADFA0F3959FD1F3950F50E0F0
:1036E000551F629FF001729FBB27F00DB11D639FB4
:1036F000AA27F00DB11DAA1F649F6627B00DA11D5A
:10370000661F829F2227B00DA11D621F739FB00DFF
:10371000A11D621F839FA00D611D221F749F33276F
:10372000A00D611D231F849F600D211D822F762F08
:103730006A2F11249F5750408AF0E1F088234AF005
:10374000EE0FFF1FBB1F661F771F881F9150504051
:10375000A9F79E3F510570F060CFAACF5F3FECF311
:10376000983EDCF3869577956795B795F795E7953D
:103770009F5FC1F7FE2B880F911D9695879597F94E
:103780000895DB018F939F930E94D71BBF91AF9148
:10379000A29F800D911DA39F900DB29F900D1124AB
:1037A0000895EE0FFF1F0590F491E02D09940E94FB
:1037B000191CA59F900DB49F900DA49F800D911D85
:1037C000112408950F93083090F0982F872F762FAB
:1037D000652F542F432F322F22270850F4CF220F6A
:1037E000331F441F551F661F771F881F991F0A9597
:1037F000B2F70F91089597FB10F8169400080F93F5
:10380000083098F00850232F342F452F562F672F5C
:10381000782F892F902DF4CF0594979587957795DC
:10382000679557954795379527950A95AAF70F916C
:103830000895A29FB001B39FC001A39F700D811D89
:103840001124911DB29F700D811D1124911D0895A9
:04385000F894FFCF1A
:103854000806050D090AFF00FF0000C18081000071
:1038640000FFFFFFFF00E100000000000000000077
:0E38740000111858183B184B18271838180068
:00000001FF
