S019000051545253656E736F72734E617473756B792E7372656338
S11300000C9456000C9473000C9473000C947300BD
S11300100C9473000C9473000C9473000C94730090
S11300200C9473000C9473000C9473000C94730080
S11300300C9473000C9473000C9473000C94730070
S11300400C9473000C9473000C9473000C94730060
S11300500C9473000C9473000C9473000C94730050
S11300600C9473000C9473000C9473000C94730040
S11300700C9473000C9473000C9473000C94730030
S11300800C9473000C9473000C9473000C94730020
S11300900C9473000C9473000C9473000C94730010
S11300A00C9473000C9473000C94730011241FBE01
S11300B0CFEFDAE0DEBFCDBF11E0A0E0B1E0E0EFCA
S11300C0F0E002C005900D92A030B107D9F721E00D
S11300D0A0E0B1E001C01D92A030B207E1F70E9498
S11300E075000C9476000C940000FFCFF894FFCFB9
S9030000FC
