:100000000C9464000C948C000C948C000C94DE0115
:100010000C94DE010C94DE010C948C000C948C008A
:100020000C948C000C948C000C948C000C948C0020
:100030000C948C000C948C000C948C000C948C0010
:100040000C946F030C948C000C941C060C944E06BC
:100050000C948C000C948C000C948C000C948C00F0
:100060000C948C000C948C0000000008000201002D
:100070000003040700000000000000000102040863
:100080001020408001020408102001020408102002
:10009000040404040404040402020202020203032E
:1000A00003030303000000002300260029000000D2
:1000B0000000250028002B0000000000240027007D
:1000C0002A008E007E06950011241FBECFEFD8E0D7
:1000D000DEBFCDBF11E0A0E0B1E0E8E4FFE002C088
:1000E00005900D92AA35B107D9F722E0AAE5B1E053
:1000F00001C01D92A336B207E1F710E0C6ECD0E0D4
:1001000004C02297FE010E949307C23CD107C9F7A1
:100110000E9418070C9497070C94000020E04BE015
:100120006AE08AE591E00C94B1028AE591E00C94D2
:1001300058028AE591E00E94900164EF71E080E04E
:1001400090E00E94DC0340E054E863E070E08AE560
:1001500091E00E94E10226E040E855E260E070E0B4
:1001600086EC91E00E94BA0560E071E086EC91E0D7
:100170000E94050763E271E08AE591E00E94FF06B4
:1001800064E670E080E090E00C94DC038AE591E0A6
:100190000E947801892B79F08AE591E00E94EB00BA
:1001A000E091C601F091C7010190F081E02D682F28
:1001B00086EC91E0099586EC91E00E94D704892BAA
:1001C00049F086EC91E00E94F004682F8AE591E006
:1001D0000C940C0108952091BB013091BC012817AB
:1001E0003907B9F49091790180917A01981789F0D3
:1001F000E0917901F0E0E558FE4F8081209179018E
:1002000030E02F5F3F4F2F7333272093790190E029
:1002100008958FEF9FEF08951F93CF93DF93DC0135
:100220005C968D919C915D97009749F481E090E0F8
:1002300013969C938E93129780E090E03BC051966A
:10024000ED91FC91529750962C915097322F30950A
:100250001FB75E964C915E9741FB772770F941FD81
:100260006095F8944081772311F0422B01C043231D
:100270004083EC012197F1F748E0508160FF02C014
:10028000522B01C053235083EC012197F1F766955F
:10029000415099F78081772311F0832301C0822B8D
:1002A00080831FBF5C968D919C915D970197F1F7BC
:1002B00081E090E0DF91CF911F9108952091BB01E3
:1002C0003091BC012817390781F490917901809110
:1002D0007A01981751F0E0917901F0E0E558FE4F6E
:1002E0008081992787FD909508958FEF9FEF08955E
:1002F0002091BB013091BC012817390771F480911E
:100300007A012091790190E0805C9F4F821B9109D6
:1003100060E470E00E942807089580E090E008956E
:100320002091BB013091BC012817390739F48FB7F0
:10033000F89410927A01109279018FBF0895E0919C
:10034000BB01F091BC01E817F90769F4A389B489EE
:100350009C918589809589238C931092BC01109281
:10036000BB0181E0089580E00895CF93DF93EC0115
:100370008A8D9B8D892BF1F08091BB019091BC01FE
:100380008C179D07B9F0009711F00E949F018E8D88
:100390008E7F8E8F10927A0110927901D093BC01DA
:1003A000C093BB01EB89FC8980819D89892B808367
:1003B00081E001C080E0DF91CF9108951F920F92FC
:1003C0000FB60F9211242F933F934F935F936F9328
:1003D0007F938F939F93AF93BF93EF93FF93E0919E
:1003E000BB01F091BC01309709F451C0868DA68500
:1003F000B785958581FF04C08C91892329F447C076
:100400008C91892309F043C0A389B4899C91858983
:10041000809589238C93868997890197F1F7208DA0
:10042000318DA685B785758558E040E0C9010197F3
:10043000F1F7842F90E095958795482F6C9167236D
:1004400009F04068515091F7868D81FD409580916B
:100450007A0190E001968F739927209179012817EE
:1004600049F0A0917A01B0E0A558BE4F4C9380931B
:100470007A0103C0868D8160868F828D938D01976E
:10048000F1F7A389B4898C919589892B8C93FF917D
:10049000EF91BF91AF919F918F917F916F915F91FC
:1004A0004F913F912F910F900FBE0F901F90189575
:1004B0002CE231E0FC01318320830C949F011F93D7
:1004C000CF93DF93EC01162F6E8D6695617081E0FE
:1004D0006827812F0E94A10461E0812F0E94680497
:1004E000812F90E0FC01E458FF4FE491E88BFC0180
:1004F000E057FF4FE491F0E0EE0FFF1FE255FF4F92
:10050000859194919A8B898BDF91CF911F9108955A
:100510001F93CF93DF93EC01162F60E0812F0E9491
:1005200068048E8D81FD04C061E0812F0E94A104CA
:100530001C87812F90E0FC01E458FF4FE491ED8788
:10054000FC01E057FF4FE491F0E0EE0FFF1FEC5588
:10055000FF4F859194919F878E87DF91CF911F9157
:100560000895FF920F931F93CF93DF93EC01F62E24
:10057000522F1B821A8208EE13E020E030E00C8339
:100580001D832E833F838CE291E0998388831F8AA9
:100590001E8A198E188E1B8E1A8E1D8E1C8E8E8DA5
:1005A0008E7F50FB81F98E8F642FCE010E945F02F7
:1005B0006F2DCE01DF91CF911F910F91FF900C9481
:1005C0008802CF93DF93EC019A01AB011B8E1A8E48
:1005D000198E188E1F8A1E8A60E079E08DE390E004
:1005E0000E945E07C9012430310520F0B901635033
:1005F000710902C061E070E07D8F6C8FEC85E6319F
:1006000008F068C0B901769567956431710518F0F6
:100610006351710902C061E070E07F8B6E8B0697B9
:1006200018F0C901059702C081E090E0998F888F8A
:10063000C901880F991F820F931F969587959695EC
:1006400087958D30910510F00C9702C081E090E005
:100650009B8F8A8F20916800E83050F091E0EE3057
:1006600008F490E081E001C0880F9A95EAF701C094
:1006700084E0822B809368002C85283038F02E305F
:1006800040F0263148F48CE690E008C08DE690E01A
:1006900005C08BE690E002C080E090E09C8B8B8BE5
:1006A000283030F481E001C0880F2A95EAF70DC0A8
:1006B000822F90E02E3010F4089701C00E9791E041
:1006C00001C0990F8A95EAF7892F8D8B8C8D9D8DAE
:1006D0000197F1F7CE01DF91CF910C94B5011F92F4
:1006E0000F920FB60F9211242F933F938F939F93E6
:1006F000AF93BF938091BE019091BF01A091C001C3
:10070000B091C1013091BD0123E0230F2D3720F4BA
:100710000196A11DB11D05C026E8230F0296A11D5B
:10072000B11D2093BD018093BE019093BF01A093A2
:10073000C001B093C1018091C2019091C301A09109
:10074000C401B091C5010196A11DB11D8093C201E4
:100750009093C301A093C401B093C501BF91AF9121
:100760009F918F913F912F910F900FBE0F901F90EF
:1007700018953FB7F8948091C2019091C301A09160
:10078000C401B091C50126B5A89B05C02F3F19F043
:100790000196A11DB11D3FBF6627782F892F9A2F83
:1007A000620F711D811D911D42E0660F771F881F2A
:1007B000991F4A95D1F70895CF92DF92EF92FF9259
:1007C000CF93DF936B017C010E94B903EB01C1144D
:1007D000D104E104F10489F00E9427070E94B903C3
:1007E0006C1B7D0B683E734090F381E0C81AD10802
:1007F000E108F108C851DC4FEACFDF91CF91FF90BB
:10080000EF90DF90CF900895789484B5826084BD96
:1008100084B5816084BD85B5826085BD85B5816004
:1008200085BDEEE6F0E0808181608083E1E8F0E064
:100830001082808182608083808181608083E0E893
:10084000F0E0808181608083E1EBF0E08081846072
:100850008083E0EBF0E0808181608083EAE7F0E074
:1008600080818460808380818260808380818160D8
:1008700080838081806880831092C10008958330D6
:1008800081F028F4813099F08230A1F0089587300A
:10089000A9F08830B9F08430D1F4809180008F7D48
:1008A00003C0809180008F7780938000089584B585
:1008B0008F7702C084B58F7D84BD08958091B0008C
:1008C0008F7703C08091B0008F7D8093B000089532
:1008D000CF93DF9390E0FC01E458FF4F2491FC019B
:1008E000E057FF4F8491882349F190E0880F991FCA
:1008F000FC01E854FF4FA591B49182559F4FFC0134
:10090000C591D4919FB7611108C0F8948C9120953E
:1009100082238C93888182230AC0623051F4F89438
:100920008C91322F309583238C938881822B8883FE
:1009300004C0F8948C91822B8C939FBFDF91CF9150
:1009400008950F931F93CF93DF931F92CDB7DEB718
:10095000282F30E0F901E859FF4F8491F901E4585C
:10096000FF4F1491F901E057FF4F04910023C9F0A4
:10097000882321F069830E943F046981E02FF0E021
:10098000EE0FFF1FE255FF4FA591B4919FB7F8946A
:100990008C91611103C01095812301C0812B8C9330
:1009A0009FBF0F90DF91CF911F910F910895FC0190
:1009B000818D228D90E0805C9F4F821B91098F7307
:1009C00099270895FC01918D828D981731F0828DC1
:1009D000E80FF11D858D90E008958FEF9FEF08954A
:1009E000FC01918D828D981761F0828DDF01A80F37
:1009F000B11D5D968C91928D9F5F9F73928F90E059
:100A000008958FEF9FEF089584E796E0892B49F0D2
:100A100080E090E0892B29F00E94740681110C94EB
:100A200000000895FC01848DDF01A80FB11DA35AB9
:100A3000BF4F2C91848D90E001968F739927848FFE
:100A4000A689B7892C93A089B1898C9180648C93F5
:100A5000938D848D981306C00288F389E02D8081E0
:100A60008F7D80830895CF93DF93EC01888D882359
:100A7000C9F0EA89FB89808185FD05C0A889B9890B
:100A80008C9186FD0FC00FB607FCF5CF808185FFE6
:100A9000F2CFA889B9898C9185FFEDCFCE010E9454
:100AA0001205E7CFDF91CF910895CF92DF92FF92A9
:100AB0000F931F93CF93DF931F92CDB7DEB76C01D7
:100AC00081E0D60158968C9358975B969C915B97E2
:100AD0005C968C915C97981307C05096ED91FC91B1
:100AE0005197808185FD2EC0F601038D10E00F5FC8
:100AF0001F4F0F731127F02EF601848DF81211C0CD
:100B00000FB607FCF9CFD6015096ED91FC915197A5
:100B1000808185FFF1CFC60169830E94120569813A
:100B2000EBCF838DE80FF11DE35AFF4F6083D601B1
:100B30005B960C935B975296ED91FC915397808155
:100B400080620CC0D6015696ED91FC915797608358
:100B50005096ED91FC91519780818064808381E073
:100B600090E00F90DF91CF911F910F91FF90DF9058
:100B7000CF900895BF92CF92DF92EF92FF92CF93E2
:100B8000DF93EC016A017B01B22EE889F98982E0EA
:100B90008083411581EE580761057105A1F060E081
:100BA00079E08DE390E0A70196010E943C07215077
:100BB00031094109510956954795379527952115D2
:100BC00080E1380798F0E889F989108260E874E8D4
:100BD0008EE190E0A70196010E943C072150310967
:100BE000410951095695479537952795EC85FD851F
:100BF0003083EE85FF852083188EEC89FD89B082D5
:100C0000EA89FB89808180618083EA89FB89808110
:100C100088608083EA89FB89808180688083EA8993
:100C2000FB8980818F7D8083DF91CF91FF90EF9052
:100C3000DF90CF90BF9008951F920F920FB60F9242
:100C400011242F938F939F93EF93FF93E091D601FD
:100C5000F091D7018081E091DC01F091DD0182FD0E
:100C600012C090818091DF018F5F8F732091E0012E
:100C7000821751F0E091DF01F0E0EA53FE4F958FCB
:100C80008093DF0101C08081FF91EF919F918F914F
:100C90002F910F900FBE0F901F9018951F920F92DB
:100CA0000FB60F9211242F933F934F935F936F933F
:100CB0007F938F939F93AF93BF93EF93FF9386ECB4
:100CC00091E00E941205FF91EF91BF91AF919F912A
:100CD0008F917F916F915F914F913F912F910F90E5
:100CE0000FBE0F901F90189586EC91E00E94D704DC
:100CF00021E0892B09F420E0822F08951092C90188
:100D00001092C80188EE93E0A0E0B0E08093CA01A1
:100D10009093CB01A093CC01B093CD018CE391E0F3
:100D20009093C7018093C60185EC90E09093D30126
:100D30008093D20184EC90E09093D5018093D4010C
:100D400080EC90E09093D7018093D60181EC90E005
:100D50009093D9018093D80182EC90E09093DB01CD
:100D60008093DA0186EC90E09093DD018093DC01C2
:100D70001092DF011092E0011092E1011092E20165
:100D80000895CF92DF92EF92FF920F931F93CF932C
:100D9000DF937C016A01EB0100E010E00C151D05FA
:100DA00071F06991D701ED91FC910190F081E02DF6
:100DB000C7010995892B19F00F5F1F4FEFCFC801AD
:100DC000DF91CF911F910F91FF90EF90DF90CF9027
:100DD00008956115710581F0DB010D900020E9F7A0
:100DE000AD0141505109461B570BDC01ED91FC91BF
:100DF0000280F381E02D099480E090E008950C9446
:100E0000E90668E471E00C94E9060F931F93CF9311
:100E1000DF93EC010E94E9068C01CE010E940107DC
:100E2000800F911FDF91CF911F910F910895089529
:100E30000E9404040E9417070E949900C4E0D5E0B4
:100E40000E94C6002097E1F30E940405F9CF08959F
:100E500097FB072E16F4009407D077FD09D00E9467
:100E60007D0707FC05D03EF4909581959F4F08952E
:100E7000709561957F4F0895A1E21A2EAA1BBB1BA6
:100E8000FD010DC0AA1FBB1FEE1FFF1FA217B30756
:100E9000E407F50720F0A21BB30BE40BF50B661F6C
:100EA000771F881F991F1A9469F760957095809530
:100EB00090959B01AC01BD01CF010895052E97FBD4
:100EC0001EF400940E94750757FD07D00E943C074E
:100ED00007FC03D04EF40C9475075095409530955F
:100EE00021953F4F4F4F5F4F089590958095709596
:100EF00061957F4F8F4F9F4F0895AA1BBB1B51E1F8
:100F000007C0AA1FBB1FA617B70710F0A61BB70B79
:100F1000881F991F5A95A9F780959095BC01CD011E
:100F20000895EE0FFF1F0590F491E02D099410E055
:100F3000C6ECD0E004C0FE010E9493072296C83C94
:080F4000D107C9F7F894FFCFB7
:100F480050726570617261646F20706172612065B2
:100F58006E7669617220636F6D616E646F73204194
:100F6800543A004154726E00000000000C01C106A2
:100F78007801EB005E019001000000005505C106F4
:100F8800D704F004E20433050D0A006E616E0069AF
:0A0F98006E66006F7666002E000002
:00000001FF
