:100000000C9463000C948B000C948B000C94F505FD
:100010000C94F5050C94F5050C948B000C948B0056
:100020000C948B000C948B000C948B000C948B0024
:100030000C948B000C948B000C948D000C948B0012
:100040000C943D090C948B000C948B000C948B0049
:100050000C948B000C948B000C948B000C948B00F4
:100060000C948B000C948B0000000008000201002F
:100070000003040700000000000000000102040863
:100080001020408001020408102001020408102002
:10009000040404040404040402020202020203032E
:1000A00003030303000000002300260029000000D2
:1000B0000000250028002B0000000000240027007D
:1000C0002A0007050E0511241FBECFEFD8E0DEBFC2
:1000D000CDBF11E0A0E0B1E0E0ECF4E102C005909A
:1000E0000D92AC32B107D9F722E0ACE2B1E001C029
:1000F0001D92AF32B207E1F710E0C4ECD0E004C0CB
:100100002297FE010E94400AC23CD107C9F70E9413
:100110002E090C94530A0C9400001F920F920FB6F4
:100120000F9211242F933F934F935F936F937F937D
:100130008F939F93AF93BF9387B52091BD0130916B
:10014000BE0190E00196820F931F9093BE018093B1
:10015000BD0187B54091BF015091C0016091C101BF
:100160007091C20190E00196AA2797FDA095BA2F41
:10017000840F951FA61FB71F8093BF019093C001E6
:10018000A093C101B093C2018091BC018823D1F03A
:1001900080912C018F5F80932C01823011F48FE7C6
:1001A00087BD2091BD013091BE01809100019091E9
:1001B00001012817390728F12D981092BC011092DF
:1001C0002C011FC08091BD019091BE0180329E44E0
:1001D000C0F08091060190910701909301018093F6
:1001E00000012D9A81E08093BC011092BE01109213
:1001F000BD0110922C01809100018068869581508C
:1002000087BDBF91AF919F918F917F916F915F91CA
:100210004F913F912F910F900FBE0F901F90189507
:100220002D98259A82E084BD85BD16BC8FE787BDD9
:10023000EEE6F0E0808182608083789408952FB7A5
:10024000F8946091BF017091C0018091C1019091BB
:10025000C2012FBF0895CF93DF93549A269AEFE9F6
:10026000F1E083E891E0C7E6D1E04BE451E0119280
:100270001192DC011D921D92CD0119921992DA01A1
:100280001D921D92AD01B1E0EB3BFB0781F710928F
:100290004A011092490180910501813118F08EE0E8
:1002A000809305012E985C98DF91CF910895CF92AD
:1002B000DF92EF92FF920F931F9388B18C6388B9FE
:1002C0008BB18F6E8BB985B1836885B987B18C632B
:1002D00087B98AB18F6E8AB984B1836884B9309145
:1002E00005018091020190910301EDE2F1E020E02F
:1002F000231721F0819391932F5FFACF85E38A959D
:10030000F1F7000087B1837C87B98AB180718AB91F
:1003100084B18C7784B988B1837C88B98BB18071C2
:100320008BB985B18C7785B90E941F016B017C0167
:100330000E941F016C197D098E099F0940910201DD
:10034000509103018A0120E030E0601771078207B5
:10035000930708F03CC00E941F016C197D0986B10B
:100360008C7390E0959587959595879548998061D0
:100370004B9980624A998064499980681F9991607D
:100380004D9992604E9994604F9998601899906138
:1003900019999062A0910501EDE2F1E020E030E0D2
:1003A0002A1708F0C5CFAC01022E02C0569547951A
:1003B0000A94E2F740FD07C0408151816417750738
:1003C00010F4718360832F5F3F4F3296E9CF1F9106
:1003D0000F91FF90EF90DF90CF900895CF93DF9330
:1003E000CDB7DEB7A0970FB6F894DEBF0FBECDBF76
:1003F000809104018150823018F42E9A5C9A02C0D8
:100400002E985C988FE891E00197F1F700C000000A
:100410000E9457012E985C98809104018230D9F493
:100420000E94570170910501209102013091030152
:10043000DE011196EDE2F1E060E0671761F04D91A9
:100440005D9180819181820F931F841B950B819315
:1004500091936F5FF2CFA0960FB6F894DEBF0FBEF8
:10046000CDBFDF91CF910895CF93DF9350910501D8
:1004700080910201909103016FE971E0A7E6B1E07C
:10048000C3E8D1E02BE431E040E0451771F0FB0117
:1004900081939193BF018D939D9319921992F901C4
:1004A000119211929F014F5FF0CFDF91CF9108958C
:1004B0002F923F924F925F926F927F928F929F9274
:1004C000AF92BF92CF92DF92EF92FF920F931F9362
:1004D000CF93DF9300D01F92CDB7DEB71C010E94EF
:1004E000EE0180910501482E512C209104012983B1
:1004F00000910201109103018DE291E09B838A83B8
:1005000033E8E32E31E0F32E4FE9A42E41E0B42E80
:100510005BE4C52E51E0D52E67E6862E61E0962E6F
:10052000612C712C641475040CF07FC0998191309A
:1005300029F4D701ED91FC91D50107C0B981B11122
:1005400007C0D601ED91FC91D4018D919C911EC004
:10055000F40120813181D5018D919C9128173907B3
:1005600028F0800F911F821B930B01C0C801F60178
:1005700020813181D701ED91FC912E173F0728F0A2
:10058000E00FF11FE21BF30B01C0F801E81BF90BB0
:10059000AA81BB812D913C91243F314060F09301B1
:1005A000265031092230310530F428EE33E0AA819B
:1005B000BB812D933C933097C1F0AA81BB814D91B3
:1005C0005C919A0140E050E0281B390B4109510928
:1005D000A8EEB3E00E94170A9F0140E050E00E949D
:1005E000F809C90137FD09C002C080E090E0281673
:1005F000390628F488EE93E002C080E090E0EA81BA
:10060000FB8181939193FB83EA83FFEF6F1A7F0A4B
:1006100022E0E20EF11C32E0A30EB11C42E0C40E57
:10062000D11C82E0880E911C7DCF0F900F900F900F
:10063000DF91CF911F910F91FF90EF90DF90CF90BE
:10064000BF90AF909F908F907F906F905F904F90F2
:100650003F902F9008952F923F924F925F926F920A
:100660007F928F929F92AF92BF92CF92DF92EF9242
:10067000FF920F931F93CF93DF93382E8B01CA0104
:100680002EE0209305010E9458022091BB012223F5
:1006900099F0209305018EE090E0821B910997FF6D
:1006A00003C0919581959109959587958093BB019C
:1006B000BEE09B2E981A02C0FEE09F2E8090BB01E8
:1006C000412C512C3201C0E0D0E0C12CD12C76015C
:1006D000212CE8EEAE2EE3E0BE2E891450F5E82D75
:1006E000F0E0EE0FFF1FE35DFE4F0190F081E02D83
:1006F000332021F0C5018E1B9F0BFC01E93CF10565
:1007000014F0222423940E171F0758F4DF01A301CD
:1007100092010E94220AC60ED71EE81EF91ECE0FB5
:10072000DF1F839498EE490E93E0591E611C711CE3
:10073000D4CF211022C04091050150E04150510911
:1007400024EF31E0429FC001439F900D529F900DD6
:1007500011242091490130914A012817390750F09E
:1007600088EE93E0489F9001499F300D589F300DCF
:1007700011240EC020E030E00BC09E0140E050E0AC
:10078000C701B6010E94D60930934A01209349015E
:10079000C901DF91CF911F910F91FF90EF90DF90F2
:1007A000CF90BF90AF909F908F907F906F905F9011
:1007B0004F903F902F90089520E831E03093A001B2
:1007C00020939F0180E091E09093A2018093A1018A
:1007D0003093A4012093A3013093A6012093A50197
:1007E0003093A8012093A7013093AA012093A90177
:1007F0009093AC018093AB019093AE018093AD01D7
:100800009093B0018093AF019093B2018093B101B6
:100810009093B4018093B3019093B6018093B50196
:100820009093B8018093B7019093BA018093B90176
:10083000E3E8F1E080ED97E08193919321E0EF39D7
:10084000F207D1F70895CF93DF932FEF89E698E170
:10085000215080409040E1F700C000000E9410014C
:100860008FEC97E00197F1F700C000008FEF8AB995
:1008700017B883E088B90E942B010E9434020E94BD
:10088000DC03269A2E9840E855E260E070E083ECA5
:1008900091E00E94F806CFE9D1E0699179914AE0B0
:1008A00050E083EC91E00E94270960E283EC91E044
:1008B0000E945E0891E0CB3BD90779F783EC91E089
:1008C0000E946508C3E8D1E0699179914AE050E05F
:1008D00083EC91E00E94270960E283EC91E00E94A2
:1008E0005E0821E0CF39D20779F783EC91E00E94CE
:1008F000650883EC91E00E9465088FEF99E628E196
:10090000815090402040E1F700C00000DF91CF917E
:100910000895DF92EF92FF920F931F93CF93DF938F
:10092000C8ECD0E01092BB0148EE53E064E670E002
:1009300080E00E942B037C010DE211E0F80161913F
:1009400071918F014AE050E083EC91E00E94270909
:1009500068E071E083EC91E00E945C08F1E009340A
:100960001F0761F74AE050E0B70183EC91E00E9475
:1009700002092FEF80E792E0215080409040E1F79C
:1009800000C00000219771F6C8ECD0E018E0D12E2D
:10099000D092BB0148EE53E06CE370E080E00E942F
:1009A0002B037C010DE211E0F801619171918F013F
:1009B0004AE050E083EC91E00E94270968E071E092
:1009C00083EC91E00E945C08F1E009341F0761F7B5
:1009D0004AE050E0B70183EC91E00E9402092FEF5A
:1009E00080E792E0215080409040E1F700C0000095
:1009F000219771F668E071E083EC91E0DF91CF918F
:100A00001F910F91FF90EF90DF900C945C0820E015
:100A10004CE06BE083EC91E00C94C80683EC91E031
:100A20000C946F0620912402309125022817390773
:100A3000B9F49091E2018091E301981789F0E09177
:100A4000E201F0E0EC51FE4F80812091E20130E0C4
:100A50002F5F3F4F2F7333272093E20190E00895DB
:100A60008FEF9FEF08951F93CF93DF93DC015C9688
:100A70008D919C915D97009749F481E090E01396E9
:100A80009C938E93129780E090E03BC05196ED913D
:100A9000FC91529750962C915097322F30951FB75A
:100AA0005E964C915E9741FB772770F941FD60950A
:100AB000F8944081772311F0422B01C043234083F7
:100AC000EC012197F1F748E0508160FF02C0522B02
:100AD00001C053235083EC012197F1F766954150F3
:100AE00099F78081772311F0832301C0822B8083C3
:100AF0001FBF5C968D919C915D970197F1F781E006
:100B000090E0DF91CF911F910895089520912402E4
:100B1000309125022817390771F49091E2018091F4
:100B2000E301981741F0E091E201F0E0EC51FE4F53
:100B3000808190E008958FEF9FEF08952091240227
:100B4000309125022817390771F48091E301209133
:100B5000E20190E0805C9F4F821B910960E470E0AD
:100B60000E94C209089580E090E00895E091240277
:100B7000F0912502E817F90769F4A389B4899C91DB
:100B80008589809589238C931092250210922402E6
:100B900081E0089580E00895CF93DF93EC018A8D82
:100BA0009B8D892BF1F080912402909125028C1766
:100BB0009D07B9F0009711F00E94B6058E8D8E7FCB
:100BC0008E8F1092E3011092E201D0932502C09320
:100BD0002402EB89FC8980819D89892B808381E0B7
:100BE00001C080E0DF91CF9108951F920F920FB660
:100BF0000F9211242F933F934F935F936F937F93A3
:100C00008F939F93AF93BF93EF93FF93E091240251
:100C1000F0912502309709F451C0868DA685B785DD
:100C2000958581FF04C08C91892329F447C08C915C
:100C3000892309F043C0A389B4899C918589809553
:100C400089238C93868997890197F1F7208D318DBF
:100C5000A685B785758558E040E0C9010197F1F791
:100C6000842F90E095958795482F6C91672309F024
:100C70004068515091F7868D81FD40958091E30148
:100C800090E001968F7399272091E201281749F08F
:100C9000A091E301B0E0AC51BE4F4C938093E301CF
:100CA00003C0868D8160868F828D938D0197F1F7C9
:100CB000A389B4898C919589892B8C93FF91EF91AD
:100CC000BF91AF919F918F917F916F915F914F9164
:100CD0003F912F910F900FBE0F901F9018952FE00E
:100CE00031E0FC01318320830C94B6051F93CF9330
:100CF000DF93EC01162F6E8D6695617081E0682799
:100D0000812F0E94E80761E0812F0E94AF07812FA9
:100D100090E0FC01E458FF4FE491E88BFC01E057C0
:100D2000FF4FE491F0E0EE0FFF1FE255FF4F85917A
:100D300094919A8B898BDF91CF911F9108951F9386
:100D4000CF93DF93EC01162F60E0812F0E94AF0755
:100D50008E8D81FD04C061E0812F0E94E8071C8711
:100D6000812F90E0FC01E458FF4FE491ED87FC01F6
:100D7000E057FF4FE491F0E0EE0FFF1FEC55FF4FFF
:100D8000859194919F878E87DF91CF911F910895D0
:100D9000FF920F931F93CF93DF93EC01F62E522F08
:100DA0001B821A8208EE13E020E030E00C831D83E2
:100DB0002E833F838FE091E0998388831F8A1E8A68
:100DC000198E188E1B8E1A8E1D8E1C8E8E8D8E7F08
:100DD00050FB81F98E8F642FCE010E9476066F2D15
:100DE000CE01DF91CF911F910F91FF900C949F0640
:100DF000CF93DF93EC019A01AB011B8E1A8E198EF3
:100E0000188E1F8A1E8A60E874E88EE190E00E94C6
:100E1000F809C9012430310520F0B9016350710986
:100E200002C061E070E07D8F6C8FEC85E63108F0E8
:100E300068C0B901769567956431710518F0635102
:100E4000710902C061E070E07F8B6E8B069718F02D
:100E5000C901059702C081E090E0998F888FC90190
:100E6000880F991F820F931F969587959695879562
:100E70008D30910510F00C9702C081E090E09B8FBF
:100E80008A8F20916800E83050F091E0EE3008F44D
:100E900090E081E001C0880F9A95EAF701C084E0F4
:100EA000822B809368002C85283038F02E3040F05B
:100EB000263148F48CE690E008C08DE690E005C04D
:100EC0008BE690E002C080E090E09C8B8B8B28301A
:100ED00030F481E001C0880F2A95EAF70DC0822F17
:100EE00090E02E3010F4089701C00E9791E001C0F9
:100EF000990F8A95EAF7892F8D8B8C8D9D8D01979F
:100F0000F1F7CE01DF91CF910C94CC05833081F0C5
:100F100028F4813099F08230A1F008958730A9F04B
:100F20008830B9F08430D1F4809180008F7D03C087
:100F3000809180008F7780938000089584B58F77AB
:100F400002C084B58F7D84BD08958091B0008F77F5
:100F500003C08091B0008F7D8093B0000895CF933F
:100F6000DF9390E0FC01E458FF4F2491FC01E0572F
:100F7000FF4F8491882349F190E0880F991FFC016D
:100F8000E854FF4FA591B49182559F4FFC01C59144
:100F9000D4919FB7611108C0F8948C912095822359
:100FA0008C93888182230AC0623051F4F8948C912A
:100FB000322F309583238C938881822B888304C0C1
:100FC000F8948C91822B8C939FBFDF91CF910895E1
:100FD0000F931F93CF93DF931F92CDB7DEB7282FC8
:100FE00030E0F901E859FF4F8491F901E458FF4FCF
:100FF0001491F901E057FF4F04910023C9F08823B1
:1010000021F069830E9486076981E02FF0E0EE0FEE
:10101000FF1FE255FF4FA591B4919FB7F8948C91B3
:10102000611103C01095812301C0812B8C939FBF58
:101030000F90DF91CF911F910F910895CF92DF9282
:10104000EF92FF920F931F93CF93DF937C016A017E
:10105000EB0100E010E00C151D0571F06991D7015E
:10106000ED91FC910190F081E02DC7010995892B4C
:1010700019F00F5F1F4FEFCFC801DF91CF911F9184
:101080000F91FF90EF90DF90CF900895611571055B
:1010900081F0DB010D900020E9F7AD0141505109CD
:1010A000461B570BDC01ED91FC910280F381E02D92
:1010B000099480E090E008950C944608DC01ED91DD
:1010C000FC910190F081E02D09946BE171E00C94AA
:1010D00046088F929F92AF92BF92DF92EF92FF925B
:1010E0000F931F93CF93DF93CDB7DEB7A1970FB6C2
:1010F000F894DEBF0FBECDBF7C01F42FD52ECB01FF
:1011000019A2223008F42AE08E010F5D1F4F822EB3
:10111000912CA12CB12C6F2F7D2DA50194010E9443
:10112000D609F22FD32ECA01015011096A3014F4E6
:10113000E0E301C0E7E3E60FD801EC93232B242B77
:10114000252B49F7B801C7010E944608A1960FB6A2
:10115000F894DEBF0FBECDBFDF91CF911F910F91ED
:10116000FF90EF90DF90BF90AF909F908F90089589
:10117000CF92DF92EF92FF920F931F93CF93DF9363
:10118000EC016A017B012115310579F4E881F981CF
:101190000190F081E02D642FDF91CF911F910F918D
:1011A000FF90EF90DF90CF9009942A303105E9F459
:1011B00077FF1AC06DE20E945E088C014427552714
:1011C000BA014C195D096E097F092AE0CE010E941F
:1011D0006908800F911FDF91CF911F910F91FF90B0
:1011E000EF90DF90CF9008952AE0B701A601CE01DD
:1011F000DF91CF911F910F91FF90EF90DF90CF90F3
:101200000C9469080F931F93CF93DF93EC019A011D
:10121000AB01662757FD6095762F0E94B8088C01B8
:10122000CE010E946508800F911FDF91CF911F9121
:101230000F9108952115310541F4DC01ED91FC91E8
:101240000190F081E02D642F09940C9469089A01B3
:10125000AB0160E070E00C941A0908950E948709C0
:101260000E942D090E942304C0E0D0E00E9489045E
:101270002097E1F30E940000F9CF1F920F920FB662
:101280000F9211242F933F938F939F93AF93BF930C
:101290008091270290912802A0912902B0912A0200
:1012A0003091260226E0230F2D3720F40296A11D4F
:1012B000B11D05C029E8230F0396A11DB11D209380
:1012C00026028093270290932802A0932902B093CC
:1012D0002A0280912B0290912C02A0912D02B091B4
:1012E0002E020196A11DB11D80932B0290932C021A
:1012F000A0932D02B0932E02BF91AF919F918F9139
:101300003F912F910F900FBE0F901F9018957894DA
:1013100084B5826084BD84B5816084BD85B58260FA
:1013200085BD85B5816085BDEEE6F0E08081816098
:101330008083E1E8F0E01082808182608083808198
:1013400081608083E0E8F0E0808181608083E1EB70
:10135000F0E0808184608083E0EBF0E08081816058
:101360008083EAE7F0E0808184608083808182600E
:10137000808380818E7F80838081806880831092CB
:10138000C100089597FB072E16F4009407D077FD4F
:1013900009D00E942A0A07FC05D03EF49095819559
:1013A0009F4F0895709561957F4F0895A1E21A2E81
:1013B000AA1BBB1BFD010DC0AA1FBB1FEE1FFF1FF9
:1013C000A217B307E407F50720F0A21BB30BE40B49
:1013D000F50B661F771F881F991F1A9469F7609590
:1013E0007095809590959B01AC01BD01CF0108954A
:1013F000052E97FB1EF400940E940F0A57FD07D09C
:101400000E94D60907FC03D04EF40C940F0A5095A5
:101410004095309521953F4F4F4F5F4F08959095E0
:101420008095709561957F4F8F4F9F4F08950E94D3
:10143000440AA59F900DB49F900DA49F800D911D0F
:1014400011240895B7FF0C94170A0E94170A821BF3
:10145000930B0895AA1BBB1B51E107C0AA1FBB1F1A
:10146000A617B70710F0A61BB70B881F991F5A9530
:10147000A9F780959095BC01CD010895EE0FFF1F4F
:101480000590F491E02D0994A29FB001B39FC00193
:10149000A39F700D811D1124911DB29F700D811DA0
:1014A0001124911D089510E0C4ECD0E004C0FE01A9
:1014B0000E94400A2296C63CD107C9F7F894FFCF94
:1014C000E803D007010EE8032020000000000033ED
:1014D000051E089E051205860585050D0A006E612C
:0C14E0006E00696E66006F7666002E00DC
:107800000C94343C0C94513C0C94513C0C94513CE1
:107810000C94513C0C94513C0C94513C0C94513CB4
:107820000C94513C0C94513C0C94513C0C94513CA4
:107830000C94513C0C94513C0C94513C0C94513C94
:107840000C94513C0C94513C0C94513C0C94513C84
:107850000C94513C0C94513C0C94513C0C94513C74
:107860000C94513C0C94513C11241FBECFEFD8E036
:10787000DEBFCDBF11E0A0E0B1E0EAE8FFE702C063
:1078800005900D92A230B107D9F712E0A2E0B1E065
:1078900001C01D92AD30B107E1F70E942D3D0C945F
:1078A000C33F0C94003C982F95959595959595958B
:1078B000905D8F708A307CF0282F295A8091C0000B
:1078C00085FFFCCF9093C6008091C00085FFFCCF60
:1078D0002093C6000895282F205DF0CF982F809127
:1078E000C00085FFFCCF9093C6000895EF92FF92F1
:1078F0000F931F93EE24FF2487018091C00087FD22
:1079000017C00894E11CF11C011D111D81E2E8164D
:1079100081EAF80687E0080780E0180770F3E09135
:107920000401F091050109958091C00087FFE9CF1E
:107930008091C6001F910F91FF90EF9008950E94D3
:10794000763C982F8091C00085FFFCCF9093C600B5
:1079500091362CF490330CF09053892F089597555D
:10796000892F08951F930E949F3C182F0E949F3CCF
:107970001295107F810F1F9108951F93182F882350
:1079800021F00E94763C1150E1F71F9108951F935A
:10799000182F0E94763C803249F0809103018F5F5E
:1079A000809303018530C1F01F9108958091C0003C
:1079B00085FFFCCF84E18093C6008091C00085FFE5
:1079C000FCCF1093C6008091C00085FFFCCF80E102
:1079D0008093C6001F910895E0910401F091050184
:1079E00009951F9108950E94763C803241F0809164
:1079F00003018F5F80930301853081F008958091AA
:107A0000C00085FFFCCF84E18093C6008091C00058
:107A100085FFFCCF80E18093C6000895E0910401CA
:107A2000F09105010995089548EC50E08823A1F0F4
:107A30002D9A28EE33E0FA013197F1F721503040CA
:107A4000D1F72D9828EE33E0FA013197F1F7215064
:107A50003040D1F7815061F708953F924F925F9285
:107A60006F927F928F929F92AF92BF92CF92DF924E
:107A7000EF92FF920F931F93CF93DF93000082E06A
:107A80008093C00080E18093C4001092C50088E11B
:107A90008093C10086E08093C2005098589A259A3E
:107AA00081E00E94143D24E1F22E9EE1E92E85E959
:107AB000D82E0FE0C02E10E1B12EAA24A394B1E479
:107AC0009B2EA6E58A2EF2E57F2EE0E26E2E79E46B
:107AD000572E63E5462E50E5352E0E94763C8033C6
:107AE000B1F18133B9F1803409F46FC0813409F404
:107AF00076C0823409F485C0853409F488C08035A5
:107B000031F1823521F1813511F1853509F485C0D6
:107B1000863509F48DC0843609F496C0843709F49B
:107B200003C1853709F472C1863709F466C08091B4
:107B300003018F5F80930301853079F6E0910401A2
:107B4000F091050109950E94763C803351F60E9420
:107B5000F33CC3CF0E94763C803249F78091C0004D
:107B600085FFFCCFF092C6008091C00085FFFCCF5E
:107B70009092C6008091C00085FFFCCF8092C60025
:107B80008091C00085FFFCCF7092C6008091C0003C
:107B900085FFFCCF6092C6008091C00085FFFCCFBE
:107BA0005092C6008091C00085FFFCCF4092C60075
:107BB0008091C00085FFFCCF3092C6008091C0004C
:107BC00085FFFCCFB092C60088CF0E94763C8638F5
:107BD00008F4BDCF0E94763C0E94F33C7ECF0E9409
:107BE000763C803809F49CC0813809F40BC1823896
:107BF00009F430C1883909F48FC080E00E94C73C85
:107C00006CCF84E10E94BD3C0E94F33C66CF85E0CE
:107C10000E94BD3C0E94F33C60CF0E94763C809362
:107C200006010E94763C809307010E94F33C55CFE9
:107C30000E94763C803309F411C183E00E94BD3C70
:107C400080E00E94C73C49CF0E94763C80930902A5
:107C50000E94763C8093080280910C028E7F809374
:107C60000C020E94763C853409F409C18091080217
:107C700090910902892B89F000E010E00E94763C87
:107C8000F801E85FFE4F80830F5F1F4F809108026D
:107C9000909109020817190788F30E94763C8032F8
:107CA00009F045CF80910C0280FFF5C0609106017C
:107CB00070910701660F771F7093070160930601AB
:107CC000A0910802B09109021097C9F0E8E0F1E034
:107CD0009B01AD014E0F5F1FF999FECF32BD21BD53
:107CE000819180BDFA9AF99A2F5F3F4FE417F5070B
:107CF00099F76A0F7B1F70930701609306018091CB
:107D0000C00085FFFCCFF092C6008091C00085FFC7
:107D1000FCCFB092C600E1CE83E00E94C73CDDCE2E
:107D200082E00E94C73CD9CE0E94763C8093090233
:107D30000E94763C80930802809106019091070191
:107D4000880F991F90930701809306010E94763C4B
:107D5000853409F49AC080910C028E7F80930C02C6
:107D60000E94763C803209F0B8CE8091C00085FF39
:107D7000FCCFF092C600A0910802B09109021097C2
:107D8000C1F180910C02082F0170182F1695117007
:107D9000E0910601F0910701AF014F5F5F4FBA011B
:107DA00020E030E00023B1F4112339F49491809164
:107DB000C00085FFFCCF9093C6002F5F3F4FCB01E3
:107DC0000196FA012A173B0780F4BC014F5F5F4F11
:107DD000002351F3F999FECFF2BDE1BDF89A90B5B9
:107DE0008091C00085FFFCCFE6CF709307016093C0
:107DF00006018091C00085FDE5CE8091C00085FF21
:107E0000F8CFE0CE81E00E94C73C67CE0E94763C6E
:107E1000803209F08CCE8091C00085FFFCCFF092BB
:107E2000C6008091C00085FFFCCFE092C600809123
:107E3000C00085FFFCCFD092C6008091C00085FFB6
:107E4000FCCFC092C6008091C00085FFFCCFB092ED
:107E5000C60043CE80E10E94C73C3FCE0E94763CE4
:107E60000E94763C182F0E94763C112309F483C0AF
:107E7000113009F484C08FE00E94C73C2ECE80915F
:107E80000C02816080930C02F1CE80910C02816023
:107E900080930C0265CF809107018823880F880B9F
:107EA0008A2180930B028091060190910701880F2F
:107EB000991F90930701809306018091080280FF2B
:107EC00009C08091080290910902019690930902DD
:107ED00080930802F894F999FECF1127E0910601EA
:107EE000F0910701C8E0D1E0809108029091090269
:107EF000103091F40091570001700130D9F303E084
:107F000000935700E8950091570001700130D9F3B4
:107F100001E100935700E8950990199000915700EE
:107F200001700130D9F301E000935700E8951395F3
:107F3000103498F011270091570001700130D9F3E7
:107F400005E000935700E89500915700017001305B
:107F5000D9F301E100935700E8953296029709F0B2
:107F6000C7CF103011F00296E5CF11248091C000E8
:107F700085FFC5CEC8CE8EE10E94C73CAECD85E957
:0A7F80000E94C73CAACDF894FFCF81
:027F8A00800075
:040000030000780081
:00000001FF
