:100000000C940E010C9436010C9436010C940211E0
:100010000C9402110C9402110C9436010C943601CC
:100020000C9436010C9493120C9436010C94360106
:100030000C9436010C9436010C9436010C94360164
:100040000C943E130C9436010C9436010C9436013A
:100050000C9436010C9436010C9436010C94360144
:100060000C9436010C9436014108440847084A08AC
:100070004D08500853085B085E08650868086F085B
:10008000720875087E08810800000008000201005F
:100090000003040700000000000000000102040843
:1000A00010204080010204081020010204081020E2
:1000B000040404040404040402020202020203030E
:1000C00003030303000000002300260029000000B2
:1000D0000000250028002B0000000000240027005D
:1000E0002A004E414E494E495459494E46CDCCCC3A
:1000F0003D0AD7233C17B7D13877CC2B329595E6FC
:10010000241FB14F0A000020410000C84200401CDB
:100110004620BCBE4CCA1B0E5AAEC59D7400407A28
:1001200010F35A00A0724E18090010A5D4E8000080
:10013000E87648170000E40B54020000CA9A3B001E
:100140000000E1F505000080969800000040420F95
:10015000000000A08601000000102700000000E859
:1001600003000000006400000000000A000000001E
:10017000000100000000002C76D888DC674F0823BF
:10018000DFC1DFAE59E1B1B796E5E3E453C63AE625
:1001900051997696E8E6C28426EB898C9B62ED4005
:1001A0007C6FFCEFBC9C9F40F2BAA56FA5F4900554
:1001B0005A2AF75C936B6CF9676DC11BFCE0E40D88
:1001C00047FEF520E6B500D0ED902E03009435777C
:1001D000050080841E080000204E0A000000C80CA4
:1001E000333333330F986E12831141EF8D2114890D
:1001F0003BE65516CFFEE6DB18D1844B381BF77C67
:100200001D901DA4BBE424203284725E228100C9AB
:10021000F124ECA1E53D2700BD08D00811241FBE44
:10022000CFEFD8E0DEBFCDBF11E0A0E0B1E0EAE261
:10023000F4E402C005900D92AE3FB107D9F722E079
:10024000AEEFB1E001C01D92AF3AB207E1F712E0A4
:10025000CAE1D2E004C02297FE010E940C1BC83103
:10026000D107C9F70E94E2180C9408220C940000F0
:1002700080E092E00E947C118FE192E00E944B1698
:100280008BE392E00C944B16289A0895CF93DF935A
:1002900000D000D000D0CDB7DEB78BE392E00E9453
:1002A0006C1880913F0290914002892B09F47BC029
:1002B00060E070E08BE392E00E942518843209F040
:1002C00072C020913F02309140022430310588F401
:1002D00041E050E06BE372E0CE0101960E942718E6
:1002E000CE0101960E94CB187093280260932702DA
:1002F00056C062E070E08BE392E00E9425188332E2
:10030000E9F423E030E041E050E06BE372E0CE013D
:1003100001960E942718CE0101960E94CB18709377
:10032000280260932702CE0101960E944B1620916D
:100330003F023091400243E050E024C063E070E0AF
:100340008BE392E00E942518833269F524E030E0C7
:1003500041E050E06BE372E0CE0101960E94271865
:10036000CE0101960E94CB18709328026093270259
:10037000CE0101960E944B1620913F02309140021F
:1003800044E050E06BE372E0CE0101960E94271832
:10039000BE016F5F7F4F8FE192E00E940517CE0193
:1003A00001960E944B1626960FB6F894DEBF0FBE3C
:1003B000CDBFDF91CF9108958F929F92AF92BF9260
:1003C000CF92DF92EF92FF920F931F93CF93DF9321
:1003D0008C01EB016A010E94021388809980AA8037
:1003E000BB80681979098A099B09E12CF12C6C15ED
:1003F0007D058E059F0540F0F80109950E940213C6
:10040000688379838A839B83DF91CF911F910F91BA
:10041000FF90EF90DF90CF90BF90AF909F908F9024
:10042000089597FD03C01092FF0106C09195819534
:10043000910921E02093FF018F3F910519F014F0FD
:100440008FEF90E02091FF01222329F01092B40059
:100450008093B30008958093B4001092B300089580
:1004600097FD03C01092FE0106C0919581959109F8
:1004700021E02093FE018F3F910519F014F08FEFDA
:1004800090E02091FE01222319F018BC87BD089549
:1004900088BD17BC0895CF93DF93EC01CB010E9478
:1004A0003002CE01DF91CF910C94110290E0909335
:1004B00089008093880070E070938B0060938A00BD
:1004C00041110C9444012898089584B18F6084B937
:1004D0008AB188668AB98AB18AB987B187B96FE764
:1004E00070E089E00E9437146FE770E08AE00E94B4
:1004F000371440E060E080E00E94560240E056E998
:1005000060E070E080E092E00E94051260E071E03F
:100510008BE392E00E947C1660E071E08FE192E054
:100520000E947C1621E040ED57E066E081E191E019
:100530000E94910B0E94BF0AF89483EF8093B00051
:1005400084BD82E08093B10085BD1092B40010920A
:10055000B30018BC17BC78940895CF93DF93C0E024
:10056000D0E00E945F098C0F9D1FFC0160817181AA
:100570004AE050E080E092E00E940A1668E171E0F3
:1005800080E092E00E947A150E9458098C0F9D1F0E
:10059000FC01608171814AE050E080E092E00E94BD
:1005A00010162296CC30D105E1F6DF91CF91089557
:1005B000CF93DF9361E081E492E00E941410C1E4E4
:1005C000D2E0699179914AE050E080E092E00E94A7
:1005D0000A1669E171E080E092E00E947A1582E0FB
:1005E000CD34D80771F780E092E0DF91CF910C9481
:1005F0007C15CF92DF92EF92FF92CF93DF9361E071
:1006000081E492E00E9414109093330280933202AE
:1006100020910E0130910F01821B930B90932F02BA
:1006200080932E028D3326EF92077CF480E090E0D9
:100630000E9430028FEF8093B4008093B30040E0BB
:100640006FEF80E00E94560214C0843C9940BCF0D9
:1006500080E090E00E9411028FEF88BD87BD10926C
:1006600089001092880010928B0010928A000E94DC
:10067000440168E070E080E090E00E94A513609182
:100680002E0270912F0280912C0290912D02EB018D
:10069000C81BD90BD0933102C093300270932D0246
:1006A00060932C02882777FD8095982F0E948E19E1
:1006B00020910A0130910B0140910C0150910D01E4
:1006C0000E943E1A6B017C01BE01882777FD809550
:1006D000982F0E948E1920910601309107014091B8
:1006E0000801509109010E943E1A9B01AC01C7010B
:1006F000B6010E94F3180E945B192091100130E0AE
:100700002617370784F044275527421B530BCB018C
:10071000641775070CF4CA0197FF06C0B901680F8A
:10072000791FC90106C0C901B901A901481B590BAC
:10073000CA01DF91CF91FF90EF90DF90CF900C94A2
:100740004B020C94F902CF93DF93CFEFD0E0D0931C
:100750002802C09327026BE171E080E092E00E94E2
:100760009215D0938900C093880010928B0010924C
:100770008A000E9444010E94021360933402709325
:1007800035028093360290933702DF91CF9108951E
:10079000CF9310922A0210922B021092290240E06D
:1007A00060E080E00E94560280912B02833008F0C6
:1007B0008EC061E081E492E00E94970D81E00E948A
:1007C000C90E80912A02811110C06CEE7FEF83E286
:1007D00090E00E944B0240E06FEF8FEF0E945602C4
:1007E0008091290281111092290280914B029091EF
:1007F0004C02803D9740F8F080912A0281111BC085
:1008000081E080932A028FEF8093B4008093B3003D
:1008100088BD87BD60E07FE080E090E00E94A51386
:1008200063E270E08CEE9FEF0E944B0240E060E0DC
:100830008FEF0E9456028091410290914202803DCA
:10084000974040F1C0912A02C13021F510922A024E
:10085000109289001092880010928B0010928A00EA
:100860000E94440180912902811107C080912B02CE
:100870008F5F80932B02C09329028FEF8093B40087
:100880008093B30088BD87BD60E07FE080E090E0AA
:100890000E94A51360EA70E080E090E00E94A5133A
:1008A00083CF61E081E492E00E94970D80912A025B
:1008B000811106C06DED7FEF88E290E00E944B024F
:1008C0008091450290914602803D974028F48091A6
:1008D0002A02882331F316C0809147029091480282
:1008E000803D9740A0F340E06FEF8FEF0E945602EB
:1008F0008FEF8093B4008093B30088BD87BD809351
:100900002A02E5CF0E94BF0A81E080933902CF918D
:100910000C94A3038FEF90E090932802809327021A
:100920006EE171E080E092E00E94921540E060E0AC
:100930008FEF0E9456020E9402136093340270935C
:10094000350280933602909337020895CF93DF9358
:10095000CDB7DEB72C970FB6F894DEBF0FBECDBF74
:1009600080913902882309F461C080913802811195
:100970005DC086E00E941A140B970CF452C061E02F
:1009800081E492E00E94141090933302809332022B
:100990004AE050E0BC0180E092E00E940A1684E147
:1009A0000E941A144AE0BC01CE0107960E94561715
:1009B00069E171E0CE0101960E94B916BE01695F3E
:1009C0007F4FCE0101960E940118BC0180E092E0A9
:1009D0000E948015CE0101960E944B16CE0107960B
:1009E0000E944B16809132029091330220910E01A9
:1009F00030910F01821B930B40E060E08A362FEFAD
:100A000092072CF08739910514F48FEF01C080E034
:100A10000E94560260E872E080E090E00E94A51318
:100A2000A8CF0E94BF0A0E94A30302C00E948A04AA
:100A30002C960FB6F894DEBF0FBECDBFDF91CF91DD
:100A4000089580913802811116C040E060E00E9454
:100A5000560286E00E941A140B974CF00E94D802AE
:100A600060E273E080E090E00E94A513F2CF0E9464
:100A7000BF0A0C94A3030E94BF0A0C948A048091BD
:100A80003902882391F08091380281110EC00E94B2
:100A9000680A64EF71E080E090E00E94A5130E9474
:100AA000AD020E94BF0A0C94A3030E94BF0A0C94DB
:100AB0008A0480913802811117C081E00E94C90E1A
:100AC0000E94130B0E94B509882359F064EF71E06E
:100AD00080E090E00E94A51381E0809339020C949D
:100AE000A3031092390202C00E94BF0A0C948A0428
:100AF00080913902882341F080913802811104C02D
:100B00000E94AD020C94A3030C948A04CF93DF934C
:100B1000CDB7DEB72C970FB6F894DEBF0FBECDBFB2
:100B20009091380291112AC0809310014AE0682FF9
:100B3000CE0107960E94291767E271E0CE01019667
:100B40000E94B916BE01695F7F4FCE0101960E94D7
:100B50000118BC0180E092E00E948015CE01019650
:100B60000E944B16CE0107960E944B1662E471E07C
:100B70008FE192E00E9411170E94A3032C960FB6FA
:100B8000F894DEBF0FBECDBFDF91CF910895CF9314
:100B9000DF93CDB7DEB72C970FB6F894DEBF0FBE4C
:100BA000CDBF8091380281112BC04AE060911001C5
:100BB000CE0107960E94291764E471E0CE010196E8
:100BC0000E94B916BE01695F7F4FCE0101960E9457
:100BD0000118BC0180E092E00E948015CE010196D0
:100BE0000E944B16CE0107960E944B168FEF90E0A5
:100BF00090932802809327028091100190E002C018
:100C000080E090E02C960FB6F894DEBF0FBECDBF0B
:100C1000DF91CF910895CF93DF93CDB7DEB72C97B7
:100C20000FB6F894DEBF0FBECDBFAB01BC01809103
:100C30003802811130C040930A0150930B01609338
:100C40000C0170930D0122E0CE0107960E948217DD
:100C50006FE571E0CE0101960E94B916BE01695F91
:100C60007F4FCE0101960E940118BC0180E092E006
:100C70000E948015CE0101960E944B16CE01079668
:100C80000E944B1662E471E08FE192E00E9411171E
:100C90000E94A30302C00E948A042C960FB6F89407
:100CA000DEBF0FBECDBFDF91CF910895CF93DF930D
:100CB000CDB7DEB72C970FB6F894DEBF0FBECDBF11
:100CC00080913802811136C040910A0150910B0188
:100CD00060910C0170910D0122E0CE0107960E94F7
:100CE00082176DE671E0CE0101960E94B916BE0131
:100CF000695F7F4FCE0101960E940118BC0180E020
:100D000092E00E948015CE0101960E944B16CE0102
:100D100007960E944B168FEF90E0909328028093E5
:100D2000270260910A0170910B0180910C01909152
:100D30000D0105C00E948A0460E070E0CB012C9692
:100D40000FB6F894DEBF0FBECDBFDF91CF910895EF
:100D5000CF93DF93CDB7DEB72C970FB6F894DEBFF5
:100D60000FBECDBFAB01BC0180913802811130C0F4
:100D700040930601509307016093080170930901A5
:100D800022E0CE0107960E9482176FE571E0CE0146
:100D900001960E94B916BE01695F7F4FCE01019690
:100DA0000E940118BC0180E092E00E948015CE01F3
:100DB00001960E944B16CE0107960E944B1662E4E4
:100DC00071E08FE192E00E9411170E94A30302C01C
:100DD0000E948A042C960FB6F894DEBF0FBECDBFDA
:100DE000DF91CF910895CF93DF93CDB7DEB72C97E6
:100DF0000FB6F894DEBF0FBECDBF809138028111CF
:100E000036C0409106015091070160910801709130
:100E1000090122E0CE0107960E9482176DE671E07B
:100E2000CE0101960E94B916BE01695F7F4FCE01C7
:100E300001960E940118BC0180E092E00E9480159A
:100E4000CE0101960E944B16CE0107960E944B16CA
:100E50008FEF90E090932802809327026091060123
:100E600070910701809108019091090105C00E94CD
:100E70008A0460E070E0CB012C960FB6F894DEBFD8
:100E80000FBECDBFDF91CF910895CF93DF938091B7
:100E90003802811111C00E941613D82FC92F4AE0C1
:100EA00050E0682F792F80E092E00E9410160E9497
:100EB000A3038D2F9C2F04C00E948A0480E090E041
:100EC000DF91CF9108950F931F93CF93DF93CDB709
:100ED000DEB72C970FB6F894DEBF0FBECDBF8C01E6
:100EE0008091380281115DC06AE171E0CE01079600
:100EF0000E94B91669E771E0CE0107960E941117AA
:100F000065E871E0CE0101960E94B916BE01695FE5
:100F10007F4FCE0101960E940118BC0180E092E053
:100F20000E948015CE0101960E944B166DE971E07A
:100F3000CE0107960E94111766EA71E0CE01019674
:100F40000E94B916BE01695F7F4FCE0101960E94D3
:100F50000118BC0180E092E00E948015CE0101964C
:100F60000E944B1669E771E0CE0107960E94DE17DA
:100F700062E471E0CE0107960E94DE176DE971E030
:100F8000CE0107960E94DE170E94A303BE01695F8F
:100F90007F4FC8010E942616CE0107960E944B166D
:100FA00002C00E948A04C8012C960FB6F894DEBFD6
:100FB0000FBECDBFDF91CF911F910F91089580910A
:100FC0003902882381F081E0809338026DEB71E073
:100FD00080E092E00E9492150E94A30340E060E04E
:100FE00080E00C9456020C948A0480913802882385
:100FF000A9F01092380267EC71E080E092E00E9464
:1010000092150E94A3038FEF8093B4008093B300E6
:1010100088BD87BD40E060E00C9456020C948A04C1
:10102000CF93DF9300D000D000D0CDB7DEB745E03E
:1010300050E064E372E083E099E00E94DC0160919B
:10104000270270912802809125029091260286172E
:10105000970709F45FC06F3F710531F04AE050E037
:1010600080E092E00E941016E0912702F0912802A1
:101070003197E031F10508F047C0EC5CFF4F0C946C
:101080000A1B0E94C80346C00E943F0543C00E943D
:10109000590540C00E9478053DC00E94A6043AC090
:1010A0000E94210537C08FE192E00E94CB18CB014E
:1010B0000E9486052FC00E94C7052CC08FE192E0D8
:1010C0000E94D6180E940B0625C00E94560622C018
:1010D0008FE192E00E94D6180E94A8061BC00E94D1
:1010E000F30618C00E94450715C0CE0101960E9464
:1010F0006307CE0101960E944B160CC00E94DF07C9
:1011000009C00E94F50706C08FEF90E09093280277
:1011100080932702809127029091280290932602C3
:101120008093250226960FB6F894DEBF0FBECDBF82
:10113000DF91CF9108950E9465028091380281115C
:1011400003C00E941008F9CF0E94D90A40E060E075
:1011500080E00E94560262ED71E080E092E00E9421
:1011600092156AE570E08AE590E00E944B0260E625
:1011700079E080E090E00C94A5136AE171E08BE3E4
:1011800092E00E94B9166AE171E08FE192E00E945C
:10119000B91620E04DE06CE080E092E00C94D511AF
:1011A0000C943801CF93DF93D1E080E092E00E946D
:1011B000AB10892B79F080E092E00E941D10C82FBF
:1011C000682F8BE392E00E94EE17CA3071F7D0933C
:1011D0003A02EBCFDF91CF910895CF93DF93EC01EB
:1011E0000E94D20880913A02882351F0FE010995AD
:1011F0006AE171E08BE392E00E94111710923A02CB
:10120000DF91CF91089586E491E00C94ED080F935F
:101210001F93CF93DF938C01EB010E94D71D88832E
:10122000C80101960E94D71D8983CE01DF91CF911D
:101230001F910F910895FC01118210821382128276
:10124000158214821682683068F489E290E09183F6
:1012500080838BE290E0938382838AE290E095839F
:1012600084831FC06E3070F483E290E091838083AA
:1012700085E290E09383828384E290E09583848387
:1012800068500FC0653198F486E290E091838083C6
:1012900088E290E09383828387E290E09583848361
:1012A0006E5081E001C0880F6A95EAF78683089541
:1012B000E0914F02F0915002828193810895E09174
:1012C0004F02F0915002848195810895FF920F930F
:1012D0001F93CF93DF938C01F12C80E0C0E0D0E02E
:1012E000F8019285F916D8F5F801628173816115CC
:1012F000710539F06F0D711D6F0D711DCE010E94CA
:101300000709F801668177816115710541F06F0D5C
:10131000711D6F0D711DCE0102960E940709F80123
:10132000648175816115710541F06F0D711D6F0D3F
:10133000711DCE0104960E940709F8016085718530
:101340006115710541F06F0D711D6F0D711DCE019D
:1013500006960E9407092896F39481E0C1CFDF9199
:10136000CF911F910F91FF90089580914F0290911E
:1013700050020C946609CF92DF92EF92FF920F9386
:101380001F93CF93DF9300D000D01F92CDB7DEB76D
:101390005C834B838B01BE016F5F7F4FC8010E944E
:1013A000070929813A818B819C8128173907D1F05F
:1013B0007E0183E0E80EF11C6E01E5E0CE0ED11C4B
:1013C000F70161917F01C8016D830E94D71D6D8176
:1013D000681719F0C8010E94DF1D0F5F1F4FEC1442
:1013E000FD0471F70F900F900F900F900F90DF9109
:1013F000CF911F910F91FF90EF90DF90CF900895C4
:10140000BF92CF92DF92EF92FF920F931F93CF93F1
:10141000DF93EC01E12CF12CB12C00E010E08A8587
:10142000B81608F048C08A819B81009749F0FC01FA
:10143000EE0DFF1D40815181B801CE010E94BB0914
:101440008E819F81009759F0FC01EE0DFF1D4081B8
:101450005181B8016E5F7F4FCE010E94BB098C8124
:101460009D81009759F0FC01EE0DFF1D40815181D7
:10147000B8016C5F7F4FCE010E94BB09680186E016
:10148000C80ED11C88859985009749F0FC01EE0DA6
:10149000FF1D40815181B601CE010E94BB09D98256
:1014A000C882085F1F4F82E0E80EF11C8FE7B81674
:1014B00021F0B394B4CF81E001C080E0DF91CF91FF
:1014C0001F910F91FF90EF90DF90CF90BF90089504
:1014D00080914F02909150020C94000A0F931F9339
:1014E000CF93DF93CDB7DEB727970FB6F894DEBF63
:1014F0000FBECDBF8C01FC011182108213821282BB
:10150000158214821782168211861086613118F0B6
:1015100080E1828702C0FC016287F801228B642F80
:10152000CE0101960E941B098F81F80183878B8170
:101530009C81958784878D819E8197878687279652
:101540000FB6F894DEBF0FBECDBFDF91CF911F91D4
:101550000F910895FC01A685B785109779F08C91BD
:101560009385892B8C93A485B5859C9183858095E3
:1015700089238C9388EC90E00C94CD13089580918E
:101580004F02909150020C94AA0AFC01A685B785DF
:10159000109771F08C919385892B8C93A485B585D8
:1015A0008C919385892B8C9388EC90E00C94CD13CF
:1015B000089580914F02909150020C94C50AFC014D
:1015C00020E08285281770F5A281B381109741F041
:1015D00080899189A20FB11DA20FB11D8D939C939B
:1015E000A681B781109741F080899189A20FB11D22
:1015F000A20FB11D8D939C93A481B581109731F0FA
:10160000A20FB11DA20FB11D1D921C92A085B18524
:10161000109731F0A20FB11DA20FB11D1D921C92A7
:101620002F5FCFCF089580914F02909150020C947C
:10163000DF0A5F926F927F928F929F92AF92BF92DA
:10164000CF92DF92EF92FF920F931F93CF93DF938E
:10165000CDB7DEB727970FB6F894DEBF0FBECDBF6C
:101660007C014B01642F3901402F20E00E946E0A5B
:1016700087010D5B1F4FF80110826701F4E4CF0E64
:10168000D11CF60110825701F5E4AF0EB11CF50133
:101690001082F701718A608A512CF70182855816F1
:1016A00050F5652C712CF401E60DF71D6081CE011B
:1016B00001960E941B092F81F701E60DF71D238B70
:1016C00089819A81F301EE0FFF1FEE0DFF1D94A398
:1016D00083A38332910511F4F80108C08632910585
:1016E00011F4F60103C0899721F4F5018081822B62
:1016F00080835394D2CF27960FB6F894DEBF0FBEE7
:10170000CDBFDF91CF911F910F91FF90EF90DF90B0
:10171000CF90BF90AF909F908F907F906F905F9091
:101720000895AF92BF92CF92DF92EF92FF920F9304
:10173000CF93DF931F92CDB7DEB77C016A01022FF2
:1017400086E490E069830E94531B5C0169810097E5
:1017500059F09601462FB7010E94190BB092500222
:10176000A0924F0281E001C080E00F90DF91CF9105
:101770000F91FF90EF90DF90CF90BF90AF900895C2
:101780007F928F929F92AF92BF92CF92DF92EF9211
:10179000FF920F931F93CF93DF93EC015B016C01DA
:1017A00083E4C80ED11CF60180807E01F4E4EF0EC4
:1017B000F11CF70170808E010B5B1F4FF8019080C8
:1017C00080E09A85891748F4F501E80FF11DE80FCC
:1017D000F11D118210828F5FF4CF84B1F6019081E8
:1017E000892B84B987B1F7019081892B87B98AB198
:1017F000F8019081892B8AB985B1F6019081892BF6
:1018000085B988B1F7019081892B88B98BB1F8012E
:101810009081892B8BB98AE090E00E94CD1394B11E
:10182000F60180818095892384B997B1F701808181
:101830008095892387B99AB1F801808180958923A1
:101840008AB995B1F60180818095892385B998B1CF
:10185000F70180818095892388B99BB1F801808147
:10186000809589238BB9E090B000D090B100809131
:10187000B00083608093B00082E08093B10040911B
:10188000B20080E090E0288939898217930720F51B
:10189000C090B2002C2D241B820F911D03B10811A2
:1018A00032C0F6B0F7102FC029B129112CC010C0DA
:1018B000212F30E0A901440F551FF501E40FF51F5A
:1018C00060817181672B21F11F5F2A85121780F3D8
:1018D0007F2C802E4C2DD7CFE092B000D092B1005B
:1018E00020E08A85281730F5F501E20FF11DE20F9F
:1018F000F11D80819181892B21F4888999899183B7
:1019000080832F5FEECF03B1F6B099B010E0DDCF4A
:10191000DE01A40FB51F93960D90BC91A02D4C91A4
:10192000DE01A20FB31F53962C91422369F69183D7
:101930008083CACFDF91CF911F910F91FF90EF90DD
:10194000DF90CF90BF90AF909F908F907F90089541
:10195000EF92FF920F931F93CF93DF93FC019B01B4
:10196000F0907C0000917A0047B118B180917A0024
:1019700086FDFCCF80E09285891748F4D901A80F35
:10198000B11DA80FB11D1D921C928F5FF4CF97B1AE
:1019900084A18095892387B998B184A180958923F2
:1019A00088B987E880937A00E12C83A1E81610F0CB
:1019B000E12C29C050E08285581718F5A52FB0E01A
:1019C000EF01CA0FDB1F8B89806480937C008091BC
:1019D0007A00806480937A0080917A0086FDFCCF43
:1019E0006091780070917900AA0FBB1FA20FB31FFE
:1019F0008D919C911197860F971F8D939C935F5F9C
:101A0000DACFE394D2CF8285E816A0F4E901CE0DB7
:101A1000D11DCE0DD11D63A170E0CB0195958795A9
:101A2000A881B9818A0F9B1F0E94A11A79836883BC
:101A3000E394E9CFF0927C0000937A0018B947B99B
:101A4000DF91CF911F910F91FF90EF900895DF925A
:101A5000EF92FF920F931F93CF93DF93CDB7DEB733
:101A6000A0970FB6F894DEBF0FBECDBF8C017B01EF
:101A7000D42E8FEF840F823018F4C8010E94C50A5B
:101A8000D80152968C91B701811110C0C8010E94F3
:101A9000C00BC8010E94AA0AB2E0DB123AC0BE0124
:101AA0006F5F7F4FC8010E94C00B0FC0C8010E942A
:101AB000A80CC8010E94AA0AE2E0DE122AC0BE01F8
:101AC0006F5F7F4FC8010E94A80C40E0F80182853B
:101AD0004817F8F4842F90E0880F991FF701E80F5A
:101AE000F91F21E030E02C0F3D1F820F931FD8011A
:101AF00050962D913C915197DC018D919C91281B22
:101B0000390B80819181820F931F918380834F5F76
:101B1000DDCFA0960FB6F894DEBF0FBECDBFDF912C
:101B2000CF911F910F91FF90EF90DF900895462F76
:101B3000BC0180914F02909150020C94270D2F927E
:101B40003F925F926F927F928F929F92AF92BF92DD
:101B5000CF92DF92EF92FF920F931F93CF93DF9379
:101B6000CDB7DEB7C056D1090FB6F894DEBF0FBEB1
:101B7000CDBF8C014B015A01522EDA018D919C91FF
:101B8000892B31F0F40180819181892BF1F424C0FB
:101B9000D8011A968C9190E0880F991F0E94531BD0
:101BA000F50191838083009709F4B1C0FC0120E026
:101BB00030E0D8011A968C9190E02817390714F775
:101BC000119211922F5F3F4FF4CFE12CF12C6E0157
:101BD000B1E2CB0ED11C21C0F801828590E0880FC4
:101BE000991F0E94531BD4018D939C93009709F475
:101BF0008EC0FC0120E030E0D8011A968C9190E074
:101C00002817390714F7D80150968D919C91519758
:101C1000819391932F5F3F4FEFCF452DBE016F5BB7
:101C20007F4FC8010E94270DF8016284712CFE01CC
:101C3000EF5BFF4FC6019E012F5F3F4F190120E070
:101C400030E0261537054CF5E114F10489F0DC018C
:101C50006D917C91408151816417750748F0D101E5
:101C60006D917C91408151814617570748F00DC016
:101C700040815181DC014D935C93E114F10479F7CB
:101C800040815181D1014D935C932F5F3F4FB2E072
:101C90002B0E311C32960296D4CFEFEFEE1AFE0ACD
:101CA000FAE0EF16F10409F0B8CF9E012F5F3F4F25
:101CB0007901360180E090E0F801228530E082175A
:101CC00093072CF5D7012D913D917D01B3016C193E
:101CD0007D09D501ED91FC91E60FF71F40815181FF
:101CE0004217530710F431832083F301219131917E
:101CF0003F01D401ED91FC91E60FF71F4081518126
:101D00002417350710F4318320830196D5CFC05AAC
:101D1000DF4F0FB6F894DEBF0FBECDBFDF91CF917E
:101D20001F910F91FF90EF90DF90CF90BF90AF90F9
:101D30009F908F907F906F905F903F902F9008952D
:101D40001F93CF93DF93EC01162F8FEF860F823016
:101D500018F0662369F019C021E0AE014C5F5F4FB7
:101D6000BE016E5F7F4FCE010E949F0D123069F45D
:101D7000AE01485F5F4FBE016A5F7F4F20E0CE013A
:101D8000DF91CF911F910C949F0DDF91CF911F9107
:101D90000895682F80914F02909150020C94A00EEC
:101DA000BF92CF92DF92EF92FF920F931F93CF9348
:101DB000DF93EC018B01B42E842F8D7F51F48E8143
:101DC0009F81892B09F497C088859985892B09F40F
:101DD00092C08FEF8B0D823050F48A819B81892BCA
:101DE00009F489C08C819D81892B09F484C04B2D15
:101DF000B801CE010E94270D780100E010E0C12C4F
:101E0000D12C8A8590E0C816D9060CF074C081E008
:101E1000B8120AC0EC81FD81E00FF11F0190F08142
:101E2000E02DAA81BB810DC08E819F8128853985D7
:101E3000B1100CC0F901E00FF11F0190F081E02D0D
:101E4000DC01A00FB11F8D919C9128C0FC01E00F17
:101E5000F11F40815181EA81FB81E00FF11F8081F8
:101E60009181E889F9894817590710F4CF0104C016
:101E70008E0F9F1F841B950BD901A00FB11F2D91B1
:101E80003C91AC81BD81A00FB11F4D915C91241795
:101E9000350720F0E40FF51FE21BF30BE81BF90BED
:101EA000A9F0D7012D913C9140E050E0281B390B5F
:101EB00041095109A8EEB3E00E94101B9F0140E0C8
:101EC00050E00E94EB1A37FD0AC002C020E030E06B
:101ED000293EB3E03B072CF028EE33E002C020E0BF
:101EE00030E0F701219331937F01FFEFCF1ADF0A32
:101EF0000E5F1F4F86CFDF91CF911F910F91FF9003
:101F0000EF90DF90CF90BF9008952F923F924F9225
:101F10005F926F927F928F929F92AF92BF92CF9279
:101F2000DF92EF92FF920F931F93CF93DF93EC0119
:101F30008B01822E0E94D00E2A84E801412C512C64
:101F4000320100E010E0C12CD12C7601312C912C13
:101F500058EEA52E53E0B52E921421F1E991F99196
:101F6000882021F0C5018E1B9F0BFC01E93CF10587
:101F700024F4E333F10574F002C033243394DF0119
:101F8000A30192010E941B1BC60ED71EE81EF91E5C
:101F90000E0F1F1F939498EE490E93E0591E611C7B
:101FA000711CDACF31101EC0492D50E0415051094B
:101FB00024EF31E0429FC001439F900D529F900D4E
:101FC000112420914D0230914E0228173907B4F0A8
:101FD00088EE93E0489F9001499F300D589F300D47
:101FE00011240EC0980140E050E0C701B6010E94E4
:101FF000C91A30934E0220934D0202C020E030E017
:10200000C901DF91CF911F910F91FF90EF90DF9069
:10201000CF90BF90AF909F908F907F906F905F9088
:102020004F903F902F900895462F20E0BC01809163
:102030004F02909150020C94850F209193023091A1
:10204000940228173907B9F49091510280915202F5
:10205000981789F0E0915102F0E0ED5AFD4F808130
:102060002091510230E02F5F3F4F2F733327209391
:10207000510290E008958FEF9FEF08951F93CF9343
:10208000DF93DC015C968D919C915D97009749F4FC
:1020900081E090E013969C938E93129780E090E0FD
:1020A0003BC05196ED91FC91529750962C915097D0
:1020B000322F30951FB75E964C915E9741FB772784
:1020C00070F941FD6095F8944081772311F0422B1F
:1020D00001C043234083EC012197F1F748E0508190
:1020E00060FF02C0522B01C053235083EC012197A3
:1020F000F1F76695415099F78081772311F083239A
:1021000001C0822B80831FBF5C968D919C915D974F
:102110000197F1F781E090E0DF91CF911F91089551
:10212000089520919302309194022817390781F481
:102130009091510280915202981751F0E091510212
:10214000F0E0ED5AFD4F8081992787FD9095089525
:102150008FEF9FEF089520919302309194022817FA
:10216000390771F4809152022091510290E0805C15
:102170009F4F821B910960E470E00E94B51A089598
:1021800080E090E00895E0919302F0919402E817C6
:10219000F90769F4A389B4899C918589809589237D
:1021A0008C93109294021092930281E0089580E043
:1021B0000895CF93DF93EC018A8D9B8D892BF1F0ED
:1021C00080919302909194028C179D07B9F000972B
:1021D00011F00E94C3108E8D8E7F8E8F109252024E
:1021E00010925102D0939402C0939302EB89FC8920
:1021F00080819D89892B808381E001C080E0DF910F
:10220000CF9108951F920F920FB60F9211242F9322
:102210003F934F935F936F937F938F939F93AF936E
:10222000BF93EF93FF93E0919302F0919402309764
:1022300009F451C0868DA685B785958581FF04C0B8
:102240008C91892329F447C08C91892309F043C0DC
:10225000A389B4899C918589809589238C938689EB
:1022600097890197F1F7208D318DA685B785758502
:1022700058E040E0C9010197F1F7842F90E095956F
:102280008795482F6C91672309F04068515091F76A
:10229000868D81FD40958091520290E001968F736A
:1022A000992720915102281749F0A0915202B0E0DD
:1022B000AD5ABD4F4C938093520203C0868D81600E
:1022C000868F828D938D0197F1F7A389B4898C91C4
:1022D0009589892B8C93FF91EF91BF91AF919F913D
:1022E0008F917F916F915F914F913F912F910F90BF
:1022F0000FBE0F901F90189520EE31E0FC01318346
:1023000020830C94C3101F93CF93DF93EC01162FFF
:102310006E8D6695617081E06827812F0E94F814A8
:1023200061E0812F0E94BF14812F90E0FC01E456F0
:10233000FF4FE491E88BFC01E055FF4FE491F0E0A2
:10234000EE0FFF1FE253FF4F859194919A8B898B7B
:10235000DF91CF911F9108951F93CF93DF93EC01ED
:10236000162F60E0812F0E94BF148E8D81FD04C066
:1023700061E0812F0E94F8141C87812F90E0FC01FE
:10238000E456FF4FE491ED87FC01E055FF4FE491E7
:10239000F0E0EE0FFF1FEC53FF4F859194919F8764
:1023A0008E87DF91CF911F910895FF920F931F9316
:1023B000CF93DF93EC01F62E522F1B821A8208EE88
:1023C00013E020E030E00C831D832E833F8380EEFA
:1023D00091E0998388831F8A1E8A198E188E1B8E1E
:1023E0001A8E1D8E1C8E8E8D8E7F50FB81F98E8FE6
:1023F000642FCE010E9483116F2DCE01DF91CF910A
:102400001F910F91FF900C94AC11CF93DF93EC01CF
:102410009A01AB011B8E1A8E198E188E1F8A1E8A86
:1024200060E47BE48CE490E00E94EB1AC901243064
:10243000310520F0B9016350710902C061E070E01C
:102440007D8F6C8FEC85E63108F068C0B901769518
:1024500067956431710518F06351710902C061E03C
:1024600070E07F8B6E8B069718F0C901059702C04C
:1024700081E090E0998F888FC901880F991F820FA2
:10248000931F96958795969587958D30910510F0B9
:102490000C9702C081E090E09B8F8A8F20916800AA
:1024A000E83050F091E0EE3008F490E081E001C0B7
:1024B000880F9A95EAF701C084E0822B8093680028
:1024C0002C85283038F02E3040F0263148F48CE648
:1024D00090E008C08DE690E005C08BE690E002C079
:1024E00080E090E09C8B8B8B283030F481E001C041
:1024F000880F2A95EAF70DC0822F90E02E3010F455
:10250000089701C00E9791E001C0990F8A95EAF7EC
:10251000892F8D8B8C8D9D8D0197F1F7CE01DF91E9
:10252000CF910C94D9102F928F939F932FB68091B7
:102530009D0290919E02019680939D0290939E022F
:1025400090E080919F02891F80939F029091970253
:102550009C5F909397028091960280519742C0F0C1
:10256000909397028093960280919802909199029D
:102570000196809398029093990290E080919A023C
:10258000891F80939A0280919B02891F80939B02EE
:102590002FBE9F918F912F901895E0E7F0E08081FA
:1025A0008E7F8083A0EBB0E08C9183608C93A1EB55
:1025B000B0E08C91807F8C938C9182608C93B89AE0
:1025C0008081816080837894089580919502811143
:1025D00005C081E0809395020C94CD1208950E946D
:1025E000E512E0E7F0E080818E7F808360919802C1
:1025F0007091990280919A0290919B0220812160B2
:10260000208308950C94EF12E091AB02F091AC029C
:1026100080E090E0309749F0029620813181820F6E
:10262000931F0280F381E02DF5CF08950F931F9340
:10263000CF93DF9300D0CDB7DEB78091A902909100
:10264000AA028E010F5F1F4F009729F40F5A124004
:102650001A8309830AC0081B190B1A8309830E9475
:102660000413800F911F9A83898389819A810F9027
:102670000F90DF91CF911F910F9108951F920F92AC
:102680000FB60F9211242F933F938F939F93AF9385
:10269000BF938091A1029091A202A091A302B09158
:1026A000A4023091A00226E6230F2D3728F029EE50
:1026B000230F0196A11DB11D2093A0028093A102BA
:1026C0009093A202A093A302B093A4028091A502CA
:1026D0009091A602A091A702B091A8020196A11D17
:1026E000B11D8093A5029093A602A093A702B09378
:1026F000A802BF91AF919F918F913F912F910F9021
:102700000FBE0F901F9018959FB7F8944091A502A7
:102710005091A6026091A7027091A80286B5A89B6D
:1027200006C08F3F21F04F5F5F4F6F4F7F4F9FBFBE
:102730002227342F452F562F280F311D411D511DA3
:10274000A3E0B0E00E94101B0895CF92DF92EF92B9
:10275000FF92CF93DF936B017C010E948413EB0106
:10276000C114D104E104F10489F00E94F1180E941F
:1027700084136C1B7D0B683E734090F381E0C81A94
:10278000D108E108F108C851DC4FEACFDF91CF91C1
:10279000FF90EF90DF90CF900895000000000000C0
:1027A00000008230910550F09C01220F331F220F50
:1027B000331F0797820F931F0197F1F708957894BD
:1027C00084B5826084BD84B5816084BD85B5826036
:1027D00085BD85B5816085BDEEE6F0E080818160D4
:1027E0008083E1E8F0E010828081826080838081D4
:1027F00081608083E0E8F0E0808181608083E1EBAC
:10280000F0E0808184608083E0EBF0E08081816093
:102810008083EAE7F0E08081846080838081826049
:102820008083808181608083808180688083109232
:10283000C10008958E3008F08E50877020911701E6
:1028400090E4299F90011124822B80937C00809139
:102850007A00806480937A0080917A0086FDFCCFB4
:10286000809178002091790090E0922B08951F9339
:10287000CF93DF93182FEB0161E00E94BF142097E4
:1028800011F460E004C0CF3FD10539F461E0812F3D
:10289000DF91CF911F910C94F814E12FF0E0E857ED
:1028A000FF4FE491E330F9F048F4E130B9F0E23061
:1028B000A1F584B5806284BDC8BD34C0E730E9F0BD
:1028C000E83019F1E43049F580918000806280930E
:1028D0008000D0938B00C0938A0024C084B58068A8
:1028E00084BDC7BD1FC08091800080688093800038
:1028F000D0938900C093880015C08091B000806893
:102900008093B000C093B3000DC08091B00080628E
:102910008093B000C093B40005C0C038D1050CF05E
:10292000B5CFAFCFDF91CF911F910895833081F064
:1029300028F4813099F08230A1F008958730A9F011
:102940008830B9F08430D1F4809180008F7D03C04D
:10295000809180008F7780938000089584B58F7771
:1029600002C084B58F7D84BD08958091B0008F77BB
:1029700003C08091B0008F7D8093B0000895CF9305
:10298000DF9390E0FC01E456FF4F2491FC01E055F9
:10299000FF4F8491882349F190E0880F991FFC0133
:1029A000E852FF4FA591B49182539F4FFC01C5910E
:1029B000D4919FB7611108C0F8948C91209582231F
:1029C0008C93888182230AC0623051F4F8948C91F0
:1029D000322F309583238C938881822B888304C087
:1029E000F8948C91822B8C939FBFDF91CF910895A7
:1029F0000F931F93CF93DF931F92CDB7DEB7282F8E
:102A000030E0F901E857FF4F8491F901E456FF4F98
:102A10001491F901E055FF4F04910023C9F0882378
:102A200021F069830E9496146981E02FF0E0EE0F97
:102A3000FF1FE253FF4FA591B4919FB7F8948C917B
:102A4000611103C01095812301C0812B8C939FBF1E
:102A50000F90DF91CF911F910F910895CF92DF9248
:102A6000EF92FF920F931F93CF93DF937C016A0144
:102A7000EB0100E010E00C151D0571F06991D70124
:102A8000ED91FC910190F081E02DC7010995892B12
:102A900019F00F5F1F4FEFCFC801DF91CF911F914A
:102AA0000F91FF90EF90DF90CF9008956115710521
:102AB00081F0DB010D900020E9F7AD014150510993
:102AC000461B570BDC01ED91FC910280F381E02D58
:102AD000099480E090E00895DC01ED91FC91DB0128
:102AE00014964D915C9115976D917C910280F381C4
:102AF000E02D09940C9456156CEE71E00C9456156B
:102B00000F931F93CF93DF93EC010E946C158C0100
:102B1000CE010E947C15800F911FDF91CF911F91F4
:102B20000F9108950F931F93CF93DF93EC010E94B1
:102B300056158C01CE010E947C15800F911FDF91EC
:102B4000CF911F910F9108958F929F92AF92BF9254
:102B5000CF92DF92EF92FF920F931F93CF93DF9369
:102B6000CDB7DEB7A1970FB6F894DEBF0FBECDBFCD
:102B70007C01C42EE52FCB01D22E19A221E02D1508
:102B800010F02AE0D22E8E010F5D1F4F8D2C912C5C
:102B9000A12CB12C6C2D7E2FA50194010E94C91A85
:102BA0008C2DD29E80191124015011098A3014F401
:102BB000805D01C0895CF8018083211531054105E4
:102BC000510521F0C22EE32FCA01E4CFB801C7019D
:102BD0000E945615A1960FB6F894DEBF0FBECDBF6A
:102BE000DF91CF911F910F91FF90EF90DF90CF90E9
:102BF000BF90AF909F908F9008952115310541F4BB
:102C0000DC01ED91FC910190F081E02D642F09949D
:102C10000C94A4159A01AB0160E070E00C94FD15D2
:102C20000F931F93CF93DF93EC019A01AB0160E008
:102C300070E00E94FD158C01CE010E947C15800F72
:102C4000911FDF91CF911F910F910895FC01DB013E
:102C50001182108213821282158214828D919C91AE
:102C600011979183808312968D919C9113979383F2
:102C7000828314968D919C911597958384831196E8
:102C80001C921E9213961C921E92129715961C92DD
:102C90001E9214970895FC01808191810C94EB1B86
:102CA000CF93DF93EC0188819981009711F00E9406
:102CB000EB1B198218821D821C821B821A82DF91F3
:102CC000CF9108950F931F93CF93DF93EC018B0166
:102CD0006F5F7F4F888199810E947A1C009731F045
:102CE000998388831B830A8381E001C080E0DF91A0
:102CF000CF911F910F910895CF93DF93EC018881BD
:102D00009981892B29F08A819B818617970760F426
:102D1000CE010E946216882341F08C819D81892B0F
:102D200019F4E881F981108281E0DF91CF91089553
:102D3000EF92FF920F931F93CF93DF93EC017B01F0
:102D40008A01BA010E947C16811104C0CE010E9442
:102D5000501607C01D830C83B701888199810E949A
:102D6000801DCE01DF91CF911F910F91FF90EF90C9
:102D70000895FC011182108213821282158214823E
:102D80006115710559F0FB0101900020E9F7AF01D1
:102D900041505109461B570B0C94981608950F93F8
:102DA0001F93CF93DF938C01EB01FC018081918114
:102DB000009799F0428153812C813D81421753073E
:102DC00050F0688179810E94801D8C819D81F8017D
:102DD0009583848313C00E94EB1B88819981F8013D
:102DE000918380838A819B81938382838C819D815F
:102DF00095838483198218821B821A821D821C8209
:102E0000DF91CF911F910F910895CF93DF93EC0144
:102E10008617970711F00E94CF16CE01DF91CF9150
:102E20000895CF93DF93EC016115710561F0FB010B
:102E300001900020E9F7AF0141505109461B570BA3
:102E40000E94981602C00E945016CE01DF91CF91C9
:102E500008950F931F93CF93DF93CDB7DEB72997D4
:102E60000FB6F894DEBF0FBECDBF8C01862FF801E0
:102E700011821082138212821582148250E0BE01E8
:102E80006F5F7F4F90E00E94B21DBE016F5F7F4F6A
:102E9000C8010E94111729960FB6F894DEBF0FBE25
:102EA000CDBFDF91CF911F910F9108950F931F9385
:102EB000CF93DF93CDB7DEB762970FB6F894DEBF3E
:102EC0000FBECDBF8C01CB01F8011182108213829D
:102ED00012821582148250E0BE016F5F7F4F0E9404
:102EE000871DBE016F5F7F4FC8010E941117629658
:102EF0000FB6F894DEBF0FBECDBFDF91CF911F910B
:102F00000F910895EF92FF920F931F93CF93DF934A
:102F1000CDB7DEB7A1970FB6F894DEBF0FBECDBF19
:102F20007C01CB01BA01F701118210821382128257
:102F30001582148242E0420F8E010F5F1F4F0E94E4
:102F4000321BBC01C7010E941117A1960FB6F8945D
:102F5000DEBF0FBECDBFDF91CF911F910F91FF90CC
:102F6000EF900895EF92FF920F931F93CF93DF930B
:102F7000EC017B010C811D816115710511F480E06C
:102F800016C04115510591F0040F151FB8010E949C
:102F90007C168823A1F3288139818C819D81B7011A
:102FA000820F931F0E94801D1D830C8381E0DF919F
:102FB000CF911F910F91FF90EF90089561157105CA
:102FC00059F0FB0101900020E9F7AF014150510990
:102FD000461B570B0C94B21780E00895CF93DF93F4
:102FE00000D0CDB7DEB769831A8241E050E0BE0160
:102FF0006F5F7F4F0E94B2170F900F90DF91CF91BC
:103000000895CF93DF93EC01FB01448155816081EA
:1030100071810E94B217811103C0CE010E94501627
:10302000CE01DF91CF910895FC0124813581621793
:10303000730748F480819181009729F0FC01E60F25
:10304000F71F8081089580E008950C941418BF92B2
:10305000CF92DF92EF92FF920F931F93CF93DF9364
:103060006C017B01EA0189012417350720F48D2FBB
:10307000E901042F182F6AE171E0C6010E94B91618
:10308000D70114968D919C911597C817D907C8F44C
:103090008017910708F48C01D701ED91FC911197ED
:1030A000E00FF11FB08010826D917C916C0F7D1F3D
:1030B000C6010E941117D701ED91FC91E00FF11F9D
:1030C000B082C601DF91CF911F910F91FF90EF90D9
:1030D000DF90CF90BF900895AF92BF92CF92DF92D2
:1030E000EF92FF920F931F93CF93DF937C01DC014C
:1030F000CD90DC901197C114D10409F441C014960D
:10310000CD91DC9115972097D9F156018501BFEF3C
:10311000AB1ABB0AF8018081992787FD90950E9420
:103120006F1D892B99F72197CC0DDD1D888199277B
:1031300087FD90950E946F1D892B91F4AE014F5F22
:103140005F4F401B510BD70115965C934E9314971C
:10315000C016D10650F4B801C6010E94771D05C003
:10316000C017D10758F32197E1CFD701ED91FC911A
:10317000119714968D919C911597E80FF91F108265
:10318000DF91CF911F910F91FF90EF90DF90CF9043
:10319000BF90AF900895FC0180819181009711F05C
:1031A0000C94481D60E070E0CB010895FC01808123
:1031B0009181009711F00C94441D60E070E0CB0108
:1031C000089508950E94DF130E94E1180E949B0851
:1031D000C0E0D0E00E94A1032097E1F30E9400002C
:1031E000F9CF08955058BB27AA270ED00DC1FED0A5
:1031F00030F003D120F031F49F3F11F41EF4F3C0FE
:103200000EF4E095E7FBE9C0E92F0FD180F3BA1780
:10321000620773078407950718F071F49EF527C1BC
:103220000EF4E0950B2EBA2FA02D0B01B9019001E1
:103230000C01CA01A0011124FF27591B99F0593F25
:1032400050F4503E68F11A16F040A22F232F342F6D
:103250004427585FF3CF469537952795A795F040BB
:103260005395C9F77EF41F16BA0B620B730B840BD0
:10327000BAF09150A1F0FF0FBB1F661F771F881F88
:10328000C2F70EC0BA0F621F731F841F48F48795E0
:1032900077956795B795F7959E3F08F0B3CF9395CF
:1032A000880F08F09927EE0F97958795089571D0AC
:1032B00008F481E0089504D06894B111D9C008954C
:1032C000BCD088F09F5790F0B92F9927B751A0F044
:1032D000D1F0660F771F881F991F1AF0BA95C9F7AA
:1032E00012C0B13081F0C3D0B1E00895C0C0672FE3
:1032F000782F8827B85F39F0B93FCCF3869577955A
:103300006795B395D9F73EF4909580957095619542
:103310007F4F8F4F9F4F0895E89409C097FB3EF46D
:1033200090958095709561957F4F8F4F9F4F992312
:10333000A9F0F92F96E9BB279395F6958795779590
:103340006795B795F111F8CFFAF4BB0F11F460FF50
:103350001BC06F5F7F4F8F4F9F4F16C0882311F0A8
:1033600096E911C0772321F09EE8872F762F05C0BC
:10337000662371F096E8862F70E060E02AF09A9557
:10338000660F771F881FDAF7880F9695879597F94C
:103390000895990F0008550FAA0BE0E8FEEF1616E6
:1033A0001706E807F907C0F012161306E407F50739
:1033B00098F0621B730B840B950B39F40A2661F0AD
:1033C000232B242B252B21F408950A2609F4A14050
:1033D000A6958FEF811D811D089597F99F6780E85D
:1033E00070E060E008959FEF80EC089500240A9457
:1033F0001616170618060906089500240A941216D0
:103400001306140605060895092E0394000C11F402
:10341000882352F0BB0F40F4BF2B11F460FF04C0AF
:103420006F5F7F4F8F4F9F4F089557FD9058440F08
:10343000551F59F05F3F71F04795880F97FB991F13
:1034400061F09F3F79F087950895121613061406D0
:10345000551FF2CF4695F1DF08C01616170618065D
:10346000991FF1CF86957105610508940895E89438
:10347000BB2766277727CB0197F908950BD0C4CFD8
:10348000B5DF28F0BADF18F0952309F0A6CFABCF4F
:103490001124EECFCADFA0F3959FD1F3950F50E032
:1034A000551F629FF001729FBB27F00DB11D639FF6
:1034B000AA27F00DB11DAA1F649F6627B00DA11D9C
:1034C000661F829F2227B00DA11D621F739FB00D42
:1034D000A11D621F839FA00D611D221F749F3327B2
:1034E000A00D611D231F849F600D211D822F762F4B
:1034F0006A2F11249F5750408AF0E1F088234AF048
:10350000EE0FFF1FBB1F661F771F881F9150504093
:10351000A9F79E3F510570F060CFAACF5F3FECF353
:10352000983EDCF3869577956795B795F795E7957F
:103530009F5FC1F7FE2B880F911D9695879597F990
:103540000895AA1BBB1B51E107C0AA1FBB1FA617EA
:10355000B70710F0A61BB70B881F991F5A95A9F73C
:1035600080959095BC01CD01089597FB072E16F428
:10357000009407D077FD09D00E94A11A07FC05D05E
:103580003EF4909581959F4F0895709561957F4F7A
:103590000895A1E21A2EAA1BBB1BFD010DC0AA1F94
:1035A000BB1FEE1FFF1FA217B307E407F50720F0AC
:1035B000A21BB30BE40BF50B661F771F881F991F27
:1035C0001A9469F760957095809590959B01AC0170
:1035D000BD01CF010895052E97FB1EF400940E94B3
:1035E000021B57FD07D00E94C91A07FC03D04EF4F6
:1035F0000C94021B50954095309521953F4F4F4FAD
:103600005F4F089590958095709561957F4F8F4F8E
:103610009F4F0895EE0FFF1F0590F491E02D099440
:103620000E94231BA59F900DB49F900DA49F800D19
:10363000911D11240895B7FF0C94101B0E94101BBC
:10364000821B930B0895A29FB001B39FC001A39F5B
:10365000700D811D1124911DB29F700D811D1124CB
:10366000911D0895EF920F931F93CF93DF93E8017D
:1036700047FF02C034E101C034E0E42FFF27E7FD3B
:10368000F095F7FF03C0F195E195F109E32E022FC4
:103690002E2FAE010E94ED1DCE01DF91CF911F9123
:1036A0000F91EF900895CF93DF938230910510F43E
:1036B00082E090E0E091AB02F091AC0220E030E0DB
:1036C000A0E0B0E0309739F14081518148175907A7
:1036D000B8F04817590771F482819381109729F047
:1036E00013969C938E9312972CC09093AC02809368
:1036F000AB0227C02115310531F04217530718F0EE
:10370000A901DB0101C0EF019A01BD01DF010280C7
:10371000F381E02DD7CF21153105F9F0281B390BA6
:103720002430310580F48A819B816115710521F077
:10373000FB019383828304C09093AC028093AB021D
:10374000FE01329644C0FE01E20FF31F8193919374
:1037500022503109398328833AC02091A90230913F
:10376000AA02232B41F420910201309103013093EE
:10377000AA022093A9022091000130910101211594
:10378000310541F42DB73EB7409104015091050138
:10379000241B350BE091A902F091AA02E217F3076E
:1037A000A0F42E1B3F0B2817390778F0AC014E5FB1
:1037B0005F4F2417350748F04E0F5F1F5093AA0242
:1037C0004093A9028193919302C0E0E0F0E0CF0121
:1037D000DF91CF910895CF93DF93009709F487C0CD
:1037E000FC01329713821282C091AB02D091AC02DD
:1037F000209781F420813181280F391F8091A902FF
:103800009091AA028217930779F5F093AA02E093A8
:10381000A9026DC0DE0120E030E0AE17BF0750F412
:1038200012964D915C9113979D014115510509F137
:10383000DA01F3CFB383A28340815181840F951FB6
:103840008A179B0771F48D919C911197840F951F96
:1038500002969183808312968D919C911397938306
:1038600082832115310529F4F093AC02E093AB0279
:103870003EC0D9011396FC93EE9312974D915D9142
:10388000A40FB51FEA17FB0779F480819181840F9B
:10389000951F0296D90111969C938E9382819381F4
:1038A00013969C938E931297E0E0F0E08A819B81BF
:1038B000009719F0FE01EC01F9CFCE0102962881A4
:1038C0003981820F931F2091A9023091AA022817F3
:1038D000390769F4309729F41092AC021092AB02C8
:1038E00002C013821282D093AA02C093A902DF9170
:1038F000CF910895A0E0B0E0E0E8FCE10C94D52180
:10390000EC01CB01209719F40E94531BB8C0FE01B3
:10391000E60FF71F9E0122503109E217F30708F462
:10392000ACC0D9010D911C91119706171707B8F07B
:103930000530110508F49FC0A801445051094617ED
:10394000570708F498C002501109061B170B019382
:1039500011936D937C93CF010E94EB1B8CC05B0194
:10396000A01AB10A4E01800E911EA091AB02B09137
:10397000AC02612C712C60E070E0109709F449C032
:10398000A815B905C9F5ED90FC901197670142E0C3
:10399000C40ED11CCA14DB0478F147018A189B08B5
:1039A000640142E0C40ED11C1296BC90129713968B
:1039B000AC91B5E0CB16D10440F0B282A3839182E2
:1039C0008082D9018D939C9309C00E5F1F4F0E0D0D
:1039D0001F1DF90111830083EB2DFA2F611571056D
:1039E00031F0DB011396FC93EE93129744C0F093F1
:1039F000AC02E093AB023FC06D917C9111976616CB
:103A0000770608F43B01BD0112960D90BC91A02DE4
:103A1000B4CF6091A9027091AA0268157905E9F402
:103A200068167906D0F440910001509101014115CA
:103A3000510541F44DB75EB76091040170910501E5
:103A4000461B570BE417F507C0F4F093AA02E09366
:103A5000A902F901918380830EC00E94531B7C014F
:103A6000009759F0A801BE010E94771DCE010E9467
:103A7000EB1BC70104C0CE0102C080E090E0CDB7CF
:103A8000DEB7EEE00C94F121662777270C946B1FCC
:103A90001F93FC0199278827BC01E89411911032EB
:103AA000E9F3193010F01E30C8F31B3251F01D320B
:103AB00049F4689406C00E949D1D610F711D811D0F
:103AC000911D119110531A30B0F33EF490958095EA
:103AD000709561957F4F8F4F9F4F1F910895911162
:103AE00035C4803219F089508550D0F70895FB0114
:103AF000DC0102C001900D9241505040D8F708956A
:103B0000FB01DC0101900D920020E1F708954532A0
:103B1000510520F4423010F00C94921DFB011082EC
:103B2000CB010895BB274A3031F4992322F4BDE23A
:103B3000909581959F4F0C94BE1D592F482F372F7C
:103B4000262F660F771F881F991F660F771F881F04
:103B5000991F620F731F841F951F660F771F881FA1
:103B6000991F08954532510520F4423010F00C940D
:103B7000BD1DFB011082CB010895BB27FB0155271A
:103B8000AA27880F991FAA1FA41710F0A41B8395BA
:103B90005051B9F7A05DAA3308F0A95DA193009731
:103BA00079F7B111B1931192CB010C94C121F9991C
:103BB000FECF92BD81BDF89A992780B50895262F32
:103BC000F999FECF1FBA92BD81BD20BD0FB6F89402
:103BD000FA9AF99A0FBE019608956F927F929F927A
:103BE000AF92BF92CF92DF92EF92FF920F931F930B
:103BF000CF93DF93CDB7DEB729970FB6F894DEBF2A
:103C00000FBECDBF6A01B22E102F0C3320F4FF245B
:103C1000F394F00E02C04CE3F42E0F2D27E0AE011A
:103C20004F5F5F4F0E94CE207981272F297021306E
:103C300031F0E1FC06C0E0FC06C060E005C06DE2CA
:103C400003C06BE201C060E2AE2DA07173FF36C00D
:103C5000662311F084E001C083E08B1510F4B81ADC
:103C600001C0B12CA1110BC0F6018B2D90E288236D
:103C700019F091938150FBCFCB0CD11CB12C662352
:103C800031F0F601608396012F5F3F4F6901C60155
:103C90000396E2FE05C02EE4F601208331E404C061
:103CA0002EE6F601208331E631832283FC012B2DA1
:103CB00030E22223F1F131932150FBCF72FF40C05B
:103CC000662311F084E001C083E08B1510F4B81A6C
:103CD00001C0B12CA1110BC0F6018B2D90E28823FD
:103CE00019F091938150FBCFCB0CD11CB12C6623E2
:103CF00031F0F601608396012F5F3F4F6901C601E5
:103D00000396E2FE07C029E4F60120832EE4218316
:103D100026E406C029E6F60120832EE6218326E666
:103D20002283FC012B2D30E2222319F03193215004
:103D3000FBCFFC01EB0DF11D10828EEF9FEFB7C0A2
:103D4000B1E0611101C0B0E04B2F50E01816190628
:103D500024F49C012F5F3F4F02C021E030E0240F8C
:103D6000351F112329F0412F50E04F5F5F4F02C0F4
:103D700040E050E0420F531F2B2D30E04217530715
:103D800014F4B41A01C0B12C2E2D287159F4F60187
:103D90002B2D30E2222319F031932150FBCFCB0C95
:103DA000D11CB12CBB2331F0F601608396012F5F4B
:103DB0003F4F6901A1110BC0F6012B2D30E32223E7
:103DC00019F031932150FBCFCB0CD11CB12CF80E44
:103DD0000A81372F3071A32E74FF03C0013309F419
:103DE000FA941F142CF42F2D293018F028E001C06C
:103DF00021E0682F392F97FF02C060E030E0462FA6
:103E0000532F612C712C3EE2932EBC01621B710971
:103E10009B01DC01A41BB50BE1E0F0E0EC0FFD1F02
:103E2000AE0FBF1FE12EF12CF194E194F1084F3F4A
:103E3000FFEF5F0731F4F6019082B6016F5F7F4FAD
:103E40006B01841795074CF02417350734F4BD0136
:103E5000660D771DFB01118101C010E3415051092E
:103E6000FFEF6F1A7F0AB6016F5F7F4F4E155F0538
:103E700024F0F60110836B01DACF4817590739F4A3
:103E8000063320F4053319F4A11001C011E3F60143
:103E90001083FB018B2D90E2882319F091938150C0
:103EA000FBCFFB01EB0DF11D108280E090E0299625
:103EB0000FB6F894DEBF0FBECDBFDF91CF911F913B
:103EC0000F91FF90EF90DF90CF90BF90AF909F90B9
:103ED0007F906F900895A0E0B0E0E1E7FFE10C94DF
:103EE000D7218B016115710521F0DB018C931196AF
:103EF0009C93EC015E01BFEFAB1ABB0A7501C88051
:103F00008C2D90E00E946F1D892B11F0E501F2CFFE
:103F1000EDE2CE1208C07E01F2E0EF0EF11CC98086
:103F2000DD24D39409C02BE2C21205C07E0142E019
:103F3000E40EF11CC980D12CE701219743E050E049
:103F40006AEE70E0CE010E94A921892BC1F423966C
:103F500045E050E065EE70E0CE010E94A921892B7A
:103F600009F425960115110519F0D801CD93DC93BC
:103F7000D11006C160E070E080E89FE70AC143E02D
:103F800050E062EE70E0CE010E94A921892B59F425
:103F90000115110509F4F9C0B2E0EB0EF11CF801AE
:103FA000F182E082F2C0F70160E070E0CB01C0E096
:103FB000D0E07F01A0EDAA2EAC0C29E02A1530F14B
:103FC0004D2D4260B42E2D2D2870D2FE04C021113B
:103FD00025C0219623C021112197A5E0B0E09B01C7
:103FE000AC010E94101B660F771F881F991F6A0D76
:103FF000711D811D911D6839A9E97A078A07A9E118
:104000009A0760F0BD2DB660BB2E08C02EEFA2123D
:104010000AC0D3FC50C04D2D4860B42E3196D70154
:10402000CC90DB2CC6CF2C2D2F7D253409F043C03E
:10403000A081AD3241F4BD2DB061DB2E7F0122E0C5
:10404000E20EF11C0CC07F01AB3231F04FEFE41AED
:10405000F40A21E030E006C0A2E0EA0EF11CA181E2
:1040600022E030E0A053AA3018F0E21AF30A23C08D
:10407000F70120E030E02038BCE03B075CF4A90108
:10408000440F551F440F551F240F351F220F331F98
:104090002A0F311DAF014F5F5F4F7A01A081A053FE
:1040A000AA3010F4FA01E7CFD4FE03C03195219570
:1040B0003109C20FD31FD1FE09C00115110531F01E
:1040C000E1E0EE1AF108D801ED92FC920E948C1901
:1040D0002D2D2370233019F04B015C0106C04B01DC
:1040E0005C01B7FAB094B7F8B09420E030E0A901D1
:1040F000C501B4010E945719882309F43EC0D7FFB7
:1041000006C0D195C195D10901E011E002C009E1D5
:1041100011E06801B8E1CB1AD10890E2E92EF12C48
:10412000CE15DF0574F0F801259135914591549134
:10413000C501B4010E943E1A4B015C01CE19DF0992
:10414000EFCF04501109F594E7940C151D0541F7C4
:104150008A2D880F8B2D881F8F3F49F020E030E09B
:10416000A901C501B4010E945719811106C082E25C
:1041700090E09093AE028093AD02C501B40109C0F6
:1041800060E070E080E89FEF04C060E070E080ECE9
:104190009FE7CDB7DEB7ECE00C94F321283008F0B0
:1041A00027E03327DA01990F311D87FD91600096D2
:1041B0006105710539F432602E5F3D9330E32A9535
:1041C000E1F708959F3F30F080387105610509F0EF
:1041D0003C5F3C5F3D93913008F08068911DDF9318
:1041E000CF931F930F93FF92EF92192F987F96957D
:1041F000E92F96959695E90FFF27E958FE4F9927E5
:104200003327EE24FF24A701E701059008940794C3
:1042100028F4360FE71EF81E491F511D660F771F41
:10422000881F991F0694A1F70590079428F4E70EBC
:10423000F81E491F561FC11D770F881F991F661F43
:104240000694A1F70590079428F4F80E491F561F0D
:10425000C71FD11D880F991F661F771F0694A1F7EE
:104260000590079420F4490F561FC71FD81F990FB8
:10427000661F771F881F0694A9F784911095177001
:1042800041F0D695C79557954795F794E7941A95B9
:10429000C1F7EDE1F1E068941590159135916591C4
:1042A000959105907FE27395E118F10A430B560B47
:1042B000C90BD009C0F7E10CF11E431F561FC91FDF
:1042C000D01D7EF4703311F48A95E6CFE894015046
:1042D00030F0080F0AF40027021708F4202F239566
:1042E000022F7A3328F079E37D932A95E9F710C0FD
:1042F0007D932A9589F60694979567953795179536
:104300001794E118F10A430B560BC90BD00998F02A
:1043100023957E9173957A3308F070E37C93201394
:10432000B8F77E9170617D9330F0839571E37D9352
:1043300070E32A95E1F71124EF90FF900F911F9100
:10434000CF91DF91992787FD909508959927882728
:104350000895FB01DC014150504088F08D9181347B
:104360001CF08B350CF4805E659161341CF06B356C
:104370000CF4605E861B611171F3990B0895881B24
:10438000FCCFDC01FC01672F71917723E1F73297B5
:1043900004C07C916D9370836291AE17BF07C8F320
:1043A00008952F923F924F925F926F927F928F92D9
:1043B0009F92AF92BF92CF92DF92EF92FF920F93B4
:1043C0001F93CF93DF93CDB7DEB7CA1BDB0B0FB6BE
:1043D000F894DEBF0FBECDBF09942A88398848887B
:1043E0005F846E847D848C849B84AA84B984C88411
:1043F000DF80EE80FD800C811B81AA81B981CE0F08
:10440000D11D0FB6F894DEBF0FBECDBFED010895EC
:1044100012E0CAE1D2E004C0FE010E940C1B229609
:0A442000CC31D107C9F7F894FFCFA3
:10442A000000AF028000DB0F49408FC2753DC4090E
:10443A007B04020011100F012009004F4B00455266
:10444A00524F522030210056656C6F636964616473
:10445A00206DC3A178696D6120617369676E6164BB
:10446A00613A200056656C6F6369646164206DC3AC
:10447A00A178696D612061637475616C3A20004BA3
:10448A005020617369676E61646F3A20004B502057
:10449A0061637475616C3A20004A616E203137207D
:1044AA003230313600466563686120646520436FA7
:1044BA006D70696C616369C3B36E3A200032303A39
:1044CA0035393A303300486F726120646520436F92
:1044DA006D70696C616369C3B36E3A200052756E80
:1044EA003A20747275650052756E3A2066616C7373
:1044FA0065004C6574277320676F21000000000077
:10450A003E102E15AB101D10911090100D0A006E62
:0E451A00616E00696E66006F7666002E00000E
:00000001FF
