:100000000C9461000C947E000C947E000C94F90119
:100010000C947E000C947E000C947E000C947E0068
:100020000C947E000C947E000C947E000C947E0058
:100030000C947E000C947E000C947E000C947E0048
:100040000C9440020C948E010C947E000C947E0063
:100050000C947E000C947E000C947E000C947E0028
:100060000C947E000C947E00000000080002010049
:100070000003040700000000000000000102040863
:100080001020408001020408102001020408102002
:10009000040404040404040402020202020203032E
:1000A00003030303000000002300260029000000D2
:1000B0000000250028002B0000000000240027007D
:1000C0002A0011241FBECFEFD8E0DEBFCDBF11E064
:1000D000A0E0B1E0E2E0FAE002C005900D92AA30A3
:1000E000B107D9F721E0AAE0B1E001C01D92A0322A
:1000F000B207E1F70E94C9030C94FF040C940000BE
:10010000F89488E10FB6F894809360001092600034
:100110000FBE789461E08CE00E94300361E08EE0D5
:100120000E94300361E08FE00E9430038CB5806450
:100130008CBD8CB580688CBD83B78E7F83BF80916A
:100140000F01811117C08AE00E949F03019711F4EB
:100150001092120180910E01882389F328E088E132
:1001600090E00FB6F894A895809360000FBE20939E
:100170006000FFCF8091100190911101892B61F4F3
:100180008091080190910901880F991F0E94D8035E
:10019000909311018093100108950F931F93CF93B3
:1001A000DF9380910E01882361F028E088E190E0E0
:1001B0000FB6F894A895809360000FBE209360005E
:1001C000FFCF8AE00E949F03892B19F01092120141
:1001D00071C080910D01882309F46CC080910F01DA
:1001E000882309F467C061E080E00E94690361E050
:1001F00080E00E9430038AE090E00E94C30260E049
:1002000080E00E94300360E080E00E946903109269
:100210000B0110920A01409110015091110120E050
:1002200030E080E090E0609108017091090186174C
:1002300097076CF4F901E40FF51F609106017091C6
:100240000701718360832E5F3F4F0196ECCF90933F
:100250000B0180930A010E948A020E94A002603D65
:10026000774081059105D0F480E00E949F03892B9F
:10027000A1F70E94A002C0911001D0911101288124
:100280003981890120E030E0601771078207930708
:1002900020F70E94A00279836883DFCFE0911001EC
:1002A000F0911101808191818EBD00000DB407FE97
:1002B000FDCF8EB5DF91CF911F910F91089560E032
:1002C0008CE00E94300360E08DE00E94300360E02B
:1002D0008BE00E94300360E08AE00E9430031092BD
:1002E0000F01EBE6F0E0808184608083E8E6F0E0D7
:1002F00080818160808383B7817F846083BFE4E6EF
:10030000F0E0808181608083808180688083F894C0
:1003100083B7816083BF7894889508951F920F9268
:100320000FB60F9211242F933F934F935F936F93C8
:100330007F938F939F93AF93BF93EF93FF938EB56C
:1003400090911201911102C08093120190911201BB
:10035000933009F148F4913081F09230B1F5409832
:10036000419810920F0131C09530D9F060F194316D
:1003700061F581E080930D0128C0409A80910C01C5
:10038000882319F090930F01419A80910C018F5F9F
:1003900080930C011AC0419881E080930E01409A2D
:1003A00014C090E0909309018093080180910801A6
:1003B000909109010F974CF08EE090E09093090125
:1003C0008093080102C00E945F01809112018EBDDE
:1003D000FF91EF91BF91AF919F918F917F916F911D
:1003E0005F914F913F912F910F900FBE0F901F90F3
:1003F00018951F920F920FB60F9211242F933F93CF
:100400004F935F936F937F938F939F93AF93BF931C
:10041000EF93FF9380910F01811121C08AE00E9428
:100420009F03892BE1F08BE00E949F03892BB9F099
:100430008CE00E949F03892B91F08DE00E949F0326
:10044000892B69F083B78E7F83BF80916B008B7F90
:1004500080936B00809168008E7F80936800FF918D
:10046000EF91BF91AF919F918F917F916F915F912C
:100470004F913F912F910F900FBE0F901F901895A5
:100480001F920F920FB60F9211242F933F938F93C9
:100490009F93AF93BF938091140190911501A09108
:1004A0001601B09117013091130126E0230F2D376B
:1004B00020F40296A11DB11D05C029E8230F039663
:1004C000A11DB11D20931301809314019093150178
:1004D000A0931601B0931701809118019091190112
:1004E000A0911A01B0911B010196A11DB11D80932D
:1004F000180190931901A0931A01B0931B01BF91A9
:10050000AF919F918F913F912F910F900FBE0F90C0
:100510001F9018958FB7F894109218011092190136
:1005200010921A0110921B011092130110921401E3
:100530001092150110921601109217018FBF0895A5
:100540003FB7F8948091180190911901A0911A0178
:10055000B0911B0126B5A89B05C02F3F19F001964D
:10056000A11DB11D3FBF6627782F892F9A2F620FDB
:10057000711D811D911D43E0660F771F881F991F14
:100580004A95D1F708958330910528F0880F991F77
:1005900004970197F1F70895789484B5826084BD3B
:1005A00084B5816084BD85B5826085BD85B5816077
:1005B00085BDEEE6F0E0808181608083E1E8F0E0D7
:1005C0001082808182608083808181608083E0E806
:1005D000F0E0808181608083E1EBF0E080818460E5
:1005E0008083E0EBF0E0808181608083EAE7F0E0E7
:1005F00080818460808380818260808380818E7F1F
:1006000080838081806880831092C1000895833048
:1006100081F028F4813099F08230A1F0089587307C
:10062000A9F08830B9F08430D1F4809180008F7DBA
:1006300003C0809180008F7780938000089584B5F7
:100640008F7702C084B58F7D84BD08958091B000FE
:100650008F7703C08091B0008F7D8093B0000895A4
:10066000CF93DF9390E0FC01E458FF4F2491FC010D
:10067000E057FF4F8491882349F190E0880F991F3C
:10068000FC01E854FF4FA591B49182559F4FFC01A6
:10069000C591D4919FB7611108C0F8948C912095B1
:1006A00082238C93888182230AC0623051F4F894AB
:1006B0008C91322F309583238C938881822B888371
:1006C00004C0F8948C91822B8C939FBFDF91CF91C3
:1006D00008950F931F93CF93DF931F92CDB7DEB78B
:1006E000282F30E0F901E859FF4F8491F901E458CF
:1006F000FF4F1491F901E057FF4F04910023C9F017
:10070000882321F069830E9407036981E02FF0E0CC
:10071000EE0FFF1FE255FF4FA591B4919FB7F894DC
:100720008C91611103C01095812301C0812B8C93A2
:100730009FBF0F90DF91CF911F910F910895CF939D
:10074000DF93282F30E0F901E859FF4F8491F90138
:10075000E458FF4FD491F901E057FF4FC491CC23E7
:1007600091F081110E940703EC2FF0E0EE0FFF1FC4
:10077000EC55FF4FA591B4912C912D2381E090E091
:1007800021F480E002C080E090E0DF91CF910895F5
:1007900008950E94CC020E94C8030E948000C0E01D
:1007A000D0E00E94CD002097E1F30E940000F9CF35
:1007B000CF93DF938230910510F482E090E0E091D6
:1007C0001E01F0911F0120E030E0A0E0B0E0309782
:1007D00039F14081518148175907B8F04817590736
:1007E00071F482819381109729F013969C938E93D4
:1007F00012972CC090931F0180931E0127C02115D2
:10080000310531F04217530718F0A901DB0101C08F
:10081000EF019A01BD01DF010280F381E02DD7CF06
:1008200021153105F9F0281B390B2430310580F4EE
:100830008A819B816115710521F0FB01938382837D
:1008400004C090931F0180931E01FE01329644C0A4
:10085000FE01E20FF31F81939193225031093983F6
:1008600028833AC020911C0130911D01232B41F4B3
:10087000209102013091030130931D0120931C014E
:1008800020910001309101012115310541F42DB76E
:100890003EB74091040150910501241B350BE091B6
:1008A0001C01F0911D01E217F307A0F42E1B3F0B72
:1008B0002817390778F0AC014E5F5F4F24173507D2
:1008C00048F04E0F5F1F50931D0140931C01819310
:1008D000919302C0E0E0F0E0CF01DF91CF91089565
:1008E000CF93DF93009709F487C0FC0132971382FE
:1008F0001282C0911E01D0911F01209781F42081A6
:100900003181280F391F80911C0190911D018217A0
:10091000930779F5F0931D01E0931C016DC0DE0192
:1009200020E030E0AE17BF0750F412964D915C9175
:1009300013979D014115510509F1DA01F3CFB383F6
:10094000A28340815181840F951F8A179B0771F400
:100950008D919C911197840F951F029691838083AE
:1009600012968D919C911397938382832115310563
:1009700029F4F0931F01E0931E013EC0D9011396A4
:10098000FC93EE9312974D915D91A40FB51FEA175A
:10099000FB0779F480819181840F951F0296D9011C
:1009A00011969C938E938281938113969C938E9340
:1009B0001297E0E0F0E08A819B81009719F0FE0138
:1009C000EC01F9CFCE01029628813981820F931F65
:1009D00020911C0130911D012817390769F43097C7
:1009E00029F410921F0110921E0102C0138212827C
:1009F000D0931D01C0931C01DF91CF910895F8940D
:020A0000FFCF26
:0A0A0200000020018000D0070E0064
:00000001FF
